{
	"main.sol": {
		"EncodedNFTDelegatorEfficient": {
			"abi": [
				{
					"inputs": [],
					"stateMutability": "nonpayable",
					"type": "constructor"
				},
				{
					"stateMutability": "payable",
					"type": "fallback"
				},
				{
					"inputs": [
						{
							"internalType": "address",
							"name": "_apocalypse",
							"type": "address"
						}
					],
					"name": "destroy",
					"outputs": [],
					"stateMutability": "nonpayable",
					"type": "function"
				},
				{
					"inputs": [],
					"name": "generateNewKey",
					"outputs": [],
					"stateMutability": "nonpayable",
					"type": "function"
				},
				{
					"inputs": [],
					"name": "getKey",
					"outputs": [
						{
							"internalType": "bytes32",
							"name": "",
							"type": "bytes32"
						}
					],
					"stateMutability": "view",
					"type": "function"
				},
				{
					"inputs": [],
					"name": "getOwner",
					"outputs": [
						{
							"internalType": "address",
							"name": "",
							"type": "address"
						}
					],
					"stateMutability": "view",
					"type": "function"
				},
				{
					"inputs": [],
					"name": "getRecipient",
					"outputs": [
						{
							"internalType": "address",
							"name": "",
							"type": "address"
						}
					],
					"stateMutability": "view",
					"type": "function"
				},
				{
					"inputs": [
						{
							"internalType": "address",
							"name": "",
							"type": "address"
						},
						{
							"internalType": "address",
							"name": "",
							"type": "address"
						},
						{
							"internalType": "uint256",
							"name": "",
							"type": "uint256"
						},
						{
							"internalType": "bytes",
							"name": "",
							"type": "bytes"
						}
					],
					"name": "onERC721Received",
					"outputs": [
						{
							"internalType": "bytes4",
							"name": "",
							"type": "bytes4"
						}
					],
					"stateMutability": "nonpayable",
					"type": "function"
				},
				{
					"inputs": [
						{
							"internalType": "address",
							"name": "_address",
							"type": "address"
						}
					],
					"name": "setRecipient",
					"outputs": [],
					"stateMutability": "nonpayable",
					"type": "function"
				},
				{
					"inputs": [
						{
							"internalType": "bytes32",
							"name": "_key",
							"type": "bytes32"
						},
						{
							"components": [
								{
									"internalType": "bytes1",
									"name": "considerationIdentifier",
									"type": "bytes1"
								},
								{
									"internalType": "bytes1",
									"name": "offerAmount",
									"type": "bytes1"
								},
								{
									"internalType": "bytes1",
									"name": "basicOrderType",
									"type": "bytes1"
								},
								{
									"internalType": "bytes1",
									"name": "totalOriginalAdditionalRecipients",
									"type": "bytes1"
								},
								{
									"internalType": "bytes2",
									"name": "offerIdentifier",
									"type": "bytes2"
								},
								{
									"internalType": "bytes4",
									"name": "startTime",
									"type": "bytes4"
								},
								{
									"internalType": "bytes4",
									"name": "endTime",
									"type": "bytes4"
								},
								{
									"internalType": "bytes20",
									"name": "considerationToken",
									"type": "bytes20"
								},
								{
									"internalType": "bytes20",
									"name": "offerer",
									"type": "bytes20"
								},
								{
									"internalType": "bytes20",
									"name": "zone",
									"type": "bytes20"
								},
								{
									"internalType": "bytes20",
									"name": "offerToken",
									"type": "bytes20"
								},
								{
									"internalType": "bytes32",
									"name": "considerationAmount",
									"type": "bytes32"
								},
								{
									"internalType": "bytes32",
									"name": "zoneHash",
									"type": "bytes32"
								},
								{
									"internalType": "bytes32",
									"name": "salt",
									"type": "bytes32"
								},
								{
									"internalType": "bytes32",
									"name": "offererConduitKey",
									"type": "bytes32"
								},
								{
									"internalType": "bytes32",
									"name": "fulfillerConduitKey",
									"type": "bytes32"
								},
								{
									"internalType": "bytes",
									"name": "signature",
									"type": "bytes"
								},
								{
									"components": [
										{
											"internalType": "bytes20",
											"name": "recipient",
											"type": "bytes20"
										},
										{
											"internalType": "bytes32",
											"name": "amount",
											"type": "bytes32"
										}
									],
									"internalType": "struct EncodedNFTDelegatorEfficient.EncodedAditionalRecipientOpenSea[]",
									"name": "additionalRecipients",
									"type": "tuple[]"
								}
							],
							"internalType": "struct EncodedNFTDelegatorEfficient.EncodedParametersOpenSea",
							"name": "_parameters",
							"type": "tuple"
						}
					],
					"name": "submitOpenSea",
					"outputs": [],
					"stateMutability": "payable",
					"type": "function"
				},
				{
					"inputs": [
						{
							"internalType": "address payable",
							"name": "_to",
							"type": "address"
						},
						{
							"internalType": "address",
							"name": "_token",
							"type": "address"
						},
						{
							"internalType": "uint256",
							"name": "_id",
							"type": "uint256"
						}
					],
					"name": "transferToken",
					"outputs": [],
					"stateMutability": "nonpayable",
					"type": "function"
				},
				{
					"inputs": [
						{
							"internalType": "address payable",
							"name": "_to",
							"type": "address"
						}
					],
					"name": "withdrawAll",
					"outputs": [],
					"stateMutability": "nonpayable",
					"type": "function"
				}
			],
			"devdoc": {
				"kind": "dev",
				"methods": {},
				"version": 1
			},
			"evm": {
				"assembly": "    /* \"main.sol\":55:7342  contract EncodedNFTDelegatorEfficient\r... */\n  mstore(0x40, 0x80)\n    /* \"main.sol\":1112:1290  constructor() \r... */\n  callvalue\n  dup1\n  iszero\n  tag_1\n  jumpi\n  0x00\n  dup1\n  revert\ntag_1:\n  pop\n    /* \"main.sol\":1151:1161  msg.sender */\n  caller\n    /* \"main.sol\":1143:1148  owner */\n  0x00\n  dup1\n    /* \"main.sol\":1143:1161  owner = msg.sender */\n  0x0100\n  exp\n  dup2\n  sload\n  dup2\n  0xffffffffffffffffffffffffffffffffffffffff\n  mul\n  not\n  and\n  swap1\n  dup4\n  0xffffffffffffffffffffffffffffffffffffffff\n  and\n  mul\n  or\n  swap1\n  sstore\n  pop\n    /* \"main.sol\":1184:1194  msg.sender */\n  caller\n    /* \"main.sol\":1172:1181  recipient */\n  0x01\n  0x00\n    /* \"main.sol\":1172:1194  recipient = msg.sender */\n  0x0100\n  exp\n  dup2\n  sload\n  dup2\n  0xffffffffffffffffffffffffffffffffffffffff\n  mul\n  not\n  and\n  swap1\n  dup4\n  0xffffffffffffffffffffffffffffffffffffffff\n  and\n  mul\n  or\n  swap1\n  sstore\n  pop\n    /* \"main.sol\":1246:1261  block.timestamp */\n  timestamp\n    /* \"main.sol\":1263:1279  block.difficulty */\n  difficulty\n    /* \"main.sol\":1229:1280  abi.encodePacked(block.timestamp, block.difficulty) */\n  add(0x20, mload(0x40))\n  tag_4\n  swap3\n  swap2\n  swap1\n  tag_5\n  jump\t// in\ntag_4:\n  mload(0x40)\n  0x20\n  dup2\n  dup4\n  sub\n  sub\n  dup2\n  mstore\n  swap1\n  0x40\n  mstore\n    /* \"main.sol\":1219:1281  keccak256(abi.encodePacked(block.timestamp, block.difficulty)) */\n  dup1\n  mload\n  swap1\n  0x20\n  add\n  keccak256\n    /* \"main.sol\":1205:1208  key */\n  0x02\n    /* \"main.sol\":1205:1282  key = bytes32(keccak256(abi.encodePacked(block.timestamp, block.difficulty))) */\n  dup2\n  swap1\n  sstore\n  pop\n    /* \"main.sol\":55:7342  contract EncodedNFTDelegatorEfficient\r... */\n  jump(tag_6)\n    /* \"#utility.yul\":7:164   */\ntag_8:\n    /* \"#utility.yul\":112:157   */\n  tag_10\n    /* \"#utility.yul\":132:156   */\n  tag_11\n    /* \"#utility.yul\":150:155   */\n  dup3\n    /* \"#utility.yul\":132:156   */\n  tag_12\n  jump\t// in\ntag_11:\n    /* \"#utility.yul\":112:157   */\n  tag_13\n  jump\t// in\ntag_10:\n    /* \"#utility.yul\":107:110   */\n  dup3\n    /* \"#utility.yul\":100:158   */\n  mstore\n    /* \"#utility.yul\":7:164   */\n  pop\n  pop\n  jump\t// out\n    /* \"#utility.yul\":170:567   */\ntag_5:\n    /* \"#utility.yul\":310:313   */\n  0x00\n    /* \"#utility.yul\":325:400   */\n  tag_15\n    /* \"#utility.yul\":396:399   */\n  dup3\n    /* \"#utility.yul\":387:393   */\n  dup6\n    /* \"#utility.yul\":325:400   */\n  tag_8\n  jump\t// in\ntag_15:\n    /* \"#utility.yul\":425:427   */\n  0x20\n    /* \"#utility.yul\":420:423   */\n  dup3\n    /* \"#utility.yul\":416:428   */\n  add\n    /* \"#utility.yul\":409:428   */\n  swap2\n  pop\n    /* \"#utility.yul\":438:513   */\n  tag_16\n    /* \"#utility.yul\":509:512   */\n  dup3\n    /* \"#utility.yul\":500:506   */\n  dup5\n    /* \"#utility.yul\":438:513   */\n  tag_8\n  jump\t// in\ntag_16:\n    /* \"#utility.yul\":538:540   */\n  0x20\n    /* \"#utility.yul\":533:536   */\n  dup3\n    /* \"#utility.yul\":529:541   */\n  add\n    /* \"#utility.yul\":522:541   */\n  swap2\n  pop\n    /* \"#utility.yul\":558:561   */\n  dup2\n    /* \"#utility.yul\":551:561   */\n  swap1\n  pop\n    /* \"#utility.yul\":170:567   */\n  swap4\n  swap3\n  pop\n  pop\n  pop\n  jump\t// out\n    /* \"#utility.yul\":573:650   */\ntag_12:\n    /* \"#utility.yul\":610:617   */\n  0x00\n    /* \"#utility.yul\":639:644   */\n  dup2\n    /* \"#utility.yul\":628:644   */\n  swap1\n  pop\n    /* \"#utility.yul\":573:650   */\n  swap2\n  swap1\n  pop\n  jump\t// out\n    /* \"#utility.yul\":656:735   */\ntag_13:\n    /* \"#utility.yul\":695:702   */\n  0x00\n    /* \"#utility.yul\":724:729   */\n  dup2\n    /* \"#utility.yul\":713:729   */\n  swap1\n  pop\n    /* \"#utility.yul\":656:735   */\n  swap2\n  swap1\n  pop\n  jump\t// out\n    /* \"main.sol\":55:7342  contract EncodedNFTDelegatorEfficient\r... */\ntag_6:\n  dataSize(sub_0)\n  dup1\n  dataOffset(sub_0)\n  0x00\n  codecopy\n  0x00\n  return\nstop\n\nsub_0: assembly {\n        /* \"main.sol\":55:7342  contract EncodedNFTDelegatorEfficient\r... */\n      mstore(0x40, 0x80)\n      jumpi(tag_1, lt(calldatasize, 0x04))\n      shr(0xe0, calldataload(0x00))\n      dup1\n      0x71d30350\n      gt\n      tag_13\n      jumpi\n      dup1\n      0x71d30350\n      eq\n      tag_8\n      jumpi\n      dup1\n      0x82678dd6\n      eq\n      tag_9\n      jumpi\n      dup1\n      0x893d20e8\n      eq\n      tag_10\n      jumpi\n      dup1\n      0xf5537ede\n      eq\n      tag_11\n      jumpi\n      dup1\n      0xfa09e630\n      eq\n      tag_12\n      jumpi\n      jump(tag_2)\n    tag_13:\n      dup1\n      0xf55d9d\n      eq\n      tag_3\n      jumpi\n      dup1\n      0x150b7a02\n      eq\n      tag_4\n      jumpi\n      dup1\n      0x1b88094d\n      eq\n      tag_5\n      jumpi\n      dup1\n      0x3bbed4a0\n      eq\n      tag_6\n      jumpi\n      dup1\n      0x4b5d60b4\n      eq\n      tag_7\n      jumpi\n      jump(tag_2)\n    tag_1:\n    tag_2:\n      stop\n        /* \"main.sol\":7200:7337  function destroy(address _apocalypse) public \r... */\n    tag_3:\n      callvalue\n      dup1\n      iszero\n      tag_16\n      jumpi\n      0x00\n      dup1\n      revert\n    tag_16:\n      pop\n      tag_17\n      0x04\n      dup1\n      calldatasize\n      sub\n      dup2\n      add\n      swap1\n      tag_18\n      swap2\n      swap1\n      tag_19\n      jump\t// in\n    tag_18:\n      tag_20\n      jump\t// in\n    tag_17:\n      stop\n        /* \"main.sol\":7005:7187  function onERC721Received(\r... */\n    tag_4:\n      callvalue\n      dup1\n      iszero\n      tag_21\n      jumpi\n      0x00\n      dup1\n      revert\n    tag_21:\n      pop\n      tag_22\n      0x04\n      dup1\n      calldatasize\n      sub\n      dup2\n      add\n      swap1\n      tag_23\n      swap2\n      swap1\n      tag_24\n      jump\t// in\n    tag_23:\n      tag_25\n      jump\t// in\n    tag_22:\n      mload(0x40)\n      tag_26\n      swap2\n      swap1\n      tag_27\n      jump\t// in\n    tag_26:\n      mload(0x40)\n      dup1\n      swap2\n      sub\n      swap1\n      return\n        /* \"main.sol\":3128:3261  function getRecipient() public view returns (address)\r... */\n    tag_5:\n      callvalue\n      dup1\n      iszero\n      tag_28\n      jumpi\n      0x00\n      dup1\n      revert\n    tag_28:\n      pop\n      tag_29\n      tag_30\n      jump\t// in\n    tag_29:\n      mload(0x40)\n      tag_31\n      swap2\n      swap1\n      tag_32\n      jump\t// in\n    tag_31:\n      mload(0x40)\n      dup1\n      swap2\n      sub\n      swap1\n      return\n        /* \"main.sol\":3494:3625  function setRecipient(address _address) public \r... */\n    tag_6:\n      callvalue\n      dup1\n      iszero\n      tag_33\n      jumpi\n      0x00\n      dup1\n      revert\n    tag_33:\n      pop\n      tag_34\n      0x04\n      dup1\n      calldatasize\n      sub\n      dup2\n      add\n      swap1\n      tag_35\n      swap2\n      swap1\n      tag_19\n      jump\t// in\n    tag_35:\n      tag_36\n      jump\t// in\n    tag_34:\n      stop\n        /* \"main.sol\":3818:6956  function submitOpenSea(bytes32 _key, EncodedParametersOpenSea calldata _parameters) public payable\r... */\n    tag_7:\n      tag_37\n      0x04\n      dup1\n      calldatasize\n      sub\n      dup2\n      add\n      swap1\n      tag_38\n      swap2\n      swap1\n      tag_39\n      jump\t// in\n    tag_38:\n      tag_40\n      jump\t// in\n    tag_37:\n      stop\n        /* \"main.sol\":3633:3806  function generateNewKey() public\r... */\n    tag_8:\n      callvalue\n      dup1\n      iszero\n      tag_41\n      jumpi\n      0x00\n      dup1\n      revert\n    tag_41:\n      pop\n      tag_42\n      tag_43\n      jump\t// in\n    tag_42:\n      stop\n        /* \"main.sol\":3269:3390  function getKey() public view returns (bytes32)\r... */\n    tag_9:\n      callvalue\n      dup1\n      iszero\n      tag_44\n      jumpi\n      0x00\n      dup1\n      revert\n    tag_44:\n      pop\n      tag_45\n      tag_46\n      jump\t// in\n    tag_45:\n      mload(0x40)\n      tag_47\n      swap2\n      swap1\n      tag_48\n      jump\t// in\n    tag_47:\n      mload(0x40)\n      dup1\n      swap2\n      sub\n      swap1\n      return\n        /* \"main.sol\":3400:3486  function getOwner() public view returns (address)\r... */\n    tag_10:\n      callvalue\n      dup1\n      iszero\n      tag_49\n      jumpi\n      0x00\n      dup1\n      revert\n    tag_49:\n      pop\n      tag_50\n      tag_51\n      jump\t// in\n    tag_50:\n      mload(0x40)\n      tag_52\n      swap2\n      swap1\n      tag_32\n      jump\t// in\n    tag_52:\n      mload(0x40)\n      dup1\n      swap2\n      sub\n      swap1\n      return\n        /* \"main.sol\":2910:3120  function transferToken(address payable _to, address _token, uint256 _id) public\r... */\n    tag_11:\n      callvalue\n      dup1\n      iszero\n      tag_53\n      jumpi\n      0x00\n      dup1\n      revert\n    tag_53:\n      pop\n      tag_54\n      0x04\n      dup1\n      calldatasize\n      sub\n      dup2\n      add\n      swap1\n      tag_55\n      swap2\n      swap1\n      tag_56\n      jump\t// in\n    tag_55:\n      tag_57\n      jump\t// in\n    tag_54:\n      stop\n        /* \"main.sol\":2755:2902  function withdrawAll(address payable _to) public\r... */\n    tag_12:\n      callvalue\n      dup1\n      iszero\n      tag_58\n      jumpi\n      0x00\n      dup1\n      revert\n    tag_58:\n      pop\n      tag_59\n      0x04\n      dup1\n      calldatasize\n      sub\n      dup2\n      add\n      swap1\n      tag_60\n      swap2\n      swap1\n      tag_61\n      jump\t// in\n    tag_60:\n      tag_62\n      jump\t// in\n    tag_59:\n      stop\n        /* \"main.sol\":7200:7337  function destroy(address _apocalypse) public \r... */\n    tag_20:\n        /* \"main.sol\":7284:7289  owner */\n      0x00\n      dup1\n      sload\n      swap1\n      0x0100\n      exp\n      swap1\n      div\n      0xffffffffffffffffffffffffffffffffffffffff\n      and\n        /* \"main.sol\":7270:7289  msg.sender == owner */\n      0xffffffffffffffffffffffffffffffffffffffff\n      and\n        /* \"main.sol\":7270:7280  msg.sender */\n      caller\n        /* \"main.sol\":7270:7289  msg.sender == owner */\n      0xffffffffffffffffffffffffffffffffffffffff\n      and\n      eq\n        /* \"main.sol\":7262:7290  require(msg.sender == owner) */\n      tag_64\n      jumpi\n      0x00\n      dup1\n      revert\n    tag_64:\n        /* \"main.sol\":7316:7327  _apocalypse */\n      dup1\n        /* \"main.sol\":7295:7329  selfdestruct(payable(_apocalypse)) */\n      0xffffffffffffffffffffffffffffffffffffffff\n      and\n      selfdestruct\n        /* \"main.sol\":7005:7187  function onERC721Received(\r... */\n    tag_25:\n        /* \"main.sol\":7137:7143  bytes4 */\n      0x00\n        /* \"main.sol\":7169:7179  0x150b7a02 */\n      0x150b7a02\n        /* \"main.sol\":7162:7179  return 0x150b7a02 */\n      0xe0\n      shl\n      swap1\n      pop\n        /* \"main.sol\":7005:7187  function onERC721Received(\r... */\n      swap6\n      swap5\n      pop\n      pop\n      pop\n      pop\n      pop\n      jump\t// out\n        /* \"main.sol\":3128:3261  function getRecipient() public view returns (address)\r... */\n    tag_30:\n        /* \"main.sol\":3173:3180  address */\n      0x00\n        /* \"main.sol\":3220:3225  owner */\n      dup1\n      0x00\n      swap1\n      sload\n      swap1\n      0x0100\n      exp\n      swap1\n      div\n      0xffffffffffffffffffffffffffffffffffffffff\n      and\n        /* \"main.sol\":3206:3225  msg.sender == owner */\n      0xffffffffffffffffffffffffffffffffffffffff\n      and\n        /* \"main.sol\":3206:3216  msg.sender */\n      caller\n        /* \"main.sol\":3206:3225  msg.sender == owner */\n      0xffffffffffffffffffffffffffffffffffffffff\n      and\n      eq\n        /* \"main.sol\":3198:3226  require(msg.sender == owner) */\n      tag_67\n      jumpi\n      0x00\n      dup1\n      revert\n    tag_67:\n        /* \"main.sol\":3244:3253  recipient */\n      0x01\n      0x00\n      swap1\n      sload\n      swap1\n      0x0100\n      exp\n      swap1\n      div\n      0xffffffffffffffffffffffffffffffffffffffff\n      and\n        /* \"main.sol\":3237:3253  return recipient */\n      swap1\n      pop\n        /* \"main.sol\":3128:3261  function getRecipient() public view returns (address)\r... */\n      swap1\n      jump\t// out\n        /* \"main.sol\":3494:3625  function setRecipient(address _address) public \r... */\n    tag_36:\n        /* \"main.sol\":3580:3585  owner */\n      0x00\n      dup1\n      sload\n      swap1\n      0x0100\n      exp\n      swap1\n      div\n      0xffffffffffffffffffffffffffffffffffffffff\n      and\n        /* \"main.sol\":3566:3585  msg.sender == owner */\n      0xffffffffffffffffffffffffffffffffffffffff\n      and\n        /* \"main.sol\":3566:3576  msg.sender */\n      caller\n        /* \"main.sol\":3566:3585  msg.sender == owner */\n      0xffffffffffffffffffffffffffffffffffffffff\n      and\n      eq\n        /* \"main.sol\":3558:3586  require(msg.sender == owner) */\n      tag_69\n      jumpi\n      0x00\n      dup1\n      revert\n    tag_69:\n        /* \"main.sol\":3609:3617  _address */\n      dup1\n        /* \"main.sol\":3597:3606  recipient */\n      0x01\n      0x00\n        /* \"main.sol\":3597:3617  recipient = _address */\n      0x0100\n      exp\n      dup2\n      sload\n      dup2\n      0xffffffffffffffffffffffffffffffffffffffff\n      mul\n      not\n      and\n      swap1\n      dup4\n      0xffffffffffffffffffffffffffffffffffffffff\n      and\n      mul\n      or\n      swap1\n      sstore\n      pop\n        /* \"main.sol\":3494:3625  function setRecipient(address _address) public \r... */\n      pop\n      jump\t// out\n        /* \"main.sol\":3818:6956  function submitOpenSea(bytes32 _key, EncodedParametersOpenSea calldata _parameters) public payable\r... */\n    tag_40:\n        /* \"main.sol\":3943:3961  bytes32 encodedKey */\n      0x00\n        /* \"main.sol\":3971:3974  key */\n      sload(0x02)\n        /* \"main.sol\":3964:3968  _key */\n      dup4\n        /* \"main.sol\":3964:3974  _key ^ key */\n      xor\n        /* \"main.sol\":3943:3974  bytes32 encodedKey = _key ^ key */\n      swap1\n      pop\n        /* \"main.sol\":3995:4025  uint totalAdditionalRecipients */\n      0x00\n        /* \"main.sol\":4028:4098  decodeUint1(encodedKey, _parameters.totalOriginalAdditionalRecipients) */\n      tag_71\n        /* \"main.sol\":4040:4050  encodedKey */\n      dup3\n        /* \"main.sol\":4052:4063  _parameters */\n      dup5\n        /* \"main.sol\":4052:4097  _parameters.totalOriginalAdditionalRecipients */\n      0x60\n      add\n      0x20\n      dup2\n      add\n      swap1\n      tag_72\n      swap2\n      swap1\n      tag_73\n      jump\t// in\n    tag_72:\n        /* \"main.sol\":4028:4039  decodeUint1 */\n      tag_74\n        /* \"main.sol\":4028:4098  decodeUint1(encodedKey, _parameters.totalOriginalAdditionalRecipients) */\n      jump\t// in\n    tag_71:\n        /* \"main.sol\":3995:4098  uint totalAdditionalRecipients = decodeUint1(encodedKey, _parameters.totalOriginalAdditionalRecipients) */\n      swap1\n      pop\n        /* \"main.sol\":4119:4185  OpenSeaInterface.AdditionalRecipient[] memory additionalRecipients */\n      0x00\n        /* \"main.sol\":4231:4256  totalAdditionalRecipients */\n      dup2\n        /* \"main.sol\":4188:4257  new OpenSeaInterface.AdditionalRecipient[](totalAdditionalRecipients) */\n      0xffffffffffffffff\n      dup2\n      gt\n      iszero\n      tag_75\n      jumpi\n      tag_76\n      tag_77\n      jump\t// in\n    tag_76:\n    tag_75:\n      mload(0x40)\n      swap1\n      dup1\n      dup3\n      mstore\n      dup1\n      0x20\n      mul\n      0x20\n      add\n      dup3\n      add\n      0x40\n      mstore\n      dup1\n      iszero\n      tag_78\n      jumpi\n      dup2\n      0x20\n      add\n    tag_79:\n      tag_80\n      tag_81\n      jump\t// in\n    tag_80:\n      dup2\n      mstore\n      0x20\n      add\n      swap1\n      0x01\n      swap1\n      sub\n      swap1\n      dup2\n      tag_79\n      jumpi\n      swap1\n      pop\n    tag_78:\n      pop\n        /* \"main.sol\":4119:4257  OpenSeaInterface.AdditionalRecipient[] memory additionalRecipients = new OpenSeaInterface.AdditionalRecipient[](totalAdditionalRecipients) */\n      swap1\n      pop\n        /* \"main.sol\":4276:4282  uint i */\n      0x00\n        /* \"main.sol\":4271:4635  for (uint i = 0; i != totalAdditionalRecipients; i++)\r... */\n    tag_82:\n        /* \"main.sol\":4293:4318  totalAdditionalRecipients */\n      dup3\n        /* \"main.sol\":4288:4289  i */\n      dup2\n        /* \"main.sol\":4288:4318  i != totalAdditionalRecipients */\n      eq\n        /* \"main.sol\":4271:4635  for (uint i = 0; i != totalAdditionalRecipients; i++)\r... */\n      tag_83\n      jumpi\n        /* \"main.sol\":4375:4623  OpenSeaInterface.AdditionalRecipient({\r... */\n      mload(0x40)\n      dup1\n      0x40\n      add\n      0x40\n      mstore\n      dup1\n        /* \"main.sol\":4439:4505  decodeUint(encodedKey, _parameters.additionalRecipients[i].amount) */\n      tag_85\n        /* \"main.sol\":4450:4460  encodedKey */\n      dup7\n        /* \"main.sol\":4462:4473  _parameters */\n      dup9\n        /* \"main.sol\":4462:4494  _parameters.additionalRecipients */\n      dup1\n      0x0220\n      add\n      swap1\n      tag_86\n      swap2\n      swap1\n      tag_87\n      jump\t// in\n    tag_86:\n        /* \"main.sol\":4495:4496  i */\n      dup7\n        /* \"main.sol\":4462:4497  _parameters.additionalRecipients[i] */\n      dup2\n      dup2\n      lt\n      tag_88\n      jumpi\n      tag_89\n      tag_90\n      jump\t// in\n    tag_89:\n    tag_88:\n      swap1\n      pop\n      0x40\n      mul\n      add\n        /* \"main.sol\":4462:4504  _parameters.additionalRecipients[i].amount */\n      0x20\n      add\n      calldataload\n        /* \"main.sol\":4439:4449  decodeUint */\n      tag_91\n        /* \"main.sol\":4439:4505  decodeUint(encodedKey, _parameters.additionalRecipients[i].amount) */\n      jump\t// in\n    tag_85:\n        /* \"main.sol\":4375:4623  OpenSeaInterface.AdditionalRecipient({\r... */\n      dup2\n      mstore\n      0x20\n      add\n        /* \"main.sol\":4535:4607  decodeAddress(encodedKey, _parameters.additionalRecipients[i].recipient) */\n      tag_92\n        /* \"main.sol\":4549:4559  encodedKey */\n      dup7\n        /* \"main.sol\":4561:4572  _parameters */\n      dup9\n        /* \"main.sol\":4561:4593  _parameters.additionalRecipients */\n      dup1\n      0x0220\n      add\n      swap1\n      tag_93\n      swap2\n      swap1\n      tag_87\n      jump\t// in\n    tag_93:\n        /* \"main.sol\":4594:4595  i */\n      dup7\n        /* \"main.sol\":4561:4596  _parameters.additionalRecipients[i] */\n      dup2\n      dup2\n      lt\n      tag_94\n      jumpi\n      tag_95\n      tag_90\n      jump\t// in\n    tag_95:\n    tag_94:\n      swap1\n      pop\n      0x40\n      mul\n      add\n        /* \"main.sol\":4561:4606  _parameters.additionalRecipients[i].recipient */\n      0x00\n      add\n      0x20\n      dup2\n      add\n      swap1\n      tag_96\n      swap2\n      swap1\n      tag_97\n      jump\t// in\n    tag_96:\n        /* \"main.sol\":4535:4548  decodeAddress */\n      tag_98\n        /* \"main.sol\":4535:4607  decodeAddress(encodedKey, _parameters.additionalRecipients[i].recipient) */\n      jump\t// in\n    tag_92:\n        /* \"main.sol\":4375:4623  OpenSeaInterface.AdditionalRecipient({\r... */\n      0xffffffffffffffffffffffffffffffffffffffff\n      and\n      dup2\n      mstore\n      pop\n        /* \"main.sol\":4349:4369  additionalRecipients */\n      dup3\n        /* \"main.sol\":4370:4371  i */\n      dup3\n        /* \"main.sol\":4349:4372  additionalRecipients[i] */\n      dup2\n      mload\n      dup2\n      lt\n      tag_99\n      jumpi\n      tag_100\n      tag_90\n      jump\t// in\n    tag_100:\n    tag_99:\n      0x20\n      mul\n      0x20\n      add\n      add\n        /* \"main.sol\":4349:4623  additionalRecipients[i] = OpenSeaInterface.AdditionalRecipient({\r... */\n      dup2\n      swap1\n      mstore\n      pop\n        /* \"main.sol\":4320:4323  i++ */\n      dup1\n      dup1\n      tag_101\n      swap1\n      tag_102\n      jump\t// in\n    tag_101:\n      swap2\n      pop\n      pop\n        /* \"main.sol\":4271:4635  for (uint i = 0; i != totalAdditionalRecipients; i++)\r... */\n      jump(tag_82)\n    tag_83:\n      pop\n        /* \"main.sol\":4655:4717  OpenSeaInterface.BasicOrderParameters memory decodedParameters */\n      0x00\n        /* \"main.sol\":4720:6202  OpenSeaInterface.BasicOrderParameters({\r... */\n      mload(0x40)\n      dup1\n      0x0240\n      add\n      0x40\n      mstore\n      dup1\n        /* \"main.sol\":4793:4850  decodeAddress(encodedKey, _parameters.considerationToken) */\n      tag_103\n        /* \"main.sol\":4807:4817  encodedKey */\n      dup7\n        /* \"main.sol\":4819:4830  _parameters */\n      dup9\n        /* \"main.sol\":4819:4849  _parameters.considerationToken */\n      0xe0\n      add\n      0x20\n      dup2\n      add\n      swap1\n      tag_104\n      swap2\n      swap1\n      tag_97\n      jump\t// in\n    tag_104:\n        /* \"main.sol\":4793:4806  decodeAddress */\n      tag_98\n        /* \"main.sol\":4793:4850  decodeAddress(encodedKey, _parameters.considerationToken) */\n      jump\t// in\n    tag_103:\n        /* \"main.sol\":4720:6202  OpenSeaInterface.BasicOrderParameters({\r... */\n      0xffffffffffffffffffffffffffffffffffffffff\n      and\n      dup2\n      mstore\n      0x20\n      add\n        /* \"main.sol\":4890:4950  decodeUint1(encodedKey, _parameters.considerationIdentifier) */\n      tag_105\n        /* \"main.sol\":4902:4912  encodedKey */\n      dup7\n        /* \"main.sol\":4914:4925  _parameters */\n      dup9\n        /* \"main.sol\":4914:4949  _parameters.considerationIdentifier */\n      0x00\n      add\n      0x20\n      dup2\n      add\n      swap1\n      tag_106\n      swap2\n      swap1\n      tag_73\n      jump\t// in\n    tag_106:\n        /* \"main.sol\":4890:4901  decodeUint1 */\n      tag_74\n        /* \"main.sol\":4890:4950  decodeUint1(encodedKey, _parameters.considerationIdentifier) */\n      jump\t// in\n    tag_105:\n        /* \"main.sol\":4720:6202  OpenSeaInterface.BasicOrderParameters({\r... */\n      dup2\n      mstore\n      0x20\n      add\n        /* \"main.sol\":4986:5041  decodeUint(encodedKey, _parameters.considerationAmount) */\n      tag_107\n        /* \"main.sol\":4997:5007  encodedKey */\n      dup7\n        /* \"main.sol\":5009:5020  _parameters */\n      dup9\n        /* \"main.sol\":5009:5040  _parameters.considerationAmount */\n      0x0160\n      add\n      calldataload\n        /* \"main.sol\":4986:4996  decodeUint */\n      tag_91\n        /* \"main.sol\":4986:5041  decodeUint(encodedKey, _parameters.considerationAmount) */\n      jump\t// in\n    tag_107:\n        /* \"main.sol\":4720:6202  OpenSeaInterface.BasicOrderParameters({\r... */\n      dup2\n      mstore\n      0x20\n      add\n        /* \"main.sol\":5073:5119  decodeAddress(encodedKey, _parameters.offerer) */\n      tag_108\n        /* \"main.sol\":5087:5097  encodedKey */\n      dup7\n        /* \"main.sol\":5099:5110  _parameters */\n      dup9\n        /* \"main.sol\":5099:5118  _parameters.offerer */\n      0x0100\n      add\n      0x20\n      dup2\n      add\n      swap1\n      tag_109\n      swap2\n      swap1\n      tag_97\n      jump\t// in\n    tag_109:\n        /* \"main.sol\":5073:5086  decodeAddress */\n      tag_98\n        /* \"main.sol\":5073:5119  decodeAddress(encodedKey, _parameters.offerer) */\n      jump\t// in\n    tag_108:\n        /* \"main.sol\":4720:6202  OpenSeaInterface.BasicOrderParameters({\r... */\n      0xffffffffffffffffffffffffffffffffffffffff\n      and\n      dup2\n      mstore\n      0x20\n      add\n        /* \"main.sol\":5141:5184  decodeAddress(encodedKey, _parameters.zone) */\n      tag_110\n        /* \"main.sol\":5155:5165  encodedKey */\n      dup7\n        /* \"main.sol\":5167:5178  _parameters */\n      dup9\n        /* \"main.sol\":5167:5183  _parameters.zone */\n      0x0120\n      add\n      0x20\n      dup2\n      add\n      swap1\n      tag_111\n      swap2\n      swap1\n      tag_97\n      jump\t// in\n    tag_111:\n        /* \"main.sol\":5141:5154  decodeAddress */\n      tag_98\n        /* \"main.sol\":5141:5184  decodeAddress(encodedKey, _parameters.zone) */\n      jump\t// in\n    tag_110:\n        /* \"main.sol\":4720:6202  OpenSeaInterface.BasicOrderParameters({\r... */\n      0xffffffffffffffffffffffffffffffffffffffff\n      and\n      dup2\n      mstore\n      0x20\n      add\n        /* \"main.sol\":5211:5260  decodeAddress(encodedKey, _parameters.offerToken) */\n      tag_112\n        /* \"main.sol\":5225:5235  encodedKey */\n      dup7\n        /* \"main.sol\":5237:5248  _parameters */\n      dup9\n        /* \"main.sol\":5237:5259  _parameters.offerToken */\n      0x0140\n      add\n      0x20\n      dup2\n      add\n      swap1\n      tag_113\n      swap2\n      swap1\n      tag_97\n      jump\t// in\n    tag_113:\n        /* \"main.sol\":5211:5224  decodeAddress */\n      tag_98\n        /* \"main.sol\":5211:5260  decodeAddress(encodedKey, _parameters.offerToken) */\n      jump\t// in\n    tag_112:\n        /* \"main.sol\":4720:6202  OpenSeaInterface.BasicOrderParameters({\r... */\n      0xffffffffffffffffffffffffffffffffffffffff\n      and\n      dup2\n      mstore\n      0x20\n      add\n        /* \"main.sol\":5292:5344  decodeUint2(encodedKey, _parameters.offerIdentifier) */\n      tag_114\n        /* \"main.sol\":5304:5314  encodedKey */\n      dup7\n        /* \"main.sol\":5316:5327  _parameters */\n      dup9\n        /* \"main.sol\":5316:5343  _parameters.offerIdentifier */\n      0x80\n      add\n      0x20\n      dup2\n      add\n      swap1\n      tag_115\n      swap2\n      swap1\n      tag_116\n      jump\t// in\n    tag_115:\n        /* \"main.sol\":5292:5303  decodeUint2 */\n      tag_117\n        /* \"main.sol\":5292:5344  decodeUint2(encodedKey, _parameters.offerIdentifier) */\n      jump\t// in\n    tag_114:\n        /* \"main.sol\":4720:6202  OpenSeaInterface.BasicOrderParameters({\r... */\n      dup2\n      mstore\n      0x20\n      add\n        /* \"main.sol\":5372:5420  decodeUint1(encodedKey, _parameters.offerAmount) */\n      tag_118\n        /* \"main.sol\":5384:5394  encodedKey */\n      dup7\n        /* \"main.sol\":5396:5407  _parameters */\n      dup9\n        /* \"main.sol\":5396:5419  _parameters.offerAmount */\n      0x20\n      add\n      0x20\n      dup2\n      add\n      swap1\n      tag_119\n      swap2\n      swap1\n      tag_73\n      jump\t// in\n    tag_119:\n        /* \"main.sol\":5372:5383  decodeUint1 */\n      tag_74\n        /* \"main.sol\":5372:5420  decodeUint1(encodedKey, _parameters.offerAmount) */\n      jump\t// in\n    tag_118:\n        /* \"main.sol\":4720:6202  OpenSeaInterface.BasicOrderParameters({\r... */\n      dup2\n      mstore\n      0x20\n      add\n        /* \"main.sol\":5483:5534  decodeUint1(encodedKey, _parameters.basicOrderType) */\n      tag_120\n        /* \"main.sol\":5495:5505  encodedKey */\n      dup7\n        /* \"main.sol\":5507:5518  _parameters */\n      dup9\n        /* \"main.sol\":5507:5533  _parameters.basicOrderType */\n      0x40\n      add\n      0x20\n      dup2\n      add\n      swap1\n      tag_121\n      swap2\n      swap1\n      tag_73\n      jump\t// in\n    tag_121:\n        /* \"main.sol\":5483:5494  decodeUint1 */\n      tag_74\n        /* \"main.sol\":5483:5534  decodeUint1(encodedKey, _parameters.basicOrderType) */\n      jump\t// in\n    tag_120:\n        /* \"main.sol\":5451:5535  OpenSeaInterface.BasicOrderType(decodeUint1(encodedKey, _parameters.basicOrderType)) */\n      0x17\n      dup2\n      gt\n      iszero\n      tag_122\n      jumpi\n      tag_123\n      tag_124\n      jump\t// in\n    tag_123:\n    tag_122:\n        /* \"main.sol\":4720:6202  OpenSeaInterface.BasicOrderParameters({\r... */\n      0x17\n      dup2\n      gt\n      iszero\n      tag_125\n      jumpi\n      tag_126\n      tag_124\n      jump\t// in\n    tag_126:\n    tag_125:\n      dup2\n      mstore\n      0x20\n      add\n        /* \"main.sol\":5561:5607  decodeUint4(encodedKey, _parameters.startTime) */\n      tag_127\n        /* \"main.sol\":5573:5583  encodedKey */\n      dup7\n        /* \"main.sol\":5585:5596  _parameters */\n      dup9\n        /* \"main.sol\":5585:5606  _parameters.startTime */\n      0xa0\n      add\n      0x20\n      dup2\n      add\n      swap1\n      tag_128\n      swap2\n      swap1\n      tag_129\n      jump\t// in\n    tag_128:\n        /* \"main.sol\":5561:5572  decodeUint4 */\n      tag_130\n        /* \"main.sol\":5561:5607  decodeUint4(encodedKey, _parameters.startTime) */\n      jump\t// in\n    tag_127:\n        /* \"main.sol\":4720:6202  OpenSeaInterface.BasicOrderParameters({\r... */\n      dup2\n      mstore\n      0x20\n      add\n        /* \"main.sol\":5631:5675  decodeUint4(encodedKey, _parameters.endTime) */\n      tag_131\n        /* \"main.sol\":5643:5653  encodedKey */\n      dup7\n        /* \"main.sol\":5655:5666  _parameters */\n      dup9\n        /* \"main.sol\":5655:5674  _parameters.endTime */\n      0xc0\n      add\n      0x20\n      dup2\n      add\n      swap1\n      tag_132\n      swap2\n      swap1\n      tag_129\n      jump\t// in\n    tag_132:\n        /* \"main.sol\":5631:5642  decodeUint4 */\n      tag_130\n        /* \"main.sol\":5631:5675  decodeUint4(encodedKey, _parameters.endTime) */\n      jump\t// in\n    tag_131:\n        /* \"main.sol\":4720:6202  OpenSeaInterface.BasicOrderParameters({\r... */\n      dup2\n      mstore\n      0x20\n      add\n        /* \"main.sol\":5700:5745  decodeBytes(encodedKey, _parameters.zoneHash) */\n      tag_133\n        /* \"main.sol\":5712:5722  encodedKey */\n      dup7\n        /* \"main.sol\":5724:5735  _parameters */\n      dup9\n        /* \"main.sol\":5724:5744  _parameters.zoneHash */\n      0x0180\n      add\n      calldataload\n        /* \"main.sol\":5700:5711  decodeBytes */\n      tag_134\n        /* \"main.sol\":5700:5745  decodeBytes(encodedKey, _parameters.zoneHash) */\n      jump\t// in\n    tag_133:\n        /* \"main.sol\":4720:6202  OpenSeaInterface.BasicOrderParameters({\r... */\n      dup2\n      mstore\n      0x20\n      add\n        /* \"main.sol\":5766:5806  decodeUint(encodedKey, _parameters.salt) */\n      tag_135\n        /* \"main.sol\":5777:5787  encodedKey */\n      dup7\n        /* \"main.sol\":5789:5800  _parameters */\n      dup9\n        /* \"main.sol\":5789:5805  _parameters.salt */\n      0x01a0\n      add\n      calldataload\n        /* \"main.sol\":5766:5776  decodeUint */\n      tag_91\n        /* \"main.sol\":5766:5806  decodeUint(encodedKey, _parameters.salt) */\n      jump\t// in\n    tag_135:\n        /* \"main.sol\":4720:6202  OpenSeaInterface.BasicOrderParameters({\r... */\n      dup2\n      mstore\n      0x20\n      add\n        /* \"main.sol\":5840:5894  decodeBytes(encodedKey, _parameters.offererConduitKey) */\n      tag_136\n        /* \"main.sol\":5852:5862  encodedKey */\n      dup7\n        /* \"main.sol\":5864:5875  _parameters */\n      dup9\n        /* \"main.sol\":5864:5893  _parameters.offererConduitKey */\n      0x01c0\n      add\n      calldataload\n        /* \"main.sol\":5840:5851  decodeBytes */\n      tag_134\n        /* \"main.sol\":5840:5894  decodeBytes(encodedKey, _parameters.offererConduitKey) */\n      jump\t// in\n    tag_136:\n        /* \"main.sol\":4720:6202  OpenSeaInterface.BasicOrderParameters({\r... */\n      dup2\n      mstore\n      0x20\n      add\n        /* \"main.sol\":5930:5986  decodeBytes(encodedKey, _parameters.fulfillerConduitKey) */\n      tag_137\n        /* \"main.sol\":5942:5952  encodedKey */\n      dup7\n        /* \"main.sol\":5954:5965  _parameters */\n      dup9\n        /* \"main.sol\":5954:5985  _parameters.fulfillerConduitKey */\n      0x01e0\n      add\n      calldataload\n        /* \"main.sol\":5930:5941  decodeBytes */\n      tag_134\n        /* \"main.sol\":5930:5986  decodeBytes(encodedKey, _parameters.fulfillerConduitKey) */\n      jump\t// in\n    tag_137:\n        /* \"main.sol\":4720:6202  OpenSeaInterface.BasicOrderParameters({\r... */\n      dup2\n      mstore\n      0x20\n      add\n        /* \"main.sol\":6036:6061  totalAdditionalRecipients */\n      dup5\n        /* \"main.sol\":4720:6202  OpenSeaInterface.BasicOrderParameters({\r... */\n      dup2\n      mstore\n      0x20\n      add\n        /* \"main.sol\":6098:6118  additionalRecipients */\n      dup4\n        /* \"main.sol\":4720:6202  OpenSeaInterface.BasicOrderParameters({\r... */\n      dup2\n      mstore\n      0x20\n      add\n        /* \"main.sol\":6144:6190  decodeBytes(encodedKey, _parameters.signature) */\n      tag_138\n        /* \"main.sol\":6156:6166  encodedKey */\n      dup7\n        /* \"main.sol\":6168:6179  _parameters */\n      dup9\n        /* \"main.sol\":6168:6189  _parameters.signature */\n      dup1\n      0x0200\n      add\n      swap1\n      tag_139\n      swap2\n      swap1\n      tag_140\n      jump\t// in\n    tag_139:\n        /* \"main.sol\":6144:6155  decodeBytes */\n      tag_141\n        /* \"main.sol\":6144:6190  decodeBytes(encodedKey, _parameters.signature) */\n      jump\t// in\n    tag_138:\n        /* \"main.sol\":4720:6202  OpenSeaInterface.BasicOrderParameters({\r... */\n      dup2\n      mstore\n      pop\n        /* \"main.sol\":4655:6202  OpenSeaInterface.BasicOrderParameters memory decodedParameters = OpenSeaInterface.BasicOrderParameters({\r... */\n      swap1\n      pop\n        /* \"main.sol\":6223:6247  uint256 transactionValue */\n      0x00\n        /* \"main.sol\":6250:6267  decodedParameters */\n      dup2\n        /* \"main.sol\":6250:6287  decodedParameters.considerationAmount */\n      0x40\n      add\n      mload\n        /* \"main.sol\":6223:6287  uint256 transactionValue = decodedParameters.considerationAmount */\n      swap1\n      pop\n        /* \"main.sol\":6305:6311  uint i */\n      0x00\n        /* \"main.sol\":6300:6478  for (uint i = 0; i != decodedParameters.additionalRecipients.length; i++)\r... */\n    tag_142:\n        /* \"main.sol\":6322:6339  decodedParameters */\n      dup3\n        /* \"main.sol\":6322:6360  decodedParameters.additionalRecipients */\n      0x0200\n      add\n      mload\n        /* \"main.sol\":6322:6367  decodedParameters.additionalRecipients.length */\n      mload\n        /* \"main.sol\":6317:6318  i */\n      dup2\n        /* \"main.sol\":6317:6367  i != decodedParameters.additionalRecipients.length */\n      eq\n        /* \"main.sol\":6300:6478  for (uint i = 0; i != decodedParameters.additionalRecipients.length; i++)\r... */\n      tag_143\n      jumpi\n        /* \"main.sol\":6418:6435  decodedParameters */\n      dup3\n        /* \"main.sol\":6418:6456  decodedParameters.additionalRecipients */\n      0x0200\n      add\n      mload\n        /* \"main.sol\":6457:6458  i */\n      dup2\n        /* \"main.sol\":6418:6459  decodedParameters.additionalRecipients[i] */\n      dup2\n      mload\n      dup2\n      lt\n      tag_145\n      jumpi\n      tag_146\n      tag_90\n      jump\t// in\n    tag_146:\n    tag_145:\n      0x20\n      mul\n      0x20\n      add\n      add\n      mload\n        /* \"main.sol\":6418:6466  decodedParameters.additionalRecipients[i].amount */\n      0x00\n      add\n      mload\n        /* \"main.sol\":6398:6466  transactionValue += decodedParameters.additionalRecipients[i].amount */\n      dup3\n      tag_147\n      swap2\n      swap1\n      tag_148\n      jump\t// in\n    tag_147:\n      swap2\n      pop\n        /* \"main.sol\":6369:6372  i++ */\n      dup1\n      dup1\n      tag_149\n      swap1\n      tag_102\n      jump\t// in\n    tag_149:\n      swap2\n      pop\n      pop\n        /* \"main.sol\":6300:6478  for (uint i = 0; i != decodedParameters.additionalRecipients.length; i++)\r... */\n      jump(tag_142)\n    tag_143:\n      pop\n        /* \"main.sol\":6521:6530  msg.value */\n      callvalue\n        /* \"main.sol\":6502:6518  transactionValue */\n      dup2\n        /* \"main.sol\":6502:6530  transactionValue > msg.value */\n      gt\n        /* \"main.sol\":6498:6596  if (transactionValue > msg.value)\r... */\n      iszero\n      tag_150\n      jumpi\n        /* \"main.sol\":6556:6584  revert(\"Insufficient funds\") */\n      mload(0x40)\n      0x08c379a000000000000000000000000000000000000000000000000000000000\n      dup2\n      mstore\n      0x04\n      add\n      tag_151\n      swap1\n      tag_152\n      jump\t// in\n    tag_151:\n      mload(0x40)\n      dup1\n      swap2\n      sub\n      swap1\n      revert\n        /* \"main.sol\":6498:6596  if (transactionValue > msg.value)\r... */\n    tag_150:\n        /* \"main.sol\":6616:6628  bool success */\n      0x00\n        /* \"main.sol\":6648:6690  0x00000000006c3852cbEf3e08E8dF289169EdE581 */\n      0x6c3852cbef3e08e8df289169ede581\n        /* \"main.sol\":6631:6709  OpenSeaInterface(0x00000000006c3852cbEf3e08E8dF289169EdE581).fulfillBasicOrder */\n      0xffffffffffffffffffffffffffffffffffffffff\n      and\n      0xfb0f3ee1\n        /* \"main.sol\":6716:6732  transactionValue */\n      dup4\n        /* \"main.sol\":6734:6751  decodedParameters */\n      dup6\n        /* \"main.sol\":6631:6752  OpenSeaInterface(0x00000000006c3852cbEf3e08E8dF289169EdE581).fulfillBasicOrder{value:transactionValue}(decodedParameters) */\n      mload(0x40)\n      dup4\n      0xffffffff\n      and\n      0xe0\n      shl\n      dup2\n      mstore\n      0x04\n      add\n      tag_153\n      swap2\n      swap1\n      tag_154\n      jump\t// in\n    tag_153:\n      0x20\n      mload(0x40)\n      dup1\n      dup4\n      sub\n      dup2\n      dup6\n      dup9\n      dup1\n      extcodesize\n      iszero\n      dup1\n      iszero\n      tag_155\n      jumpi\n      0x00\n      dup1\n      revert\n    tag_155:\n      pop\n      gas\n      call\n      iszero\n      dup1\n      iszero\n      tag_157\n      jumpi\n      returndatasize\n      0x00\n      dup1\n      returndatacopy\n      revert(0x00, returndatasize)\n    tag_157:\n      pop\n      pop\n      pop\n      pop\n      pop\n      mload(0x40)\n      returndatasize\n      not(0x1f)\n      0x1f\n      dup3\n      add\n      and\n      dup3\n      add\n      dup1\n      0x40\n      mstore\n      pop\n      dup2\n      add\n      swap1\n      tag_158\n      swap2\n      swap1\n      tag_159\n      jump\t// in\n    tag_158:\n        /* \"main.sol\":6616:6752  bool success = OpenSeaInterface(0x00000000006c3852cbEf3e08E8dF289169EdE581).fulfillBasicOrder{value:transactionValue}(decodedParameters) */\n      swap1\n      pop\n        /* \"main.sol\":6769:6776  success */\n      dup1\n        /* \"main.sol\":6765:6939  if (success)\r... */\n      iszero\n      tag_160\n      jumpi\n        /* \"main.sol\":6820:6837  decodedParameters */\n      dup3\n        /* \"main.sol\":6820:6848  decodedParameters.offerToken */\n      0xa0\n      add\n      mload\n        /* \"main.sol\":6802:6866  ContractInterface(decodedParameters.offerToken).safeTransferFrom */\n      0xffffffffffffffffffffffffffffffffffffffff\n      and\n      0x42842e0e\n        /* \"main.sol\":6875:6879  this */\n      address\n        /* \"main.sol\":6882:6891  recipient */\n      0x01\n      0x00\n      swap1\n      sload\n      swap1\n      0x0100\n      exp\n      swap1\n      div\n      0xffffffffffffffffffffffffffffffffffffffff\n      and\n        /* \"main.sol\":6893:6910  decodedParameters */\n      dup7\n        /* \"main.sol\":6893:6926  decodedParameters.offerIdentifier */\n      0xc0\n      add\n      mload\n        /* \"main.sol\":6802:6927  ContractInterface(decodedParameters.offerToken).safeTransferFrom(address(this), recipient, decodedParameters.offerIdentifier) */\n      mload(0x40)\n      dup5\n      0xffffffff\n      and\n      0xe0\n      shl\n      dup2\n      mstore\n      0x04\n      add\n      tag_161\n      swap4\n      swap3\n      swap2\n      swap1\n      tag_162\n      jump\t// in\n    tag_161:\n      0x00\n      mload(0x40)\n      dup1\n      dup4\n      sub\n      dup2\n      0x00\n      dup8\n      dup1\n      extcodesize\n      iszero\n      dup1\n      iszero\n      tag_163\n      jumpi\n      0x00\n      dup1\n      revert\n    tag_163:\n      pop\n      gas\n      call\n      iszero\n      dup1\n      iszero\n      tag_165\n      jumpi\n      returndatasize\n      0x00\n      dup1\n      returndatacopy\n      revert(0x00, returndatasize)\n    tag_165:\n      pop\n      pop\n      pop\n      pop\n        /* \"main.sol\":6765:6939  if (success)\r... */\n    tag_160:\n        /* \"main.sol\":3922:6956  {\r... */\n      pop\n      pop\n      pop\n      pop\n      pop\n      pop\n        /* \"main.sol\":3818:6956  function submitOpenSea(bytes32 _key, EncodedParametersOpenSea calldata _parameters) public payable\r... */\n      pop\n      pop\n      jump\t// out\n        /* \"main.sol\":3633:3806  function generateNewKey() public\r... */\n    tag_43:\n        /* \"main.sol\":3704:3709  owner */\n      0x00\n      dup1\n      sload\n      swap1\n      0x0100\n      exp\n      swap1\n      div\n      0xffffffffffffffffffffffffffffffffffffffff\n      and\n        /* \"main.sol\":3690:3709  msg.sender == owner */\n      0xffffffffffffffffffffffffffffffffffffffff\n      and\n        /* \"main.sol\":3690:3700  msg.sender */\n      caller\n        /* \"main.sol\":3690:3709  msg.sender == owner */\n      0xffffffffffffffffffffffffffffffffffffffff\n      and\n      eq\n        /* \"main.sol\":3682:3710  require(msg.sender == owner) */\n      tag_167\n      jumpi\n      0x00\n      dup1\n      revert\n    tag_167:\n        /* \"main.sol\":3762:3777  block.timestamp */\n      timestamp\n        /* \"main.sol\":3779:3795  block.difficulty */\n      difficulty\n        /* \"main.sol\":3745:3796  abi.encodePacked(block.timestamp, block.difficulty) */\n      add(0x20, mload(0x40))\n      tag_168\n      swap3\n      swap2\n      swap1\n      tag_169\n      jump\t// in\n    tag_168:\n      mload(0x40)\n      0x20\n      dup2\n      dup4\n      sub\n      sub\n      dup2\n      mstore\n      swap1\n      0x40\n      mstore\n        /* \"main.sol\":3735:3797  keccak256(abi.encodePacked(block.timestamp, block.difficulty)) */\n      dup1\n      mload\n      swap1\n      0x20\n      add\n      keccak256\n        /* \"main.sol\":3721:3724  key */\n      0x02\n        /* \"main.sol\":3721:3798  key = bytes32(keccak256(abi.encodePacked(block.timestamp, block.difficulty))) */\n      dup2\n      swap1\n      sstore\n      pop\n        /* \"main.sol\":3633:3806  function generateNewKey() public\r... */\n      jump\t// out\n        /* \"main.sol\":3269:3390  function getKey() public view returns (bytes32)\r... */\n    tag_46:\n        /* \"main.sol\":3308:3315  bytes32 */\n      0x00\n        /* \"main.sol\":3355:3360  owner */\n      dup1\n      0x00\n      swap1\n      sload\n      swap1\n      0x0100\n      exp\n      swap1\n      div\n      0xffffffffffffffffffffffffffffffffffffffff\n      and\n        /* \"main.sol\":3341:3360  msg.sender == owner */\n      0xffffffffffffffffffffffffffffffffffffffff\n      and\n        /* \"main.sol\":3341:3351  msg.sender */\n      caller\n        /* \"main.sol\":3341:3360  msg.sender == owner */\n      0xffffffffffffffffffffffffffffffffffffffff\n      and\n      eq\n        /* \"main.sol\":3333:3361  require(msg.sender == owner) */\n      tag_171\n      jumpi\n      0x00\n      dup1\n      revert\n    tag_171:\n        /* \"main.sol\":3379:3382  key */\n      sload(0x02)\n        /* \"main.sol\":3372:3382  return key */\n      swap1\n      pop\n        /* \"main.sol\":3269:3390  function getKey() public view returns (bytes32)\r... */\n      swap1\n      jump\t// out\n        /* \"main.sol\":3400:3486  function getOwner() public view returns (address)\r... */\n    tag_51:\n        /* \"main.sol\":3441:3448  address */\n      0x00\n        /* \"main.sol\":3473:3478  owner */\n      dup1\n      0x00\n      swap1\n      sload\n      swap1\n      0x0100\n      exp\n      swap1\n      div\n      0xffffffffffffffffffffffffffffffffffffffff\n      and\n        /* \"main.sol\":3466:3478  return owner */\n      swap1\n      pop\n        /* \"main.sol\":3400:3486  function getOwner() public view returns (address)\r... */\n      swap1\n      jump\t// out\n        /* \"main.sol\":2910:3120  function transferToken(address payable _to, address _token, uint256 _id) public\r... */\n    tag_57:\n        /* \"main.sol\":3028:3033  owner */\n      0x00\n      dup1\n      sload\n      swap1\n      0x0100\n      exp\n      swap1\n      div\n      0xffffffffffffffffffffffffffffffffffffffff\n      and\n        /* \"main.sol\":3014:3033  msg.sender == owner */\n      0xffffffffffffffffffffffffffffffffffffffff\n      and\n        /* \"main.sol\":3014:3024  msg.sender */\n      caller\n        /* \"main.sol\":3014:3033  msg.sender == owner */\n      0xffffffffffffffffffffffffffffffffffffffff\n      and\n      eq\n        /* \"main.sol\":3006:3034  require(msg.sender == owner) */\n      tag_174\n      jumpi\n      0x00\n      dup1\n      revert\n    tag_174:\n        /* \"main.sol\":3063:3069  _token */\n      dup2\n        /* \"main.sol\":3045:3087  ContractInterface(_token).safeTransferFrom */\n      0xffffffffffffffffffffffffffffffffffffffff\n      and\n      0x42842e0e\n        /* \"main.sol\":3096:3100  this */\n      address\n        /* \"main.sol\":3103:3106  _to */\n      dup6\n        /* \"main.sol\":3108:3111  _id */\n      dup5\n        /* \"main.sol\":3045:3112  ContractInterface(_token).safeTransferFrom(address(this), _to, _id) */\n      mload(0x40)\n      dup5\n      0xffffffff\n      and\n      0xe0\n      shl\n      dup2\n      mstore\n      0x04\n      add\n      tag_175\n      swap4\n      swap3\n      swap2\n      swap1\n      tag_176\n      jump\t// in\n    tag_175:\n      0x00\n      mload(0x40)\n      dup1\n      dup4\n      sub\n      dup2\n      0x00\n      dup8\n      dup1\n      extcodesize\n      iszero\n      dup1\n      iszero\n      tag_177\n      jumpi\n      0x00\n      dup1\n      revert\n    tag_177:\n      pop\n      gas\n      call\n      iszero\n      dup1\n      iszero\n      tag_179\n      jumpi\n      returndatasize\n      0x00\n      dup1\n      returndatacopy\n      revert(0x00, returndatasize)\n    tag_179:\n      pop\n      pop\n      pop\n      pop\n        /* \"main.sol\":2910:3120  function transferToken(address payable _to, address _token, uint256 _id) public\r... */\n      pop\n      pop\n      pop\n      jump\t// out\n        /* \"main.sol\":2755:2902  function withdrawAll(address payable _to) public\r... */\n    tag_62:\n        /* \"main.sol\":2842:2847  owner */\n      0x00\n      dup1\n      sload\n      swap1\n      0x0100\n      exp\n      swap1\n      div\n      0xffffffffffffffffffffffffffffffffffffffff\n      and\n        /* \"main.sol\":2828:2847  msg.sender == owner */\n      0xffffffffffffffffffffffffffffffffffffffff\n      and\n        /* \"main.sol\":2828:2838  msg.sender */\n      caller\n        /* \"main.sol\":2828:2847  msg.sender == owner */\n      0xffffffffffffffffffffffffffffffffffffffff\n      and\n      eq\n        /* \"main.sol\":2820:2848  require(msg.sender == owner) */\n      tag_181\n      jumpi\n      0x00\n      dup1\n      revert\n    tag_181:\n        /* \"main.sol\":2859:2862  _to */\n      dup1\n        /* \"main.sol\":2859:2871  _to.transfer */\n      0xffffffffffffffffffffffffffffffffffffffff\n      and\n        /* \"main.sol\":2859:2894  _to.transfer(address(this).balance) */\n      0x08fc\n        /* \"main.sol\":2872:2893  address(this).balance */\n      selfbalance\n        /* \"main.sol\":2859:2894  _to.transfer(address(this).balance) */\n      swap1\n      dup2\n      iszero\n      mul\n      swap1\n      mload(0x40)\n      0x00\n      mload(0x40)\n      dup1\n      dup4\n      sub\n      dup2\n      dup6\n      dup9\n      dup9\n      call\n      swap4\n      pop\n      pop\n      pop\n      pop\n      iszero\n      dup1\n      iszero\n      tag_183\n      jumpi\n      returndatasize\n      0x00\n      dup1\n      returndatacopy\n      revert(0x00, returndatasize)\n    tag_183:\n      pop\n        /* \"main.sol\":2755:2902  function withdrawAll(address payable _to) public\r... */\n      pop\n      jump\t// out\n        /* \"main.sol\":1298:1437  function decodeUint1(bytes32 _key, bytes1 _uint) internal pure returns (uint256)\r... */\n    tag_74:\n        /* \"main.sol\":1370:1377  uint256 */\n      0x00\n        /* \"main.sol\":1423:1427  _key */\n      dup3\n        /* \"main.sol\":1408:1413  _uint */\n      dup3\n        /* \"main.sol\":1408:1428  _uint ^ bytes1(_key) */\n      xor\n        /* \"main.sol\":1402:1429  uint8(_uint ^ bytes1(_key)) */\n      0xf8\n      shr\n        /* \"main.sol\":1395:1429  return uint8(_uint ^ bytes1(_key)) */\n      0xff\n      and\n      swap1\n      pop\n        /* \"main.sol\":1298:1437  function decodeUint1(bytes32 _key, bytes1 _uint) internal pure returns (uint256)\r... */\n      swap3\n      swap2\n      pop\n      pop\n      jump\t// out\n        /* \"main.sol\":1741:1874  function decodeUint(bytes32 _key, bytes32 _uint) internal pure returns (uint256)\r... */\n    tag_91:\n        /* \"main.sol\":1813:1820  uint256 */\n      0x00\n        /* \"main.sol\":1861:1865  _key */\n      dup3\n        /* \"main.sol\":1853:1858  _uint */\n      dup3\n        /* \"main.sol\":1853:1865  _uint ^ _key */\n      xor\n        /* \"main.sol\":1845:1866  uint256(_uint ^ _key) */\n      0x00\n      shr\n        /* \"main.sol\":1838:1866  return uint256(_uint ^ _key) */\n      swap1\n      pop\n        /* \"main.sol\":1741:1874  function decodeUint(bytes32 _key, bytes32 _uint) internal pure returns (uint256)\r... */\n      swap3\n      swap2\n      pop\n      pop\n      jump\t// out\n        /* \"main.sol\":1882:2033  function decodeAddress(bytes32 _key, bytes20 _address) internal pure returns (address)\r... */\n    tag_98:\n        /* \"main.sol\":1960:1967  address */\n      0x00\n        /* \"main.sol\":2019:2023  _key */\n      dup3\n        /* \"main.sol\":2000:2008  _address */\n      dup3\n        /* \"main.sol\":2000:2024  _address ^ bytes20(_key) */\n      xor\n        /* \"main.sol\":1992:2025  address(_address ^ bytes20(_key)) */\n      0x60\n      shr\n        /* \"main.sol\":1985:2025  return address(_address ^ bytes20(_key)) */\n      swap1\n      pop\n        /* \"main.sol\":1882:2033  function decodeAddress(bytes32 _key, bytes20 _address) internal pure returns (address)\r... */\n      swap3\n      swap2\n      pop\n      pop\n      jump\t// out\n        /* \"main.sol\":1445:1585  function decodeUint2(bytes32 _key, bytes2 _uint) internal pure returns (uint256)\r... */\n    tag_117:\n        /* \"main.sol\":1517:1524  uint256 */\n      0x00\n        /* \"main.sol\":1571:1575  _key */\n      dup3\n        /* \"main.sol\":1556:1561  _uint */\n      dup3\n        /* \"main.sol\":1556:1576  _uint ^ bytes2(_key) */\n      xor\n        /* \"main.sol\":1549:1577  uint16(_uint ^ bytes2(_key)) */\n      0xf0\n      shr\n        /* \"main.sol\":1542:1577  return uint16(_uint ^ bytes2(_key)) */\n      0xffff\n      and\n      swap1\n      pop\n        /* \"main.sol\":1445:1585  function decodeUint2(bytes32 _key, bytes2 _uint) internal pure returns (uint256)\r... */\n      swap3\n      swap2\n      pop\n      pop\n      jump\t// out\n        /* \"main.sol\":1593:1733  function decodeUint4(bytes32 _key, bytes4 _uint) internal pure returns (uint256)\r... */\n    tag_130:\n        /* \"main.sol\":1665:1672  uint256 */\n      0x00\n        /* \"main.sol\":1719:1723  _key */\n      dup3\n        /* \"main.sol\":1704:1709  _uint */\n      dup3\n        /* \"main.sol\":1704:1724  _uint ^ bytes4(_key) */\n      xor\n        /* \"main.sol\":1697:1725  uint32(_uint ^ bytes4(_key)) */\n      0xe0\n      shr\n        /* \"main.sol\":1690:1725  return uint32(_uint ^ bytes4(_key)) */\n      0xffffffff\n      and\n      swap1\n      pop\n        /* \"main.sol\":1593:1733  function decodeUint4(bytes32 _key, bytes4 _uint) internal pure returns (uint256)\r... */\n      swap3\n      swap2\n      pop\n      pop\n      jump\t// out\n        /* \"main.sol\":2620:2747  function decodeBytes(bytes32 _key, bytes32 _bytes) internal pure returns (bytes32)\r... */\n    tag_134:\n        /* \"main.sol\":2694:2701  bytes32 */\n      0x00\n        /* \"main.sol\":2735:2739  _key */\n      dup3\n        /* \"main.sol\":2726:2732  _bytes */\n      dup3\n        /* \"main.sol\":2726:2739  _bytes ^ _key */\n      xor\n        /* \"main.sol\":2719:2739  return _bytes ^ _key */\n      swap1\n      pop\n        /* \"main.sol\":2620:2747  function decodeBytes(bytes32 _key, bytes32 _bytes) internal pure returns (bytes32)\r... */\n      swap3\n      swap2\n      pop\n      pop\n      jump\t// out\n        /* \"main.sol\":2041:2612  function decodeBytes(bytes32 _key, bytes calldata _bytes) internal pure returns (bytes memory)\r... */\n    tag_141:\n        /* \"main.sol\":2122:2134  bytes memory */\n      0x60\n        /* \"main.sol\":2152:2162  uint iters */\n      0x00\n        /* \"main.sol\":2188:2190  32 */\n      0x20\n        /* \"main.sol\":2182:2184  31 */\n      0x1f\n        /* \"main.sol\":2166:2172  _bytes */\n      dup6\n      dup6\n        /* \"main.sol\":2166:2179  _bytes.length */\n      swap1\n      pop\n        /* \"main.sol\":2166:2184  _bytes.length + 31 */\n      tag_191\n      swap2\n      swap1\n      tag_148\n      jump\t// in\n    tag_191:\n        /* \"main.sol\":2165:2190  (_bytes.length + 31) / 32 */\n      tag_192\n      swap2\n      swap1\n      tag_193\n      jump\t// in\n    tag_192:\n        /* \"main.sol\":2152:2190  uint iters = (_bytes.length + 31) / 32 */\n      swap1\n      pop\n        /* \"main.sol\":2201:2226  bytes memory encodedBytes */\n      0x60\n        /* \"main.sol\":2242:2248  uint i */\n      0x00\n        /* \"main.sol\":2237:2384  for (uint i = 0; i != iters; i++)\r... */\n    tag_194:\n        /* \"main.sol\":2259:2264  iters */\n      dup3\n        /* \"main.sol\":2254:2255  i */\n      dup2\n        /* \"main.sol\":2254:2264  i != iters */\n      eq\n        /* \"main.sol\":2237:2384  for (uint i = 0; i != iters; i++)\r... */\n      tag_195\n      jumpi\n        /* \"main.sol\":2323:2335  encodedBytes */\n      dup2\n        /* \"main.sol\":2366:2370  _key */\n      dup8\n        /* \"main.sol\":2346:2352  _bytes */\n      dup8\n      dup8\n        /* \"main.sol\":2357:2359  32 */\n      0x20\n        /* \"main.sol\":2353:2354  i */\n      dup6\n        /* \"main.sol\":2353:2359  i * 32 */\n      tag_197\n      swap2\n      swap1\n      tag_198\n      jump\t// in\n    tag_197:\n        /* \"main.sol\":2346:2362  _bytes[i * 32 :] */\n      swap1\n      dup1\n      swap3\n      tag_199\n      swap4\n      swap3\n      swap2\n      swap1\n      tag_200\n      jump\t// in\n    tag_199:\n        /* \"main.sol\":2338:2363  bytes32(_bytes[i * 32 :]) */\n      swap1\n      tag_201\n      swap2\n      swap1\n      tag_202\n      jump\t// in\n    tag_201:\n        /* \"main.sol\":2338:2370  bytes32(_bytes[i * 32 :]) ^ _key */\n      xor\n        /* \"main.sol\":2310:2372  bytes.concat(encodedBytes, (bytes32(_bytes[i * 32 :]) ^ _key)) */\n      add(0x20, mload(0x40))\n      tag_203\n      swap3\n      swap2\n      swap1\n      tag_204\n      jump\t// in\n    tag_203:\n      mload(0x40)\n      0x20\n      dup2\n      dup4\n      sub\n      sub\n      dup2\n      mstore\n      swap1\n      0x40\n      mstore\n        /* \"main.sol\":2295:2372  encodedBytes = bytes.concat(encodedBytes, (bytes32(_bytes[i * 32 :]) ^ _key)) */\n      swap2\n      pop\n        /* \"main.sol\":2266:2269  i++ */\n      dup1\n      dup1\n      tag_205\n      swap1\n      tag_102\n      jump\t// in\n    tag_205:\n      swap2\n      pop\n      pop\n        /* \"main.sol\":2237:2384  for (uint i = 0; i != iters; i++)\r... */\n      jump(tag_194)\n    tag_195:\n      pop\n        /* \"main.sol\":2394:2409  uint itemsToPop */\n      0x00\n        /* \"main.sol\":2425:2431  _bytes */\n      dup6\n      dup6\n        /* \"main.sol\":2425:2438  _bytes.length */\n      swap1\n      pop\n        /* \"main.sol\":2420:2422  32 */\n      0x20\n        /* \"main.sol\":2412:2417  iters */\n      dup5\n        /* \"main.sol\":2412:2422  iters * 32 */\n      tag_206\n      swap2\n      swap1\n      tag_198\n      jump\t// in\n    tag_206:\n        /* \"main.sol\":2412:2438  iters * 32 - _bytes.length */\n      tag_207\n      swap2\n      swap1\n      tag_208\n      jump\t// in\n    tag_207:\n        /* \"main.sol\":2394:2438  uint itemsToPop = iters * 32 - _bytes.length */\n      swap1\n      pop\n        /* \"main.sol\":2466:2467  0 */\n      0x00\n        /* \"main.sol\":2453:2463  itemsToPop */\n      dup2\n        /* \"main.sol\":2453:2467  itemsToPop > 0 */\n      gt\n        /* \"main.sol\":2449:2575  if (itemsToPop > 0)\r... */\n      iszero\n      tag_209\n      jumpi\n        /* \"main.sol\":2550:2560  itemsToPop */\n      dup1\n        /* \"main.sol\":2535:2547  encodedBytes */\n      dup3\n        /* \"main.sol\":2529:2548  mload(encodedBytes) */\n      mload\n        /* \"main.sol\":2525:2561  sub(mload(encodedBytes), itemsToPop) */\n      sub\n        /* \"main.sol\":2511:2523  encodedBytes */\n      dup3\n        /* \"main.sol\":2504:2562  mstore(encodedBytes, sub(mload(encodedBytes), itemsToPop)) */\n      mstore\n        /* \"main.sol\":2449:2575  if (itemsToPop > 0)\r... */\n    tag_209:\n        /* \"main.sol\":2592:2604  encodedBytes */\n      dup2\n        /* \"main.sol\":2585:2604  return encodedBytes */\n      swap4\n      pop\n      pop\n      pop\n      pop\n        /* \"main.sol\":2041:2612  function decodeBytes(bytes32 _key, bytes calldata _bytes) internal pure returns (bytes memory)\r... */\n      swap4\n      swap3\n      pop\n      pop\n      pop\n      jump\t// out\n    tag_81:\n      mload(0x40)\n      dup1\n      0x40\n      add\n      0x40\n      mstore\n      dup1\n      0x00\n      dup2\n      mstore\n      0x20\n      add\n      and(0xffffffffffffffffffffffffffffffffffffffff, 0x00)\n      dup2\n      mstore\n      pop\n      swap1\n      jump\t// out\n        /* \"#utility.yul\":7:146   */\n    tag_211:\n        /* \"#utility.yul\":53:58   */\n      0x00\n        /* \"#utility.yul\":91:97   */\n      dup2\n        /* \"#utility.yul\":78:98   */\n      calldataload\n        /* \"#utility.yul\":69:98   */\n      swap1\n      pop\n        /* \"#utility.yul\":107:140   */\n      tag_213\n        /* \"#utility.yul\":134:139   */\n      dup2\n        /* \"#utility.yul\":107:140   */\n      tag_214\n      jump\t// in\n    tag_213:\n        /* \"#utility.yul\":7:146   */\n      swap3\n      swap2\n      pop\n      pop\n      jump\t// out\n        /* \"#utility.yul\":152:307   */\n    tag_215:\n        /* \"#utility.yul\":206:211   */\n      0x00\n        /* \"#utility.yul\":244:250   */\n      dup2\n        /* \"#utility.yul\":231:251   */\n      calldataload\n        /* \"#utility.yul\":222:251   */\n      swap1\n      pop\n        /* \"#utility.yul\":260:301   */\n      tag_217\n        /* \"#utility.yul\":295:300   */\n      dup2\n        /* \"#utility.yul\":260:301   */\n      tag_218\n      jump\t// in\n    tag_217:\n        /* \"#utility.yul\":152:307   */\n      swap3\n      swap2\n      pop\n      pop\n      jump\t// out\n        /* \"#utility.yul\":313:450   */\n    tag_219:\n        /* \"#utility.yul\":367:372   */\n      0x00\n        /* \"#utility.yul\":398:404   */\n      dup2\n        /* \"#utility.yul\":392:405   */\n      mload\n        /* \"#utility.yul\":383:405   */\n      swap1\n      pop\n        /* \"#utility.yul\":414:444   */\n      tag_221\n        /* \"#utility.yul\":438:443   */\n      dup2\n        /* \"#utility.yul\":414:444   */\n      tag_222\n      jump\t// in\n    tag_221:\n        /* \"#utility.yul\":313:450   */\n      swap3\n      swap2\n      pop\n      pop\n      jump\t// out\n        /* \"#utility.yul\":456:593   */\n    tag_223:\n        /* \"#utility.yul\":501:506   */\n      0x00\n        /* \"#utility.yul\":539:545   */\n      dup2\n        /* \"#utility.yul\":526:546   */\n      calldataload\n        /* \"#utility.yul\":517:546   */\n      swap1\n      pop\n        /* \"#utility.yul\":555:587   */\n      tag_225\n        /* \"#utility.yul\":581:586   */\n      dup2\n        /* \"#utility.yul\":555:587   */\n      tag_226\n      jump\t// in\n    tag_225:\n        /* \"#utility.yul\":456:593   */\n      swap3\n      swap2\n      pop\n      pop\n      jump\t// out\n        /* \"#utility.yul\":599:736   */\n    tag_227:\n        /* \"#utility.yul\":644:649   */\n      0x00\n        /* \"#utility.yul\":682:688   */\n      dup2\n        /* \"#utility.yul\":669:689   */\n      calldataload\n        /* \"#utility.yul\":660:689   */\n      swap1\n      pop\n        /* \"#utility.yul\":698:730   */\n      tag_229\n        /* \"#utility.yul\":724:729   */\n      dup2\n        /* \"#utility.yul\":698:730   */\n      tag_230\n      jump\t// in\n    tag_229:\n        /* \"#utility.yul\":599:736   */\n      swap3\n      swap2\n      pop\n      pop\n      jump\t// out\n        /* \"#utility.yul\":742:881   */\n    tag_231:\n        /* \"#utility.yul\":788:793   */\n      0x00\n        /* \"#utility.yul\":826:832   */\n      dup2\n        /* \"#utility.yul\":813:833   */\n      calldataload\n        /* \"#utility.yul\":804:833   */\n      swap1\n      pop\n        /* \"#utility.yul\":842:875   */\n      tag_233\n        /* \"#utility.yul\":869:874   */\n      dup2\n        /* \"#utility.yul\":842:875   */\n      tag_234\n      jump\t// in\n    tag_233:\n        /* \"#utility.yul\":742:881   */\n      swap3\n      swap2\n      pop\n      pop\n      jump\t// out\n        /* \"#utility.yul\":887:1026   */\n    tag_235:\n        /* \"#utility.yul\":933:938   */\n      0x00\n        /* \"#utility.yul\":971:977   */\n      dup2\n        /* \"#utility.yul\":958:978   */\n      calldataload\n        /* \"#utility.yul\":949:978   */\n      swap1\n      pop\n        /* \"#utility.yul\":987:1020   */\n      tag_237\n        /* \"#utility.yul\":1014:1019   */\n      dup2\n        /* \"#utility.yul\":987:1020   */\n      tag_238\n      jump\t// in\n    tag_237:\n        /* \"#utility.yul\":887:1026   */\n      swap3\n      swap2\n      pop\n      pop\n      jump\t// out\n        /* \"#utility.yul\":1032:1169   */\n    tag_239:\n        /* \"#utility.yul\":1077:1082   */\n      0x00\n        /* \"#utility.yul\":1115:1121   */\n      dup2\n        /* \"#utility.yul\":1102:1122   */\n      calldataload\n        /* \"#utility.yul\":1093:1122   */\n      swap1\n      pop\n        /* \"#utility.yul\":1131:1163   */\n      tag_241\n        /* \"#utility.yul\":1157:1162   */\n      dup2\n        /* \"#utility.yul\":1131:1163   */\n      tag_242\n      jump\t// in\n    tag_241:\n        /* \"#utility.yul\":1032:1169   */\n      swap3\n      swap2\n      pop\n      pop\n      jump\t// out\n        /* \"#utility.yul\":1188:1740   */\n    tag_243:\n        /* \"#utility.yul\":1245:1253   */\n      0x00\n        /* \"#utility.yul\":1255:1261   */\n      dup1\n        /* \"#utility.yul\":1305:1308   */\n      dup4\n        /* \"#utility.yul\":1298:1302   */\n      0x1f\n        /* \"#utility.yul\":1290:1296   */\n      dup5\n        /* \"#utility.yul\":1286:1303   */\n      add\n        /* \"#utility.yul\":1282:1309   */\n      slt\n        /* \"#utility.yul\":1272:1394   */\n      tag_245\n      jumpi\n        /* \"#utility.yul\":1313:1392   */\n      tag_246\n      tag_247\n      jump\t// in\n    tag_246:\n        /* \"#utility.yul\":1272:1394   */\n    tag_245:\n        /* \"#utility.yul\":1426:1432   */\n      dup3\n        /* \"#utility.yul\":1413:1433   */\n      calldataload\n        /* \"#utility.yul\":1403:1433   */\n      swap1\n      pop\n        /* \"#utility.yul\":1456:1474   */\n      0xffffffffffffffff\n        /* \"#utility.yul\":1448:1454   */\n      dup2\n        /* \"#utility.yul\":1445:1475   */\n      gt\n        /* \"#utility.yul\":1442:1559   */\n      iszero\n      tag_248\n      jumpi\n        /* \"#utility.yul\":1478:1557   */\n      tag_249\n      tag_250\n      jump\t// in\n    tag_249:\n        /* \"#utility.yul\":1442:1559   */\n    tag_248:\n        /* \"#utility.yul\":1592:1596   */\n      0x20\n        /* \"#utility.yul\":1584:1590   */\n      dup4\n        /* \"#utility.yul\":1580:1597   */\n      add\n        /* \"#utility.yul\":1568:1597   */\n      swap2\n      pop\n        /* \"#utility.yul\":1646:1649   */\n      dup4\n        /* \"#utility.yul\":1638:1642   */\n      0x01\n        /* \"#utility.yul\":1630:1636   */\n      dup3\n        /* \"#utility.yul\":1626:1643   */\n      mul\n        /* \"#utility.yul\":1616:1624   */\n      dup4\n        /* \"#utility.yul\":1612:1644   */\n      add\n        /* \"#utility.yul\":1609:1650   */\n      gt\n        /* \"#utility.yul\":1606:1734   */\n      iszero\n      tag_251\n      jumpi\n        /* \"#utility.yul\":1653:1732   */\n      tag_252\n      tag_253\n      jump\t// in\n    tag_252:\n        /* \"#utility.yul\":1606:1734   */\n    tag_251:\n        /* \"#utility.yul\":1188:1740   */\n      swap3\n      pop\n      swap3\n      swap1\n      pop\n      jump\t// out\n        /* \"#utility.yul\":1814:2062   */\n    tag_254:\n        /* \"#utility.yul\":1903:1908   */\n      0x00\n        /* \"#utility.yul\":1944:1947   */\n      0x0240\n        /* \"#utility.yul\":1935:1941   */\n      dup3\n        /* \"#utility.yul\":1930:1933   */\n      dup5\n        /* \"#utility.yul\":1926:1942   */\n      sub\n        /* \"#utility.yul\":1922:1948   */\n      slt\n        /* \"#utility.yul\":1919:2032   */\n      iszero\n      tag_256\n      jumpi\n        /* \"#utility.yul\":1951:2030   */\n      tag_257\n      tag_258\n      jump\t// in\n    tag_257:\n        /* \"#utility.yul\":1919:2032   */\n    tag_256:\n        /* \"#utility.yul\":2050:2056   */\n      dup2\n        /* \"#utility.yul\":2041:2056   */\n      swap1\n      pop\n        /* \"#utility.yul\":1814:2062   */\n      swap3\n      swap2\n      pop\n      pop\n      jump\t// out\n        /* \"#utility.yul\":2068:2207   */\n    tag_259:\n        /* \"#utility.yul\":2114:2119   */\n      0x00\n        /* \"#utility.yul\":2152:2158   */\n      dup2\n        /* \"#utility.yul\":2139:2159   */\n      calldataload\n        /* \"#utility.yul\":2130:2159   */\n      swap1\n      pop\n        /* \"#utility.yul\":2168:2201   */\n      tag_261\n        /* \"#utility.yul\":2195:2200   */\n      dup2\n        /* \"#utility.yul\":2168:2201   */\n      tag_262\n      jump\t// in\n    tag_261:\n        /* \"#utility.yul\":2068:2207   */\n      swap3\n      swap2\n      pop\n      pop\n      jump\t// out\n        /* \"#utility.yul\":2213:2542   */\n    tag_19:\n        /* \"#utility.yul\":2272:2278   */\n      0x00\n        /* \"#utility.yul\":2321:2323   */\n      0x20\n        /* \"#utility.yul\":2309:2318   */\n      dup3\n        /* \"#utility.yul\":2300:2307   */\n      dup5\n        /* \"#utility.yul\":2296:2319   */\n      sub\n        /* \"#utility.yul\":2292:2324   */\n      slt\n        /* \"#utility.yul\":2289:2408   */\n      iszero\n      tag_264\n      jumpi\n        /* \"#utility.yul\":2327:2406   */\n      tag_265\n      tag_266\n      jump\t// in\n    tag_265:\n        /* \"#utility.yul\":2289:2408   */\n    tag_264:\n        /* \"#utility.yul\":2447:2448   */\n      0x00\n        /* \"#utility.yul\":2472:2525   */\n      tag_267\n        /* \"#utility.yul\":2517:2524   */\n      dup5\n        /* \"#utility.yul\":2508:2514   */\n      dup3\n        /* \"#utility.yul\":2497:2506   */\n      dup6\n        /* \"#utility.yul\":2493:2515   */\n      add\n        /* \"#utility.yul\":2472:2525   */\n      tag_211\n      jump\t// in\n    tag_267:\n        /* \"#utility.yul\":2462:2525   */\n      swap2\n      pop\n        /* \"#utility.yul\":2418:2535   */\n      pop\n        /* \"#utility.yul\":2213:2542   */\n      swap3\n      swap2\n      pop\n      pop\n      jump\t// out\n        /* \"#utility.yul\":2548:2893   */\n    tag_61:\n        /* \"#utility.yul\":2615:2621   */\n      0x00\n        /* \"#utility.yul\":2664:2666   */\n      0x20\n        /* \"#utility.yul\":2652:2661   */\n      dup3\n        /* \"#utility.yul\":2643:2650   */\n      dup5\n        /* \"#utility.yul\":2639:2662   */\n      sub\n        /* \"#utility.yul\":2635:2667   */\n      slt\n        /* \"#utility.yul\":2632:2751   */\n      iszero\n      tag_269\n      jumpi\n        /* \"#utility.yul\":2670:2749   */\n      tag_270\n      tag_266\n      jump\t// in\n    tag_270:\n        /* \"#utility.yul\":2632:2751   */\n    tag_269:\n        /* \"#utility.yul\":2790:2791   */\n      0x00\n        /* \"#utility.yul\":2815:2876   */\n      tag_271\n        /* \"#utility.yul\":2868:2875   */\n      dup5\n        /* \"#utility.yul\":2859:2865   */\n      dup3\n        /* \"#utility.yul\":2848:2857   */\n      dup6\n        /* \"#utility.yul\":2844:2866   */\n      add\n        /* \"#utility.yul\":2815:2876   */\n      tag_215\n      jump\t// in\n    tag_271:\n        /* \"#utility.yul\":2805:2876   */\n      swap2\n      pop\n        /* \"#utility.yul\":2761:2886   */\n      pop\n        /* \"#utility.yul\":2548:2893   */\n      swap3\n      swap2\n      pop\n      pop\n      jump\t// out\n        /* \"#utility.yul\":2899:3534   */\n    tag_56:\n        /* \"#utility.yul\":2984:2990   */\n      0x00\n        /* \"#utility.yul\":2992:2998   */\n      dup1\n        /* \"#utility.yul\":3000:3006   */\n      0x00\n        /* \"#utility.yul\":3049:3051   */\n      0x60\n        /* \"#utility.yul\":3037:3046   */\n      dup5\n        /* \"#utility.yul\":3028:3035   */\n      dup7\n        /* \"#utility.yul\":3024:3047   */\n      sub\n        /* \"#utility.yul\":3020:3052   */\n      slt\n        /* \"#utility.yul\":3017:3136   */\n      iszero\n      tag_273\n      jumpi\n        /* \"#utility.yul\":3055:3134   */\n      tag_274\n      tag_266\n      jump\t// in\n    tag_274:\n        /* \"#utility.yul\":3017:3136   */\n    tag_273:\n        /* \"#utility.yul\":3175:3176   */\n      0x00\n        /* \"#utility.yul\":3200:3261   */\n      tag_275\n        /* \"#utility.yul\":3253:3260   */\n      dup7\n        /* \"#utility.yul\":3244:3250   */\n      dup3\n        /* \"#utility.yul\":3233:3242   */\n      dup8\n        /* \"#utility.yul\":3229:3251   */\n      add\n        /* \"#utility.yul\":3200:3261   */\n      tag_215\n      jump\t// in\n    tag_275:\n        /* \"#utility.yul\":3190:3261   */\n      swap4\n      pop\n        /* \"#utility.yul\":3146:3271   */\n      pop\n        /* \"#utility.yul\":3310:3312   */\n      0x20\n        /* \"#utility.yul\":3336:3389   */\n      tag_276\n        /* \"#utility.yul\":3381:3388   */\n      dup7\n        /* \"#utility.yul\":3372:3378   */\n      dup3\n        /* \"#utility.yul\":3361:3370   */\n      dup8\n        /* \"#utility.yul\":3357:3379   */\n      add\n        /* \"#utility.yul\":3336:3389   */\n      tag_211\n      jump\t// in\n    tag_276:\n        /* \"#utility.yul\":3326:3389   */\n      swap3\n      pop\n        /* \"#utility.yul\":3281:3399   */\n      pop\n        /* \"#utility.yul\":3438:3440   */\n      0x40\n        /* \"#utility.yul\":3464:3517   */\n      tag_277\n        /* \"#utility.yul\":3509:3516   */\n      dup7\n        /* \"#utility.yul\":3500:3506   */\n      dup3\n        /* \"#utility.yul\":3489:3498   */\n      dup8\n        /* \"#utility.yul\":3485:3507   */\n      add\n        /* \"#utility.yul\":3464:3517   */\n      tag_259\n      jump\t// in\n    tag_277:\n        /* \"#utility.yul\":3454:3517   */\n      swap2\n      pop\n        /* \"#utility.yul\":3409:3527   */\n      pop\n        /* \"#utility.yul\":2899:3534   */\n      swap3\n      pop\n      swap3\n      pop\n      swap3\n      jump\t// out\n        /* \"#utility.yul\":3540:4503   */\n    tag_24:\n        /* \"#utility.yul\":3637:3643   */\n      0x00\n        /* \"#utility.yul\":3645:3651   */\n      dup1\n        /* \"#utility.yul\":3653:3659   */\n      0x00\n        /* \"#utility.yul\":3661:3667   */\n      dup1\n        /* \"#utility.yul\":3669:3675   */\n      0x00\n        /* \"#utility.yul\":3718:3721   */\n      0x80\n        /* \"#utility.yul\":3706:3715   */\n      dup7\n        /* \"#utility.yul\":3697:3704   */\n      dup9\n        /* \"#utility.yul\":3693:3716   */\n      sub\n        /* \"#utility.yul\":3689:3722   */\n      slt\n        /* \"#utility.yul\":3686:3806   */\n      iszero\n      tag_279\n      jumpi\n        /* \"#utility.yul\":3725:3804   */\n      tag_280\n      tag_266\n      jump\t// in\n    tag_280:\n        /* \"#utility.yul\":3686:3806   */\n    tag_279:\n        /* \"#utility.yul\":3845:3846   */\n      0x00\n        /* \"#utility.yul\":3870:3923   */\n      tag_281\n        /* \"#utility.yul\":3915:3922   */\n      dup9\n        /* \"#utility.yul\":3906:3912   */\n      dup3\n        /* \"#utility.yul\":3895:3904   */\n      dup10\n        /* \"#utility.yul\":3891:3913   */\n      add\n        /* \"#utility.yul\":3870:3923   */\n      tag_211\n      jump\t// in\n    tag_281:\n        /* \"#utility.yul\":3860:3923   */\n      swap6\n      pop\n        /* \"#utility.yul\":3816:3933   */\n      pop\n        /* \"#utility.yul\":3972:3974   */\n      0x20\n        /* \"#utility.yul\":3998:4051   */\n      tag_282\n        /* \"#utility.yul\":4043:4050   */\n      dup9\n        /* \"#utility.yul\":4034:4040   */\n      dup3\n        /* \"#utility.yul\":4023:4032   */\n      dup10\n        /* \"#utility.yul\":4019:4041   */\n      add\n        /* \"#utility.yul\":3998:4051   */\n      tag_211\n      jump\t// in\n    tag_282:\n        /* \"#utility.yul\":3988:4051   */\n      swap5\n      pop\n        /* \"#utility.yul\":3943:4061   */\n      pop\n        /* \"#utility.yul\":4100:4102   */\n      0x40\n        /* \"#utility.yul\":4126:4179   */\n      tag_283\n        /* \"#utility.yul\":4171:4178   */\n      dup9\n        /* \"#utility.yul\":4162:4168   */\n      dup3\n        /* \"#utility.yul\":4151:4160   */\n      dup10\n        /* \"#utility.yul\":4147:4169   */\n      add\n        /* \"#utility.yul\":4126:4179   */\n      tag_259\n      jump\t// in\n    tag_283:\n        /* \"#utility.yul\":4116:4179   */\n      swap4\n      pop\n        /* \"#utility.yul\":4071:4189   */\n      pop\n        /* \"#utility.yul\":4256:4258   */\n      0x60\n        /* \"#utility.yul\":4245:4254   */\n      dup7\n        /* \"#utility.yul\":4241:4259   */\n      add\n        /* \"#utility.yul\":4228:4260   */\n      calldataload\n        /* \"#utility.yul\":4287:4305   */\n      0xffffffffffffffff\n        /* \"#utility.yul\":4279:4285   */\n      dup2\n        /* \"#utility.yul\":4276:4306   */\n      gt\n        /* \"#utility.yul\":4273:4390   */\n      iszero\n      tag_284\n      jumpi\n        /* \"#utility.yul\":4309:4388   */\n      tag_285\n      tag_286\n      jump\t// in\n    tag_285:\n        /* \"#utility.yul\":4273:4390   */\n    tag_284:\n        /* \"#utility.yul\":4422:4486   */\n      tag_287\n        /* \"#utility.yul\":4478:4485   */\n      dup9\n        /* \"#utility.yul\":4469:4475   */\n      dup3\n        /* \"#utility.yul\":4458:4467   */\n      dup10\n        /* \"#utility.yul\":4454:4476   */\n      add\n        /* \"#utility.yul\":4422:4486   */\n      tag_243\n      jump\t// in\n    tag_287:\n        /* \"#utility.yul\":4404:4486   */\n      swap3\n      pop\n      swap3\n      pop\n        /* \"#utility.yul\":4199:4496   */\n      pop\n        /* \"#utility.yul\":3540:4503   */\n      swap3\n      swap6\n      pop\n      swap3\n      swap6\n      swap1\n      swap4\n      pop\n      jump\t// out\n        /* \"#utility.yul\":4509:4854   */\n    tag_159:\n        /* \"#utility.yul\":4576:4582   */\n      0x00\n        /* \"#utility.yul\":4625:4627   */\n      0x20\n        /* \"#utility.yul\":4613:4622   */\n      dup3\n        /* \"#utility.yul\":4604:4611   */\n      dup5\n        /* \"#utility.yul\":4600:4623   */\n      sub\n        /* \"#utility.yul\":4596:4628   */\n      slt\n        /* \"#utility.yul\":4593:4712   */\n      iszero\n      tag_289\n      jumpi\n        /* \"#utility.yul\":4631:4710   */\n      tag_290\n      tag_266\n      jump\t// in\n    tag_290:\n        /* \"#utility.yul\":4593:4712   */\n    tag_289:\n        /* \"#utility.yul\":4751:4752   */\n      0x00\n        /* \"#utility.yul\":4776:4837   */\n      tag_291\n        /* \"#utility.yul\":4829:4836   */\n      dup5\n        /* \"#utility.yul\":4820:4826   */\n      dup3\n        /* \"#utility.yul\":4809:4818   */\n      dup6\n        /* \"#utility.yul\":4805:4827   */\n      add\n        /* \"#utility.yul\":4776:4837   */\n      tag_219\n      jump\t// in\n    tag_291:\n        /* \"#utility.yul\":4766:4837   */\n      swap2\n      pop\n        /* \"#utility.yul\":4722:4847   */\n      pop\n        /* \"#utility.yul\":4509:4854   */\n      swap3\n      swap2\n      pop\n      pop\n      jump\t// out\n        /* \"#utility.yul\":4860:5187   */\n    tag_73:\n        /* \"#utility.yul\":4918:4924   */\n      0x00\n        /* \"#utility.yul\":4967:4969   */\n      0x20\n        /* \"#utility.yul\":4955:4964   */\n      dup3\n        /* \"#utility.yul\":4946:4953   */\n      dup5\n        /* \"#utility.yul\":4942:4965   */\n      sub\n        /* \"#utility.yul\":4938:4970   */\n      slt\n        /* \"#utility.yul\":4935:5054   */\n      iszero\n      tag_293\n      jumpi\n        /* \"#utility.yul\":4973:5052   */\n      tag_294\n      tag_266\n      jump\t// in\n    tag_294:\n        /* \"#utility.yul\":4935:5054   */\n    tag_293:\n        /* \"#utility.yul\":5093:5094   */\n      0x00\n        /* \"#utility.yul\":5118:5170   */\n      tag_295\n        /* \"#utility.yul\":5162:5169   */\n      dup5\n        /* \"#utility.yul\":5153:5159   */\n      dup3\n        /* \"#utility.yul\":5142:5151   */\n      dup6\n        /* \"#utility.yul\":5138:5160   */\n      add\n        /* \"#utility.yul\":5118:5170   */\n      tag_223\n      jump\t// in\n    tag_295:\n        /* \"#utility.yul\":5108:5170   */\n      swap2\n      pop\n        /* \"#utility.yul\":5064:5180   */\n      pop\n        /* \"#utility.yul\":4860:5187   */\n      swap3\n      swap2\n      pop\n      pop\n      jump\t// out\n        /* \"#utility.yul\":5193:5520   */\n    tag_116:\n        /* \"#utility.yul\":5251:5257   */\n      0x00\n        /* \"#utility.yul\":5300:5302   */\n      0x20\n        /* \"#utility.yul\":5288:5297   */\n      dup3\n        /* \"#utility.yul\":5279:5286   */\n      dup5\n        /* \"#utility.yul\":5275:5298   */\n      sub\n        /* \"#utility.yul\":5271:5303   */\n      slt\n        /* \"#utility.yul\":5268:5387   */\n      iszero\n      tag_297\n      jumpi\n        /* \"#utility.yul\":5306:5385   */\n      tag_298\n      tag_266\n      jump\t// in\n    tag_298:\n        /* \"#utility.yul\":5268:5387   */\n    tag_297:\n        /* \"#utility.yul\":5426:5427   */\n      0x00\n        /* \"#utility.yul\":5451:5503   */\n      tag_299\n        /* \"#utility.yul\":5495:5502   */\n      dup5\n        /* \"#utility.yul\":5486:5492   */\n      dup3\n        /* \"#utility.yul\":5475:5484   */\n      dup6\n        /* \"#utility.yul\":5471:5493   */\n      add\n        /* \"#utility.yul\":5451:5503   */\n      tag_227\n      jump\t// in\n    tag_299:\n        /* \"#utility.yul\":5441:5503   */\n      swap2\n      pop\n        /* \"#utility.yul\":5397:5513   */\n      pop\n        /* \"#utility.yul\":5193:5520   */\n      swap3\n      swap2\n      pop\n      pop\n      jump\t// out\n        /* \"#utility.yul\":5526:5855   */\n    tag_97:\n        /* \"#utility.yul\":5585:5591   */\n      0x00\n        /* \"#utility.yul\":5634:5636   */\n      0x20\n        /* \"#utility.yul\":5622:5631   */\n      dup3\n        /* \"#utility.yul\":5613:5620   */\n      dup5\n        /* \"#utility.yul\":5609:5632   */\n      sub\n        /* \"#utility.yul\":5605:5637   */\n      slt\n        /* \"#utility.yul\":5602:5721   */\n      iszero\n      tag_301\n      jumpi\n        /* \"#utility.yul\":5640:5719   */\n      tag_302\n      tag_266\n      jump\t// in\n    tag_302:\n        /* \"#utility.yul\":5602:5721   */\n    tag_301:\n        /* \"#utility.yul\":5760:5761   */\n      0x00\n        /* \"#utility.yul\":5785:5838   */\n      tag_303\n        /* \"#utility.yul\":5830:5837   */\n      dup5\n        /* \"#utility.yul\":5821:5827   */\n      dup3\n        /* \"#utility.yul\":5810:5819   */\n      dup6\n        /* \"#utility.yul\":5806:5828   */\n      add\n        /* \"#utility.yul\":5785:5838   */\n      tag_231\n      jump\t// in\n    tag_303:\n        /* \"#utility.yul\":5775:5838   */\n      swap2\n      pop\n        /* \"#utility.yul\":5731:5848   */\n      pop\n        /* \"#utility.yul\":5526:5855   */\n      swap3\n      swap2\n      pop\n      pop\n      jump\t// out\n        /* \"#utility.yul\":5861:6581   */\n    tag_39:\n        /* \"#utility.yul\":5972:5978   */\n      0x00\n        /* \"#utility.yul\":5980:5986   */\n      dup1\n        /* \"#utility.yul\":6029:6031   */\n      0x40\n        /* \"#utility.yul\":6017:6026   */\n      dup4\n        /* \"#utility.yul\":6008:6015   */\n      dup6\n        /* \"#utility.yul\":6004:6027   */\n      sub\n        /* \"#utility.yul\":6000:6032   */\n      slt\n        /* \"#utility.yul\":5997:6116   */\n      iszero\n      tag_305\n      jumpi\n        /* \"#utility.yul\":6035:6114   */\n      tag_306\n      tag_266\n      jump\t// in\n    tag_306:\n        /* \"#utility.yul\":5997:6116   */\n    tag_305:\n        /* \"#utility.yul\":6155:6156   */\n      0x00\n        /* \"#utility.yul\":6180:6233   */\n      tag_307\n        /* \"#utility.yul\":6225:6232   */\n      dup6\n        /* \"#utility.yul\":6216:6222   */\n      dup3\n        /* \"#utility.yul\":6205:6214   */\n      dup7\n        /* \"#utility.yul\":6201:6223   */\n      add\n        /* \"#utility.yul\":6180:6233   */\n      tag_235\n      jump\t// in\n    tag_307:\n        /* \"#utility.yul\":6170:6233   */\n      swap3\n      pop\n        /* \"#utility.yul\":6126:6243   */\n      pop\n        /* \"#utility.yul\":6310:6312   */\n      0x20\n        /* \"#utility.yul\":6299:6308   */\n      dup4\n        /* \"#utility.yul\":6295:6313   */\n      add\n        /* \"#utility.yul\":6282:6314   */\n      calldataload\n        /* \"#utility.yul\":6341:6359   */\n      0xffffffffffffffff\n        /* \"#utility.yul\":6333:6339   */\n      dup2\n        /* \"#utility.yul\":6330:6360   */\n      gt\n        /* \"#utility.yul\":6327:6444   */\n      iszero\n      tag_308\n      jumpi\n        /* \"#utility.yul\":6363:6442   */\n      tag_309\n      tag_286\n      jump\t// in\n    tag_309:\n        /* \"#utility.yul\":6327:6444   */\n    tag_308:\n        /* \"#utility.yul\":6468:6564   */\n      tag_310\n        /* \"#utility.yul\":6556:6563   */\n      dup6\n        /* \"#utility.yul\":6547:6553   */\n      dup3\n        /* \"#utility.yul\":6536:6545   */\n      dup7\n        /* \"#utility.yul\":6532:6554   */\n      add\n        /* \"#utility.yul\":6468:6564   */\n      tag_254\n      jump\t// in\n    tag_310:\n        /* \"#utility.yul\":6458:6564   */\n      swap2\n      pop\n        /* \"#utility.yul\":6253:6574   */\n      pop\n        /* \"#utility.yul\":5861:6581   */\n      swap3\n      pop\n      swap3\n      swap1\n      pop\n      jump\t// out\n        /* \"#utility.yul\":6587:6914   */\n    tag_129:\n        /* \"#utility.yul\":6645:6651   */\n      0x00\n        /* \"#utility.yul\":6694:6696   */\n      0x20\n        /* \"#utility.yul\":6682:6691   */\n      dup3\n        /* \"#utility.yul\":6673:6680   */\n      dup5\n        /* \"#utility.yul\":6669:6692   */\n      sub\n        /* \"#utility.yul\":6665:6697   */\n      slt\n        /* \"#utility.yul\":6662:6781   */\n      iszero\n      tag_312\n      jumpi\n        /* \"#utility.yul\":6700:6779   */\n      tag_313\n      tag_266\n      jump\t// in\n    tag_313:\n        /* \"#utility.yul\":6662:6781   */\n    tag_312:\n        /* \"#utility.yul\":6820:6821   */\n      0x00\n        /* \"#utility.yul\":6845:6897   */\n      tag_314\n        /* \"#utility.yul\":6889:6896   */\n      dup5\n        /* \"#utility.yul\":6880:6886   */\n      dup3\n        /* \"#utility.yul\":6869:6878   */\n      dup6\n        /* \"#utility.yul\":6865:6887   */\n      add\n        /* \"#utility.yul\":6845:6897   */\n      tag_239\n      jump\t// in\n    tag_314:\n        /* \"#utility.yul\":6835:6897   */\n      swap2\n      pop\n        /* \"#utility.yul\":6791:6907   */\n      pop\n        /* \"#utility.yul\":6587:6914   */\n      swap3\n      swap2\n      pop\n      pop\n      jump\t// out\n        /* \"#utility.yul\":6920:7239   */\n    tag_315:\n        /* \"#utility.yul\":7059:7069   */\n      0x00\n        /* \"#utility.yul\":7080:7196   */\n      tag_317\n        /* \"#utility.yul\":7192:7195   */\n      dup4\n        /* \"#utility.yul\":7184:7190   */\n      dup4\n        /* \"#utility.yul\":7080:7196   */\n      tag_318\n      jump\t// in\n    tag_317:\n        /* \"#utility.yul\":7228:7232   */\n      0x40\n        /* \"#utility.yul\":7223:7226   */\n      dup4\n        /* \"#utility.yul\":7219:7233   */\n      add\n        /* \"#utility.yul\":7205:7233   */\n      swap1\n      pop\n        /* \"#utility.yul\":6920:7239   */\n      swap3\n      swap2\n      pop\n      pop\n      jump\t// out\n        /* \"#utility.yul\":7245:7392   */\n    tag_319:\n        /* \"#utility.yul\":7340:7385   */\n      tag_321\n        /* \"#utility.yul\":7379:7384   */\n      dup2\n        /* \"#utility.yul\":7340:7385   */\n      tag_322\n      jump\t// in\n    tag_321:\n        /* \"#utility.yul\":7335:7338   */\n      dup3\n        /* \"#utility.yul\":7328:7386   */\n      mstore\n        /* \"#utility.yul\":7245:7392   */\n      pop\n      pop\n      jump\t// out\n        /* \"#utility.yul\":7398:7530   */\n    tag_323:\n        /* \"#utility.yul\":7491:7523   */\n      tag_325\n        /* \"#utility.yul\":7517:7522   */\n      dup2\n        /* \"#utility.yul\":7491:7523   */\n      tag_326\n      jump\t// in\n    tag_325:\n        /* \"#utility.yul\":7486:7489   */\n      dup3\n        /* \"#utility.yul\":7479:7524   */\n      mstore\n        /* \"#utility.yul\":7398:7530   */\n      pop\n      pop\n      jump\t// out\n        /* \"#utility.yul\":7536:7644   */\n    tag_327:\n        /* \"#utility.yul\":7613:7637   */\n      tag_329\n        /* \"#utility.yul\":7631:7636   */\n      dup2\n        /* \"#utility.yul\":7613:7637   */\n      tag_330\n      jump\t// in\n    tag_329:\n        /* \"#utility.yul\":7608:7611   */\n      dup3\n        /* \"#utility.yul\":7601:7638   */\n      mstore\n        /* \"#utility.yul\":7536:7644   */\n      pop\n      pop\n      jump\t// out\n        /* \"#utility.yul\":7650:7768   */\n    tag_331:\n        /* \"#utility.yul\":7737:7761   */\n      tag_333\n        /* \"#utility.yul\":7755:7760   */\n      dup2\n        /* \"#utility.yul\":7737:7761   */\n      tag_330\n      jump\t// in\n    tag_333:\n        /* \"#utility.yul\":7732:7735   */\n      dup3\n        /* \"#utility.yul\":7725:7762   */\n      mstore\n        /* \"#utility.yul\":7650:7768   */\n      pop\n      pop\n      jump\t// out\n        /* \"#utility.yul\":7876:8868   */\n    tag_334:\n        /* \"#utility.yul\":8055:8058   */\n      0x00\n        /* \"#utility.yul\":8084:8173   */\n      tag_336\n        /* \"#utility.yul\":8167:8172   */\n      dup3\n        /* \"#utility.yul\":8084:8173   */\n      tag_337\n      jump\t// in\n    tag_336:\n        /* \"#utility.yul\":8189:8300   */\n      tag_338\n        /* \"#utility.yul\":8293:8299   */\n      dup2\n        /* \"#utility.yul\":8288:8291   */\n      dup6\n        /* \"#utility.yul\":8189:8300   */\n      tag_339\n      jump\t// in\n    tag_338:\n        /* \"#utility.yul\":8182:8300   */\n      swap4\n      pop\n        /* \"#utility.yul\":8324:8415   */\n      tag_340\n        /* \"#utility.yul\":8409:8414   */\n      dup4\n        /* \"#utility.yul\":8324:8415   */\n      tag_341\n      jump\t// in\n    tag_340:\n        /* \"#utility.yul\":8438:8445   */\n      dup1\n        /* \"#utility.yul\":8469:8470   */\n      0x00\n        /* \"#utility.yul\":8454:8843   */\n    tag_342:\n        /* \"#utility.yul\":8479:8485   */\n      dup4\n        /* \"#utility.yul\":8476:8477   */\n      dup2\n        /* \"#utility.yul\":8473:8486   */\n      lt\n        /* \"#utility.yul\":8454:8843   */\n      iszero\n      tag_344\n      jumpi\n        /* \"#utility.yul\":8555:8561   */\n      dup2\n        /* \"#utility.yul\":8549:8562   */\n      mload\n        /* \"#utility.yul\":8582:8715   */\n      tag_345\n        /* \"#utility.yul\":8711:8714   */\n      dup9\n        /* \"#utility.yul\":8696:8709   */\n      dup3\n        /* \"#utility.yul\":8582:8715   */\n      tag_315\n      jump\t// in\n    tag_345:\n        /* \"#utility.yul\":8575:8715   */\n      swap8\n      pop\n        /* \"#utility.yul\":8738:8833   */\n      tag_346\n        /* \"#utility.yul\":8826:8832   */\n      dup4\n        /* \"#utility.yul\":8738:8833   */\n      tag_347\n      jump\t// in\n    tag_346:\n        /* \"#utility.yul\":8728:8833   */\n      swap3\n      pop\n        /* \"#utility.yul\":8514:8843   */\n      pop\n        /* \"#utility.yul\":8501:8502   */\n      0x01\n        /* \"#utility.yul\":8498:8499   */\n      dup2\n        /* \"#utility.yul\":8494:8503   */\n      add\n        /* \"#utility.yul\":8489:8503   */\n      swap1\n      pop\n        /* \"#utility.yul\":8454:8843   */\n      jump(tag_342)\n    tag_344:\n        /* \"#utility.yul\":8458:8472   */\n      pop\n        /* \"#utility.yul\":8859:8862   */\n      dup6\n        /* \"#utility.yul\":8852:8862   */\n      swap4\n      pop\n        /* \"#utility.yul\":8060:8868   */\n      pop\n      pop\n      pop\n        /* \"#utility.yul\":7876:8868   */\n      swap3\n      swap2\n      pop\n      pop\n      jump\t// out\n        /* \"#utility.yul\":8874:8982   */\n    tag_348:\n        /* \"#utility.yul\":8951:8975   */\n      tag_350\n        /* \"#utility.yul\":8969:8974   */\n      dup2\n        /* \"#utility.yul\":8951:8975   */\n      tag_351\n      jump\t// in\n    tag_350:\n        /* \"#utility.yul\":8946:8949   */\n      dup3\n        /* \"#utility.yul\":8939:8976   */\n      mstore\n        /* \"#utility.yul\":8874:8982   */\n      pop\n      pop\n      jump\t// out\n        /* \"#utility.yul\":8988:9106   */\n    tag_352:\n        /* \"#utility.yul\":9075:9099   */\n      tag_354\n        /* \"#utility.yul\":9093:9098   */\n      dup2\n        /* \"#utility.yul\":9075:9099   */\n      tag_351\n      jump\t// in\n    tag_354:\n        /* \"#utility.yul\":9070:9073   */\n      dup3\n        /* \"#utility.yul\":9063:9100   */\n      mstore\n        /* \"#utility.yul\":8988:9106   */\n      pop\n      pop\n      jump\t// out\n        /* \"#utility.yul\":9112:9269   */\n    tag_355:\n        /* \"#utility.yul\":9217:9262   */\n      tag_357\n        /* \"#utility.yul\":9237:9261   */\n      tag_358\n        /* \"#utility.yul\":9255:9260   */\n      dup3\n        /* \"#utility.yul\":9237:9261   */\n      tag_351\n      jump\t// in\n    tag_358:\n        /* \"#utility.yul\":9217:9262   */\n      tag_359\n      jump\t// in\n    tag_357:\n        /* \"#utility.yul\":9212:9215   */\n      dup3\n        /* \"#utility.yul\":9205:9263   */\n      mstore\n        /* \"#utility.yul\":9112:9269   */\n      pop\n      pop\n      jump\t// out\n        /* \"#utility.yul\":9275:9390   */\n    tag_360:\n        /* \"#utility.yul\":9360:9383   */\n      tag_362\n        /* \"#utility.yul\":9377:9382   */\n      dup2\n        /* \"#utility.yul\":9360:9383   */\n      tag_363\n      jump\t// in\n    tag_362:\n        /* \"#utility.yul\":9355:9358   */\n      dup3\n        /* \"#utility.yul\":9348:9384   */\n      mstore\n        /* \"#utility.yul\":9275:9390   */\n      pop\n      pop\n      jump\t// out\n        /* \"#utility.yul\":9396:9736   */\n    tag_364:\n        /* \"#utility.yul\":9472:9475   */\n      0x00\n        /* \"#utility.yul\":9500:9538   */\n      tag_366\n        /* \"#utility.yul\":9532:9537   */\n      dup3\n        /* \"#utility.yul\":9500:9538   */\n      tag_367\n      jump\t// in\n    tag_366:\n        /* \"#utility.yul\":9554:9614   */\n      tag_368\n        /* \"#utility.yul\":9607:9613   */\n      dup2\n        /* \"#utility.yul\":9602:9605   */\n      dup6\n        /* \"#utility.yul\":9554:9614   */\n      tag_369\n      jump\t// in\n    tag_368:\n        /* \"#utility.yul\":9547:9614   */\n      swap4\n      pop\n        /* \"#utility.yul\":9623:9675   */\n      tag_370\n        /* \"#utility.yul\":9668:9674   */\n      dup2\n        /* \"#utility.yul\":9663:9666   */\n      dup6\n        /* \"#utility.yul\":9656:9660   */\n      0x20\n        /* \"#utility.yul\":9649:9654   */\n      dup7\n        /* \"#utility.yul\":9645:9661   */\n      add\n        /* \"#utility.yul\":9623:9675   */\n      tag_371\n      jump\t// in\n    tag_370:\n        /* \"#utility.yul\":9700:9729   */\n      tag_372\n        /* \"#utility.yul\":9722:9728   */\n      dup2\n        /* \"#utility.yul\":9700:9729   */\n      tag_373\n      jump\t// in\n    tag_372:\n        /* \"#utility.yul\":9695:9698   */\n      dup5\n        /* \"#utility.yul\":9691:9730   */\n      add\n        /* \"#utility.yul\":9684:9730   */\n      swap2\n      pop\n        /* \"#utility.yul\":9476:9736   */\n      pop\n        /* \"#utility.yul\":9396:9736   */\n      swap3\n      swap2\n      pop\n      pop\n      jump\t// out\n        /* \"#utility.yul\":9742:10115   */\n    tag_374:\n        /* \"#utility.yul\":9846:9849   */\n      0x00\n        /* \"#utility.yul\":9874:9912   */\n      tag_376\n        /* \"#utility.yul\":9906:9911   */\n      dup3\n        /* \"#utility.yul\":9874:9912   */\n      tag_367\n      jump\t// in\n    tag_376:\n        /* \"#utility.yul\":9928:10016   */\n      tag_377\n        /* \"#utility.yul\":10009:10015   */\n      dup2\n        /* \"#utility.yul\":10004:10007   */\n      dup6\n        /* \"#utility.yul\":9928:10016   */\n      tag_378\n      jump\t// in\n    tag_377:\n        /* \"#utility.yul\":9921:10016   */\n      swap4\n      pop\n        /* \"#utility.yul\":10025:10077   */\n      tag_379\n        /* \"#utility.yul\":10070:10076   */\n      dup2\n        /* \"#utility.yul\":10065:10068   */\n      dup6\n        /* \"#utility.yul\":10058:10062   */\n      0x20\n        /* \"#utility.yul\":10051:10056   */\n      dup7\n        /* \"#utility.yul\":10047:10063   */\n      add\n        /* \"#utility.yul\":10025:10077   */\n      tag_371\n      jump\t// in\n    tag_379:\n        /* \"#utility.yul\":10102:10108   */\n      dup1\n        /* \"#utility.yul\":10097:10100   */\n      dup5\n        /* \"#utility.yul\":10093:10109   */\n      add\n        /* \"#utility.yul\":10086:10109   */\n      swap2\n      pop\n        /* \"#utility.yul\":9850:10115   */\n      pop\n        /* \"#utility.yul\":9742:10115   */\n      swap3\n      swap2\n      pop\n      pop\n      jump\t// out\n        /* \"#utility.yul\":10121:10272   */\n    tag_380:\n        /* \"#utility.yul\":10213:10265   */\n      tag_382\n        /* \"#utility.yul\":10259:10264   */\n      dup2\n        /* \"#utility.yul\":10213:10265   */\n      tag_383\n      jump\t// in\n    tag_382:\n        /* \"#utility.yul\":10208:10211   */\n      dup3\n        /* \"#utility.yul\":10201:10266   */\n      mstore\n        /* \"#utility.yul\":10121:10272   */\n      pop\n      pop\n      jump\t// out\n        /* \"#utility.yul\":10278:10644   */\n    tag_384:\n        /* \"#utility.yul\":10420:10423   */\n      0x00\n        /* \"#utility.yul\":10441:10508   */\n      tag_386\n        /* \"#utility.yul\":10505:10507   */\n      0x12\n        /* \"#utility.yul\":10500:10503   */\n      dup4\n        /* \"#utility.yul\":10441:10508   */\n      tag_387\n      jump\t// in\n    tag_386:\n        /* \"#utility.yul\":10434:10508   */\n      swap2\n      pop\n        /* \"#utility.yul\":10517:10610   */\n      tag_388\n        /* \"#utility.yul\":10606:10609   */\n      dup3\n        /* \"#utility.yul\":10517:10610   */\n      tag_389\n      jump\t// in\n    tag_388:\n        /* \"#utility.yul\":10635:10637   */\n      0x20\n        /* \"#utility.yul\":10630:10633   */\n      dup3\n        /* \"#utility.yul\":10626:10638   */\n      add\n        /* \"#utility.yul\":10619:10638   */\n      swap1\n      pop\n        /* \"#utility.yul\":10278:10644   */\n      swap2\n      swap1\n      pop\n      jump\t// out\n        /* \"#utility.yul\":10748:11272   */\n    tag_318:\n        /* \"#utility.yul\":10905:10909   */\n      0x40\n        /* \"#utility.yul\":10900:10903   */\n      dup3\n        /* \"#utility.yul\":10896:10910   */\n      add\n        /* \"#utility.yul\":10994:10998   */\n      0x00\n        /* \"#utility.yul\":10987:10992   */\n      dup3\n        /* \"#utility.yul\":10983:10999   */\n      add\n        /* \"#utility.yul\":10977:11000   */\n      mload\n        /* \"#utility.yul\":11013:11076   */\n      tag_391\n        /* \"#utility.yul\":11070:11074   */\n      0x00\n        /* \"#utility.yul\":11065:11068   */\n      dup6\n        /* \"#utility.yul\":11061:11075   */\n      add\n        /* \"#utility.yul\":11047:11059   */\n      dup3\n        /* \"#utility.yul\":11013:11076   */\n      tag_392\n      jump\t// in\n    tag_391:\n        /* \"#utility.yul\":10920:11086   */\n      pop\n        /* \"#utility.yul\":11173:11177   */\n      0x20\n        /* \"#utility.yul\":11166:11171   */\n      dup3\n        /* \"#utility.yul\":11162:11178   */\n      add\n        /* \"#utility.yul\":11156:11179   */\n      mload\n        /* \"#utility.yul\":11192:11255   */\n      tag_393\n        /* \"#utility.yul\":11249:11253   */\n      0x20\n        /* \"#utility.yul\":11244:11247   */\n      dup6\n        /* \"#utility.yul\":11240:11254   */\n      add\n        /* \"#utility.yul\":11226:11238   */\n      dup3\n        /* \"#utility.yul\":11192:11255   */\n      tag_327\n      jump\t// in\n    tag_393:\n        /* \"#utility.yul\":11096:11265   */\n      pop\n        /* \"#utility.yul\":10874:11272   */\n      pop\n        /* \"#utility.yul\":10748:11272   */\n      pop\n      pop\n      jump\t// out\n        /* \"#utility.yul\":11378:15207   */\n    tag_394:\n        /* \"#utility.yul\":11519:11522   */\n      0x00\n        /* \"#utility.yul\":11555:11561   */\n      0x0240\n        /* \"#utility.yul\":11550:11553   */\n      dup4\n        /* \"#utility.yul\":11546:11562   */\n      add\n        /* \"#utility.yul\":11658:11662   */\n      0x00\n        /* \"#utility.yul\":11651:11656   */\n      dup4\n        /* \"#utility.yul\":11647:11663   */\n      add\n        /* \"#utility.yul\":11641:11664   */\n      mload\n        /* \"#utility.yul\":11677:11740   */\n      tag_396\n        /* \"#utility.yul\":11734:11738   */\n      0x00\n        /* \"#utility.yul\":11729:11732   */\n      dup7\n        /* \"#utility.yul\":11725:11739   */\n      add\n        /* \"#utility.yul\":11711:11723   */\n      dup3\n        /* \"#utility.yul\":11677:11740   */\n      tag_327\n      jump\t// in\n    tag_396:\n        /* \"#utility.yul\":11572:11750   */\n      pop\n        /* \"#utility.yul\":11851:11855   */\n      0x20\n        /* \"#utility.yul\":11844:11849   */\n      dup4\n        /* \"#utility.yul\":11840:11856   */\n      add\n        /* \"#utility.yul\":11834:11857   */\n      mload\n        /* \"#utility.yul\":11870:11933   */\n      tag_397\n        /* \"#utility.yul\":11927:11931   */\n      0x20\n        /* \"#utility.yul\":11922:11925   */\n      dup7\n        /* \"#utility.yul\":11918:11932   */\n      add\n        /* \"#utility.yul\":11904:11916   */\n      dup3\n        /* \"#utility.yul\":11870:11933   */\n      tag_392\n      jump\t// in\n    tag_397:\n        /* \"#utility.yul\":11760:11943   */\n      pop\n        /* \"#utility.yul\":12040:12044   */\n      0x40\n        /* \"#utility.yul\":12033:12038   */\n      dup4\n        /* \"#utility.yul\":12029:12045   */\n      add\n        /* \"#utility.yul\":12023:12046   */\n      mload\n        /* \"#utility.yul\":12059:12122   */\n      tag_398\n        /* \"#utility.yul\":12116:12120   */\n      0x40\n        /* \"#utility.yul\":12111:12114   */\n      dup7\n        /* \"#utility.yul\":12107:12121   */\n      add\n        /* \"#utility.yul\":12093:12105   */\n      dup3\n        /* \"#utility.yul\":12059:12122   */\n      tag_392\n      jump\t// in\n    tag_398:\n        /* \"#utility.yul\":11953:12132   */\n      pop\n        /* \"#utility.yul\":12217:12221   */\n      0x60\n        /* \"#utility.yul\":12210:12215   */\n      dup4\n        /* \"#utility.yul\":12206:12222   */\n      add\n        /* \"#utility.yul\":12200:12223   */\n      mload\n        /* \"#utility.yul\":12236:12315   */\n      tag_399\n        /* \"#utility.yul\":12309:12313   */\n      0x60\n        /* \"#utility.yul\":12304:12307   */\n      dup7\n        /* \"#utility.yul\":12300:12314   */\n      add\n        /* \"#utility.yul\":12286:12298   */\n      dup3\n        /* \"#utility.yul\":12236:12315   */\n      tag_323\n      jump\t// in\n    tag_399:\n        /* \"#utility.yul\":12142:12325   */\n      pop\n        /* \"#utility.yul\":12407:12411   */\n      0x80\n        /* \"#utility.yul\":12400:12405   */\n      dup4\n        /* \"#utility.yul\":12396:12412   */\n      add\n        /* \"#utility.yul\":12390:12413   */\n      mload\n        /* \"#utility.yul\":12426:12489   */\n      tag_400\n        /* \"#utility.yul\":12483:12487   */\n      0x80\n        /* \"#utility.yul\":12478:12481   */\n      dup7\n        /* \"#utility.yul\":12474:12488   */\n      add\n        /* \"#utility.yul\":12460:12472   */\n      dup3\n        /* \"#utility.yul\":12426:12489   */\n      tag_327\n      jump\t// in\n    tag_400:\n        /* \"#utility.yul\":12335:12499   */\n      pop\n        /* \"#utility.yul\":12587:12591   */\n      0xa0\n        /* \"#utility.yul\":12580:12585   */\n      dup4\n        /* \"#utility.yul\":12576:12592   */\n      add\n        /* \"#utility.yul\":12570:12593   */\n      mload\n        /* \"#utility.yul\":12606:12669   */\n      tag_401\n        /* \"#utility.yul\":12663:12667   */\n      0xa0\n        /* \"#utility.yul\":12658:12661   */\n      dup7\n        /* \"#utility.yul\":12654:12668   */\n      add\n        /* \"#utility.yul\":12640:12652   */\n      dup3\n        /* \"#utility.yul\":12606:12669   */\n      tag_327\n      jump\t// in\n    tag_401:\n        /* \"#utility.yul\":12509:12679   */\n      pop\n        /* \"#utility.yul\":12772:12776   */\n      0xc0\n        /* \"#utility.yul\":12765:12770   */\n      dup4\n        /* \"#utility.yul\":12761:12777   */\n      add\n        /* \"#utility.yul\":12755:12778   */\n      mload\n        /* \"#utility.yul\":12791:12854   */\n      tag_402\n        /* \"#utility.yul\":12848:12852   */\n      0xc0\n        /* \"#utility.yul\":12843:12846   */\n      dup7\n        /* \"#utility.yul\":12839:12853   */\n      add\n        /* \"#utility.yul\":12825:12837   */\n      dup3\n        /* \"#utility.yul\":12791:12854   */\n      tag_392\n      jump\t// in\n    tag_402:\n        /* \"#utility.yul\":12689:12864   */\n      pop\n        /* \"#utility.yul\":12953:12957   */\n      0xe0\n        /* \"#utility.yul\":12946:12951   */\n      dup4\n        /* \"#utility.yul\":12942:12958   */\n      add\n        /* \"#utility.yul\":12936:12959   */\n      mload\n        /* \"#utility.yul\":12972:13035   */\n      tag_403\n        /* \"#utility.yul\":13029:13033   */\n      0xe0\n        /* \"#utility.yul\":13024:13027   */\n      dup7\n        /* \"#utility.yul\":13020:13034   */\n      add\n        /* \"#utility.yul\":13006:13018   */\n      dup3\n        /* \"#utility.yul\":12972:13035   */\n      tag_392\n      jump\t// in\n    tag_403:\n        /* \"#utility.yul\":12874:13045   */\n      pop\n        /* \"#utility.yul\":13137:13143   */\n      0x0100\n        /* \"#utility.yul\":13130:13135   */\n      dup4\n        /* \"#utility.yul\":13126:13144   */\n      add\n        /* \"#utility.yul\":13120:13145   */\n      mload\n        /* \"#utility.yul\":13158:13238   */\n      tag_404\n        /* \"#utility.yul\":13230:13236   */\n      0x0100\n        /* \"#utility.yul\":13225:13228   */\n      dup7\n        /* \"#utility.yul\":13221:13237   */\n      add\n        /* \"#utility.yul\":13207:13219   */\n      dup3\n        /* \"#utility.yul\":13158:13238   */\n      tag_380\n      jump\t// in\n    tag_404:\n        /* \"#utility.yul\":13055:13248   */\n      pop\n        /* \"#utility.yul\":13335:13341   */\n      0x0120\n        /* \"#utility.yul\":13328:13333   */\n      dup4\n        /* \"#utility.yul\":13324:13342   */\n      add\n        /* \"#utility.yul\":13318:13343   */\n      mload\n        /* \"#utility.yul\":13356:13421   */\n      tag_405\n        /* \"#utility.yul\":13413:13419   */\n      0x0120\n        /* \"#utility.yul\":13408:13411   */\n      dup7\n        /* \"#utility.yul\":13404:13420   */\n      add\n        /* \"#utility.yul\":13390:13402   */\n      dup3\n        /* \"#utility.yul\":13356:13421   */\n      tag_392\n      jump\t// in\n    tag_405:\n        /* \"#utility.yul\":13258:13431   */\n      pop\n        /* \"#utility.yul\":13516:13522   */\n      0x0140\n        /* \"#utility.yul\":13509:13514   */\n      dup4\n        /* \"#utility.yul\":13505:13523   */\n      add\n        /* \"#utility.yul\":13499:13524   */\n      mload\n        /* \"#utility.yul\":13537:13602   */\n      tag_406\n        /* \"#utility.yul\":13594:13600   */\n      0x0140\n        /* \"#utility.yul\":13589:13592   */\n      dup7\n        /* \"#utility.yul\":13585:13601   */\n      add\n        /* \"#utility.yul\":13571:13583   */\n      dup3\n        /* \"#utility.yul\":13537:13602   */\n      tag_392\n      jump\t// in\n    tag_406:\n        /* \"#utility.yul\":13441:13612   */\n      pop\n        /* \"#utility.yul\":13698:13704   */\n      0x0160\n        /* \"#utility.yul\":13691:13696   */\n      dup4\n        /* \"#utility.yul\":13687:13705   */\n      add\n        /* \"#utility.yul\":13681:13706   */\n      mload\n        /* \"#utility.yul\":13719:13784   */\n      tag_407\n        /* \"#utility.yul\":13776:13782   */\n      0x0160\n        /* \"#utility.yul\":13771:13774   */\n      dup7\n        /* \"#utility.yul\":13767:13783   */\n      add\n        /* \"#utility.yul\":13753:13765   */\n      dup3\n        /* \"#utility.yul\":13719:13784   */\n      tag_348\n      jump\t// in\n    tag_407:\n        /* \"#utility.yul\":13622:13794   */\n      pop\n        /* \"#utility.yul\":13876:13882   */\n      0x0180\n        /* \"#utility.yul\":13869:13874   */\n      dup4\n        /* \"#utility.yul\":13865:13883   */\n      add\n        /* \"#utility.yul\":13859:13884   */\n      mload\n        /* \"#utility.yul\":13897:13962   */\n      tag_408\n        /* \"#utility.yul\":13954:13960   */\n      0x0180\n        /* \"#utility.yul\":13949:13952   */\n      dup7\n        /* \"#utility.yul\":13945:13961   */\n      add\n        /* \"#utility.yul\":13931:13943   */\n      dup3\n        /* \"#utility.yul\":13897:13962   */\n      tag_392\n      jump\t// in\n    tag_408:\n        /* \"#utility.yul\":13804:13972   */\n      pop\n        /* \"#utility.yul\":14067:14073   */\n      0x01a0\n        /* \"#utility.yul\":14060:14065   */\n      dup4\n        /* \"#utility.yul\":14056:14074   */\n      add\n        /* \"#utility.yul\":14050:14075   */\n      mload\n        /* \"#utility.yul\":14088:14153   */\n      tag_409\n        /* \"#utility.yul\":14145:14151   */\n      0x01a0\n        /* \"#utility.yul\":14140:14143   */\n      dup7\n        /* \"#utility.yul\":14136:14152   */\n      add\n        /* \"#utility.yul\":14122:14134   */\n      dup3\n        /* \"#utility.yul\":14088:14153   */\n      tag_348\n      jump\t// in\n    tag_409:\n        /* \"#utility.yul\":13982:14163   */\n      pop\n        /* \"#utility.yul\":14260:14266   */\n      0x01c0\n        /* \"#utility.yul\":14253:14258   */\n      dup4\n        /* \"#utility.yul\":14249:14267   */\n      add\n        /* \"#utility.yul\":14243:14268   */\n      mload\n        /* \"#utility.yul\":14281:14346   */\n      tag_410\n        /* \"#utility.yul\":14338:14344   */\n      0x01c0\n        /* \"#utility.yul\":14333:14336   */\n      dup7\n        /* \"#utility.yul\":14329:14345   */\n      add\n        /* \"#utility.yul\":14315:14327   */\n      dup3\n        /* \"#utility.yul\":14281:14346   */\n      tag_348\n      jump\t// in\n    tag_410:\n        /* \"#utility.yul\":14173:14356   */\n      pop\n        /* \"#utility.yul\":14467:14473   */\n      0x01e0\n        /* \"#utility.yul\":14460:14465   */\n      dup4\n        /* \"#utility.yul\":14456:14474   */\n      add\n        /* \"#utility.yul\":14450:14475   */\n      mload\n        /* \"#utility.yul\":14488:14553   */\n      tag_411\n        /* \"#utility.yul\":14545:14551   */\n      0x01e0\n        /* \"#utility.yul\":14540:14543   */\n      dup7\n        /* \"#utility.yul\":14536:14552   */\n      add\n        /* \"#utility.yul\":14522:14534   */\n      dup3\n        /* \"#utility.yul\":14488:14553   */\n      tag_392\n      jump\t// in\n    tag_411:\n        /* \"#utility.yul\":14366:14563   */\n      pop\n        /* \"#utility.yul\":14661:14667   */\n      0x0200\n        /* \"#utility.yul\":14654:14659   */\n      dup4\n        /* \"#utility.yul\":14650:14668   */\n      add\n        /* \"#utility.yul\":14644:14669   */\n      mload\n        /* \"#utility.yul\":14718:14721   */\n      dup5\n        /* \"#utility.yul\":14712:14716   */\n      dup3\n        /* \"#utility.yul\":14708:14722   */\n      sub\n        /* \"#utility.yul\":14699:14705   */\n      0x0200\n        /* \"#utility.yul\":14694:14697   */\n      dup7\n        /* \"#utility.yul\":14690:14706   */\n      add\n        /* \"#utility.yul\":14683:14723   */\n      mstore\n        /* \"#utility.yul\":14744:14917   */\n      tag_412\n        /* \"#utility.yul\":14912:14916   */\n      dup3\n        /* \"#utility.yul\":14898:14910   */\n      dup3\n        /* \"#utility.yul\":14744:14917   */\n      tag_334\n      jump\t// in\n    tag_412:\n        /* \"#utility.yul\":14736:14917   */\n      swap2\n      pop\n        /* \"#utility.yul\":14573:14928   */\n      pop\n        /* \"#utility.yul\":15015:15021   */\n      0x0220\n        /* \"#utility.yul\":15008:15013   */\n      dup4\n        /* \"#utility.yul\":15004:15022   */\n      add\n        /* \"#utility.yul\":14998:15023   */\n      mload\n        /* \"#utility.yul\":15072:15075   */\n      dup5\n        /* \"#utility.yul\":15066:15070   */\n      dup3\n        /* \"#utility.yul\":15062:15076   */\n      sub\n        /* \"#utility.yul\":15053:15059   */\n      0x0220\n        /* \"#utility.yul\":15048:15051   */\n      dup7\n        /* \"#utility.yul\":15044:15060   */\n      add\n        /* \"#utility.yul\":15037:15077   */\n      mstore\n        /* \"#utility.yul\":15098:15169   */\n      tag_413\n        /* \"#utility.yul\":15164:15168   */\n      dup3\n        /* \"#utility.yul\":15150:15162   */\n      dup3\n        /* \"#utility.yul\":15098:15169   */\n      tag_364\n      jump\t// in\n    tag_413:\n        /* \"#utility.yul\":15090:15169   */\n      swap2\n      pop\n        /* \"#utility.yul\":14938:15180   */\n      pop\n        /* \"#utility.yul\":15197:15201   */\n      dup1\n        /* \"#utility.yul\":15190:15201   */\n      swap2\n      pop\n        /* \"#utility.yul\":11524:15207   */\n      pop\n        /* \"#utility.yul\":11378:15207   */\n      swap3\n      swap2\n      pop\n      pop\n      jump\t// out\n        /* \"#utility.yul\":15213:15321   */\n    tag_392:\n        /* \"#utility.yul\":15290:15314   */\n      tag_415\n        /* \"#utility.yul\":15308:15313   */\n      dup2\n        /* \"#utility.yul\":15290:15314   */\n      tag_416\n      jump\t// in\n    tag_415:\n        /* \"#utility.yul\":15285:15288   */\n      dup3\n        /* \"#utility.yul\":15278:15315   */\n      mstore\n        /* \"#utility.yul\":15213:15321   */\n      pop\n      pop\n      jump\t// out\n        /* \"#utility.yul\":15327:15445   */\n    tag_417:\n        /* \"#utility.yul\":15414:15438   */\n      tag_419\n        /* \"#utility.yul\":15432:15437   */\n      dup2\n        /* \"#utility.yul\":15414:15438   */\n      tag_416\n      jump\t// in\n    tag_419:\n        /* \"#utility.yul\":15409:15412   */\n      dup3\n        /* \"#utility.yul\":15402:15439   */\n      mstore\n        /* \"#utility.yul\":15327:15445   */\n      pop\n      pop\n      jump\t// out\n        /* \"#utility.yul\":15451:15608   */\n    tag_420:\n        /* \"#utility.yul\":15556:15601   */\n      tag_422\n        /* \"#utility.yul\":15576:15600   */\n      tag_423\n        /* \"#utility.yul\":15594:15599   */\n      dup3\n        /* \"#utility.yul\":15576:15600   */\n      tag_416\n      jump\t// in\n    tag_423:\n        /* \"#utility.yul\":15556:15601   */\n      tag_424\n      jump\t// in\n    tag_422:\n        /* \"#utility.yul\":15551:15554   */\n      dup3\n        /* \"#utility.yul\":15544:15602   */\n      mstore\n        /* \"#utility.yul\":15451:15608   */\n      pop\n      pop\n      jump\t// out\n        /* \"#utility.yul\":15614:16026   */\n    tag_204:\n        /* \"#utility.yul\":15772:15775   */\n      0x00\n        /* \"#utility.yul\":15794:15887   */\n      tag_426\n        /* \"#utility.yul\":15883:15886   */\n      dup3\n        /* \"#utility.yul\":15874:15880   */\n      dup6\n        /* \"#utility.yul\":15794:15887   */\n      tag_374\n      jump\t// in\n    tag_426:\n        /* \"#utility.yul\":15787:15887   */\n      swap2\n      pop\n        /* \"#utility.yul\":15897:15972   */\n      tag_427\n        /* \"#utility.yul\":15968:15971   */\n      dup3\n        /* \"#utility.yul\":15959:15965   */\n      dup5\n        /* \"#utility.yul\":15897:15972   */\n      tag_355\n      jump\t// in\n    tag_427:\n        /* \"#utility.yul\":15997:15999   */\n      0x20\n        /* \"#utility.yul\":15992:15995   */\n      dup3\n        /* \"#utility.yul\":15988:16000   */\n      add\n        /* \"#utility.yul\":15981:16000   */\n      swap2\n      pop\n        /* \"#utility.yul\":16017:16020   */\n      dup2\n        /* \"#utility.yul\":16010:16020   */\n      swap1\n      pop\n        /* \"#utility.yul\":15614:16026   */\n      swap4\n      swap3\n      pop\n      pop\n      pop\n      jump\t// out\n        /* \"#utility.yul\":16032:16429   */\n    tag_169:\n        /* \"#utility.yul\":16172:16175   */\n      0x00\n        /* \"#utility.yul\":16187:16262   */\n      tag_429\n        /* \"#utility.yul\":16258:16261   */\n      dup3\n        /* \"#utility.yul\":16249:16255   */\n      dup6\n        /* \"#utility.yul\":16187:16262   */\n      tag_420\n      jump\t// in\n    tag_429:\n        /* \"#utility.yul\":16287:16289   */\n      0x20\n        /* \"#utility.yul\":16282:16285   */\n      dup3\n        /* \"#utility.yul\":16278:16290   */\n      add\n        /* \"#utility.yul\":16271:16290   */\n      swap2\n      pop\n        /* \"#utility.yul\":16300:16375   */\n      tag_430\n        /* \"#utility.yul\":16371:16374   */\n      dup3\n        /* \"#utility.yul\":16362:16368   */\n      dup5\n        /* \"#utility.yul\":16300:16375   */\n      tag_420\n      jump\t// in\n    tag_430:\n        /* \"#utility.yul\":16400:16402   */\n      0x20\n        /* \"#utility.yul\":16395:16398   */\n      dup3\n        /* \"#utility.yul\":16391:16403   */\n      add\n        /* \"#utility.yul\":16384:16403   */\n      swap2\n      pop\n        /* \"#utility.yul\":16420:16423   */\n      dup2\n        /* \"#utility.yul\":16413:16423   */\n      swap1\n      pop\n        /* \"#utility.yul\":16032:16429   */\n      swap4\n      swap3\n      pop\n      pop\n      pop\n      jump\t// out\n        /* \"#utility.yul\":16435:16657   */\n    tag_32:\n        /* \"#utility.yul\":16528:16532   */\n      0x00\n        /* \"#utility.yul\":16566:16568   */\n      0x20\n        /* \"#utility.yul\":16555:16564   */\n      dup3\n        /* \"#utility.yul\":16551:16569   */\n      add\n        /* \"#utility.yul\":16543:16569   */\n      swap1\n      pop\n        /* \"#utility.yul\":16579:16650   */\n      tag_432\n        /* \"#utility.yul\":16647:16648   */\n      0x00\n        /* \"#utility.yul\":16636:16645   */\n      dup4\n        /* \"#utility.yul\":16632:16649   */\n      add\n        /* \"#utility.yul\":16623:16629   */\n      dup5\n        /* \"#utility.yul\":16579:16650   */\n      tag_331\n      jump\t// in\n    tag_432:\n        /* \"#utility.yul\":16435:16657   */\n      swap3\n      swap2\n      pop\n      pop\n      jump\t// out\n        /* \"#utility.yul\":16663:17121   */\n    tag_176:\n        /* \"#utility.yul\":16820:16824   */\n      0x00\n        /* \"#utility.yul\":16858:16860   */\n      0x60\n        /* \"#utility.yul\":16847:16856   */\n      dup3\n        /* \"#utility.yul\":16843:16861   */\n      add\n        /* \"#utility.yul\":16835:16861   */\n      swap1\n      pop\n        /* \"#utility.yul\":16871:16942   */\n      tag_434\n        /* \"#utility.yul\":16939:16940   */\n      0x00\n        /* \"#utility.yul\":16928:16937   */\n      dup4\n        /* \"#utility.yul\":16924:16941   */\n      add\n        /* \"#utility.yul\":16915:16921   */\n      dup7\n        /* \"#utility.yul\":16871:16942   */\n      tag_331\n      jump\t// in\n    tag_434:\n        /* \"#utility.yul\":16952:17032   */\n      tag_435\n        /* \"#utility.yul\":17028:17030   */\n      0x20\n        /* \"#utility.yul\":17017:17026   */\n      dup4\n        /* \"#utility.yul\":17013:17031   */\n      add\n        /* \"#utility.yul\":17004:17010   */\n      dup6\n        /* \"#utility.yul\":16952:17032   */\n      tag_319\n      jump\t// in\n    tag_435:\n        /* \"#utility.yul\":17042:17114   */\n      tag_436\n        /* \"#utility.yul\":17110:17112   */\n      0x40\n        /* \"#utility.yul\":17099:17108   */\n      dup4\n        /* \"#utility.yul\":17095:17113   */\n      add\n        /* \"#utility.yul\":17086:17092   */\n      dup5\n        /* \"#utility.yul\":17042:17114   */\n      tag_417\n      jump\t// in\n    tag_436:\n        /* \"#utility.yul\":16663:17121   */\n      swap5\n      swap4\n      pop\n      pop\n      pop\n      pop\n      jump\t// out\n        /* \"#utility.yul\":17127:17569   */\n    tag_162:\n        /* \"#utility.yul\":17276:17280   */\n      0x00\n        /* \"#utility.yul\":17314:17316   */\n      0x60\n        /* \"#utility.yul\":17303:17312   */\n      dup3\n        /* \"#utility.yul\":17299:17317   */\n      add\n        /* \"#utility.yul\":17291:17317   */\n      swap1\n      pop\n        /* \"#utility.yul\":17327:17398   */\n      tag_438\n        /* \"#utility.yul\":17395:17396   */\n      0x00\n        /* \"#utility.yul\":17384:17393   */\n      dup4\n        /* \"#utility.yul\":17380:17397   */\n      add\n        /* \"#utility.yul\":17371:17377   */\n      dup7\n        /* \"#utility.yul\":17327:17398   */\n      tag_331\n      jump\t// in\n    tag_438:\n        /* \"#utility.yul\":17408:17480   */\n      tag_439\n        /* \"#utility.yul\":17476:17478   */\n      0x20\n        /* \"#utility.yul\":17465:17474   */\n      dup4\n        /* \"#utility.yul\":17461:17479   */\n      add\n        /* \"#utility.yul\":17452:17458   */\n      dup6\n        /* \"#utility.yul\":17408:17480   */\n      tag_331\n      jump\t// in\n    tag_439:\n        /* \"#utility.yul\":17490:17562   */\n      tag_440\n        /* \"#utility.yul\":17558:17560   */\n      0x40\n        /* \"#utility.yul\":17547:17556   */\n      dup4\n        /* \"#utility.yul\":17543:17561   */\n      add\n        /* \"#utility.yul\":17534:17540   */\n      dup5\n        /* \"#utility.yul\":17490:17562   */\n      tag_417\n      jump\t// in\n    tag_440:\n        /* \"#utility.yul\":17127:17569   */\n      swap5\n      swap4\n      pop\n      pop\n      pop\n      pop\n      jump\t// out\n        /* \"#utility.yul\":17575:17797   */\n    tag_48:\n        /* \"#utility.yul\":17668:17672   */\n      0x00\n        /* \"#utility.yul\":17706:17708   */\n      0x20\n        /* \"#utility.yul\":17695:17704   */\n      dup3\n        /* \"#utility.yul\":17691:17709   */\n      add\n        /* \"#utility.yul\":17683:17709   */\n      swap1\n      pop\n        /* \"#utility.yul\":17719:17790   */\n      tag_442\n        /* \"#utility.yul\":17787:17788   */\n      0x00\n        /* \"#utility.yul\":17776:17785   */\n      dup4\n        /* \"#utility.yul\":17772:17789   */\n      add\n        /* \"#utility.yul\":17763:17769   */\n      dup5\n        /* \"#utility.yul\":17719:17790   */\n      tag_352\n      jump\t// in\n    tag_442:\n        /* \"#utility.yul\":17575:17797   */\n      swap3\n      swap2\n      pop\n      pop\n      jump\t// out\n        /* \"#utility.yul\":17803:18021   */\n    tag_27:\n        /* \"#utility.yul\":17894:17898   */\n      0x00\n        /* \"#utility.yul\":17932:17934   */\n      0x20\n        /* \"#utility.yul\":17921:17930   */\n      dup3\n        /* \"#utility.yul\":17917:17935   */\n      add\n        /* \"#utility.yul\":17909:17935   */\n      swap1\n      pop\n        /* \"#utility.yul\":17945:18014   */\n      tag_444\n        /* \"#utility.yul\":18011:18012   */\n      0x00\n        /* \"#utility.yul\":18000:18009   */\n      dup4\n        /* \"#utility.yul\":17996:18013   */\n      add\n        /* \"#utility.yul\":17987:17993   */\n      dup5\n        /* \"#utility.yul\":17945:18014   */\n      tag_360\n      jump\t// in\n    tag_444:\n        /* \"#utility.yul\":17803:18021   */\n      swap3\n      swap2\n      pop\n      pop\n      jump\t// out\n        /* \"#utility.yul\":18027:18446   */\n    tag_152:\n        /* \"#utility.yul\":18193:18197   */\n      0x00\n        /* \"#utility.yul\":18231:18233   */\n      0x20\n        /* \"#utility.yul\":18220:18229   */\n      dup3\n        /* \"#utility.yul\":18216:18234   */\n      add\n        /* \"#utility.yul\":18208:18234   */\n      swap1\n      pop\n        /* \"#utility.yul\":18280:18289   */\n      dup2\n        /* \"#utility.yul\":18274:18278   */\n      dup2\n        /* \"#utility.yul\":18270:18290   */\n      sub\n        /* \"#utility.yul\":18266:18267   */\n      0x00\n        /* \"#utility.yul\":18255:18264   */\n      dup4\n        /* \"#utility.yul\":18251:18268   */\n      add\n        /* \"#utility.yul\":18244:18291   */\n      mstore\n        /* \"#utility.yul\":18308:18439   */\n      tag_446\n        /* \"#utility.yul\":18434:18438   */\n      dup2\n        /* \"#utility.yul\":18308:18439   */\n      tag_384\n      jump\t// in\n    tag_446:\n        /* \"#utility.yul\":18300:18439   */\n      swap1\n      pop\n        /* \"#utility.yul\":18027:18446   */\n      swap2\n      swap1\n      pop\n      jump\t// out\n        /* \"#utility.yul\":18452:18869   */\n    tag_154:\n        /* \"#utility.yul\":18617:18621   */\n      0x00\n        /* \"#utility.yul\":18655:18657   */\n      0x20\n        /* \"#utility.yul\":18644:18653   */\n      dup3\n        /* \"#utility.yul\":18640:18658   */\n      add\n        /* \"#utility.yul\":18632:18658   */\n      swap1\n      pop\n        /* \"#utility.yul\":18704:18713   */\n      dup2\n        /* \"#utility.yul\":18698:18702   */\n      dup2\n        /* \"#utility.yul\":18694:18714   */\n      sub\n        /* \"#utility.yul\":18690:18691   */\n      0x00\n        /* \"#utility.yul\":18679:18688   */\n      dup4\n        /* \"#utility.yul\":18675:18692   */\n      add\n        /* \"#utility.yul\":18668:18715   */\n      mstore\n        /* \"#utility.yul\":18732:18862   */\n      tag_448\n        /* \"#utility.yul\":18857:18861   */\n      dup2\n        /* \"#utility.yul\":18848:18854   */\n      dup5\n        /* \"#utility.yul\":18732:18862   */\n      tag_394\n      jump\t// in\n    tag_448:\n        /* \"#utility.yul\":18724:18862   */\n      swap1\n      pop\n        /* \"#utility.yul\":18452:18869   */\n      swap3\n      swap2\n      pop\n      pop\n      jump\t// out\n        /* \"#utility.yul\":18875:19665   */\n    tag_87:\n        /* \"#utility.yul\":19018:19022   */\n      0x00\n        /* \"#utility.yul\":19024:19030   */\n      dup1\n        /* \"#utility.yul\":19080:19091   */\n      dup4\n        /* \"#utility.yul\":19067:19092   */\n      calldataload\n        /* \"#utility.yul\":19180:19181   */\n      0x01\n        /* \"#utility.yul\":19174:19178   */\n      0x20\n        /* \"#utility.yul\":19170:19182   */\n      sub\n        /* \"#utility.yul\":19159:19167   */\n      dup5\n        /* \"#utility.yul\":19143:19157   */\n      calldatasize\n        /* \"#utility.yul\":19139:19168   */\n      sub\n        /* \"#utility.yul\":19135:19183   */\n      sub\n        /* \"#utility.yul\":19115:19133   */\n      dup2\n        /* \"#utility.yul\":19111:19184   */\n      slt\n        /* \"#utility.yul\":19101:19269   */\n      tag_450\n      jumpi\n        /* \"#utility.yul\":19188:19267   */\n      tag_451\n      tag_452\n      jump\t// in\n    tag_451:\n        /* \"#utility.yul\":19101:19269   */\n    tag_450:\n        /* \"#utility.yul\":19300:19318   */\n      dup1\n        /* \"#utility.yul\":19290:19298   */\n      dup5\n        /* \"#utility.yul\":19286:19319   */\n      add\n        /* \"#utility.yul\":19278:19319   */\n      swap3\n      pop\n        /* \"#utility.yul\":19352:19356   */\n      dup3\n        /* \"#utility.yul\":19339:19357   */\n      calldataload\n        /* \"#utility.yul\":19329:19357   */\n      swap2\n      pop\n        /* \"#utility.yul\":19380:19398   */\n      0xffffffffffffffff\n        /* \"#utility.yul\":19372:19378   */\n      dup3\n        /* \"#utility.yul\":19369:19399   */\n      gt\n        /* \"#utility.yul\":19366:19483   */\n      iszero\n      tag_453\n      jumpi\n        /* \"#utility.yul\":19402:19481   */\n      tag_454\n      tag_455\n      jump\t// in\n    tag_454:\n        /* \"#utility.yul\":19366:19483   */\n    tag_453:\n        /* \"#utility.yul\":19510:19512   */\n      0x20\n        /* \"#utility.yul\":19504:19508   */\n      dup4\n        /* \"#utility.yul\":19500:19513   */\n      add\n        /* \"#utility.yul\":19492:19513   */\n      swap3\n      pop\n        /* \"#utility.yul\":19567:19571   */\n      0x40\n        /* \"#utility.yul\":19559:19565   */\n      dup3\n        /* \"#utility.yul\":19555:19572   */\n      mul\n        /* \"#utility.yul\":19539:19553   */\n      calldatasize\n        /* \"#utility.yul\":19535:19573   */\n      sub\n        /* \"#utility.yul\":19529:19533   */\n      dup4\n        /* \"#utility.yul\":19525:19574   */\n      sgt\n        /* \"#utility.yul\":19522:19658   */\n      iszero\n      tag_456\n      jumpi\n        /* \"#utility.yul\":19577:19656   */\n      tag_457\n      tag_458\n      jump\t// in\n    tag_457:\n        /* \"#utility.yul\":19522:19658   */\n    tag_456:\n        /* \"#utility.yul\":19031:19665   */\n      pop\n        /* \"#utility.yul\":18875:19665   */\n      swap3\n      pop\n      swap3\n      swap1\n      pop\n      jump\t// out\n        /* \"#utility.yul\":19671:20395   */\n    tag_140:\n        /* \"#utility.yul\":19748:19752   */\n      0x00\n        /* \"#utility.yul\":19754:19760   */\n      dup1\n        /* \"#utility.yul\":19810:19821   */\n      dup4\n        /* \"#utility.yul\":19797:19822   */\n      calldataload\n        /* \"#utility.yul\":19910:19911   */\n      0x01\n        /* \"#utility.yul\":19904:19908   */\n      0x20\n        /* \"#utility.yul\":19900:19912   */\n      sub\n        /* \"#utility.yul\":19889:19897   */\n      dup5\n        /* \"#utility.yul\":19873:19887   */\n      calldatasize\n        /* \"#utility.yul\":19869:19898   */\n      sub\n        /* \"#utility.yul\":19865:19913   */\n      sub\n        /* \"#utility.yul\":19845:19863   */\n      dup2\n        /* \"#utility.yul\":19841:19914   */\n      slt\n        /* \"#utility.yul\":19831:19999   */\n      tag_460\n      jumpi\n        /* \"#utility.yul\":19918:19997   */\n      tag_461\n      tag_452\n      jump\t// in\n    tag_461:\n        /* \"#utility.yul\":19831:19999   */\n    tag_460:\n        /* \"#utility.yul\":20030:20048   */\n      dup1\n        /* \"#utility.yul\":20020:20028   */\n      dup5\n        /* \"#utility.yul\":20016:20049   */\n      add\n        /* \"#utility.yul\":20008:20049   */\n      swap3\n      pop\n        /* \"#utility.yul\":20082:20086   */\n      dup3\n        /* \"#utility.yul\":20069:20087   */\n      calldataload\n        /* \"#utility.yul\":20059:20087   */\n      swap2\n      pop\n        /* \"#utility.yul\":20110:20128   */\n      0xffffffffffffffff\n        /* \"#utility.yul\":20102:20108   */\n      dup3\n        /* \"#utility.yul\":20099:20129   */\n      gt\n        /* \"#utility.yul\":20096:20213   */\n      iszero\n      tag_462\n      jumpi\n        /* \"#utility.yul\":20132:20211   */\n      tag_463\n      tag_455\n      jump\t// in\n    tag_463:\n        /* \"#utility.yul\":20096:20213   */\n    tag_462:\n        /* \"#utility.yul\":20240:20242   */\n      0x20\n        /* \"#utility.yul\":20234:20238   */\n      dup4\n        /* \"#utility.yul\":20230:20243   */\n      add\n        /* \"#utility.yul\":20222:20243   */\n      swap3\n      pop\n        /* \"#utility.yul\":20297:20301   */\n      0x01\n        /* \"#utility.yul\":20289:20295   */\n      dup3\n        /* \"#utility.yul\":20285:20302   */\n      mul\n        /* \"#utility.yul\":20269:20283   */\n      calldatasize\n        /* \"#utility.yul\":20265:20303   */\n      sub\n        /* \"#utility.yul\":20259:20263   */\n      dup4\n        /* \"#utility.yul\":20255:20304   */\n      sgt\n        /* \"#utility.yul\":20252:20388   */\n      iszero\n      tag_464\n      jumpi\n        /* \"#utility.yul\":20307:20386   */\n      tag_465\n      tag_458\n      jump\t// in\n    tag_465:\n        /* \"#utility.yul\":20252:20388   */\n    tag_464:\n        /* \"#utility.yul\":19761:20395   */\n      pop\n        /* \"#utility.yul\":19671:20395   */\n      swap3\n      pop\n      swap3\n      swap1\n      pop\n      jump\t// out\n        /* \"#utility.yul\":20482:20649   */\n    tag_341:\n        /* \"#utility.yul\":20584:20588   */\n      0x00\n        /* \"#utility.yul\":20607:20610   */\n      dup2\n        /* \"#utility.yul\":20599:20610   */\n      swap1\n      pop\n        /* \"#utility.yul\":20637:20641   */\n      0x20\n        /* \"#utility.yul\":20632:20635   */\n      dup3\n        /* \"#utility.yul\":20628:20642   */\n      add\n        /* \"#utility.yul\":20620:20642   */\n      swap1\n      pop\n        /* \"#utility.yul\":20482:20649   */\n      swap2\n      swap1\n      pop\n      jump\t// out\n        /* \"#utility.yul\":20747:20896   */\n    tag_337:\n        /* \"#utility.yul\":20849:20855   */\n      0x00\n        /* \"#utility.yul\":20883:20888   */\n      dup2\n        /* \"#utility.yul\":20877:20889   */\n      mload\n        /* \"#utility.yul\":20867:20889   */\n      swap1\n      pop\n        /* \"#utility.yul\":20747:20896   */\n      swap2\n      swap1\n      pop\n      jump\t// out\n        /* \"#utility.yul\":20902:20998   */\n    tag_472:\n        /* \"#utility.yul\":20960:20966   */\n      0x00\n        /* \"#utility.yul\":20988:20991   */\n      dup3\n        /* \"#utility.yul\":20978:20991   */\n      swap1\n      pop\n        /* \"#utility.yul\":20902:20998   */\n      swap3\n      swap2\n      pop\n      pop\n      jump\t// out\n        /* \"#utility.yul\":21004:21102   */\n    tag_367:\n        /* \"#utility.yul\":21055:21061   */\n      0x00\n        /* \"#utility.yul\":21089:21094   */\n      dup2\n        /* \"#utility.yul\":21083:21095   */\n      mload\n        /* \"#utility.yul\":21073:21095   */\n      swap1\n      pop\n        /* \"#utility.yul\":21004:21102   */\n      swap2\n      swap1\n      pop\n      jump\t// out\n        /* \"#utility.yul\":21108:21256   */\n    tag_347:\n        /* \"#utility.yul\":21213:21217   */\n      0x00\n        /* \"#utility.yul\":21245:21249   */\n      0x20\n        /* \"#utility.yul\":21240:21243   */\n      dup3\n        /* \"#utility.yul\":21236:21250   */\n      add\n        /* \"#utility.yul\":21228:21250   */\n      swap1\n      pop\n        /* \"#utility.yul\":21108:21256   */\n      swap2\n      swap1\n      pop\n      jump\t// out\n        /* \"#utility.yul\":21262:21471   */\n    tag_339:\n        /* \"#utility.yul\":21386:21397   */\n      0x00\n        /* \"#utility.yul\":21420:21426   */\n      dup3\n        /* \"#utility.yul\":21415:21418   */\n      dup3\n        /* \"#utility.yul\":21408:21427   */\n      mstore\n        /* \"#utility.yul\":21460:21464   */\n      0x20\n        /* \"#utility.yul\":21455:21458   */\n      dup3\n        /* \"#utility.yul\":21451:21465   */\n      add\n        /* \"#utility.yul\":21436:21465   */\n      swap1\n      pop\n        /* \"#utility.yul\":21262:21471   */\n      swap3\n      swap2\n      pop\n      pop\n      jump\t// out\n        /* \"#utility.yul\":21477:21635   */\n    tag_369:\n        /* \"#utility.yul\":21550:21561   */\n      0x00\n        /* \"#utility.yul\":21584:21590   */\n      dup3\n        /* \"#utility.yul\":21579:21582   */\n      dup3\n        /* \"#utility.yul\":21572:21591   */\n      mstore\n        /* \"#utility.yul\":21624:21628   */\n      0x20\n        /* \"#utility.yul\":21619:21622   */\n      dup3\n        /* \"#utility.yul\":21615:21629   */\n      add\n        /* \"#utility.yul\":21600:21629   */\n      swap1\n      pop\n        /* \"#utility.yul\":21477:21635   */\n      swap3\n      swap2\n      pop\n      pop\n      jump\t// out\n        /* \"#utility.yul\":21641:21788   */\n    tag_378:\n        /* \"#utility.yul\":21742:21753   */\n      0x00\n        /* \"#utility.yul\":21779:21782   */\n      dup2\n        /* \"#utility.yul\":21764:21782   */\n      swap1\n      pop\n        /* \"#utility.yul\":21641:21788   */\n      swap3\n      swap2\n      pop\n      pop\n      jump\t// out\n        /* \"#utility.yul\":21794:21963   */\n    tag_387:\n        /* \"#utility.yul\":21878:21889   */\n      0x00\n        /* \"#utility.yul\":21912:21918   */\n      dup3\n        /* \"#utility.yul\":21907:21910   */\n      dup3\n        /* \"#utility.yul\":21900:21919   */\n      mstore\n        /* \"#utility.yul\":21952:21956   */\n      0x20\n        /* \"#utility.yul\":21947:21950   */\n      dup3\n        /* \"#utility.yul\":21943:21957   */\n      add\n        /* \"#utility.yul\":21928:21957   */\n      swap1\n      pop\n        /* \"#utility.yul\":21794:21963   */\n      swap3\n      swap2\n      pop\n      pop\n      jump\t// out\n        /* \"#utility.yul\":21969:22438   */\n    tag_200:\n        /* \"#utility.yul\":22074:22083   */\n      0x00\n        /* \"#utility.yul\":22085:22094   */\n      dup1\n        /* \"#utility.yul\":22123:22131   */\n      dup6\n        /* \"#utility.yul\":22111:22121   */\n      dup6\n        /* \"#utility.yul\":22108:22132   */\n      gt\n        /* \"#utility.yul\":22105:22216   */\n      iszero\n      tag_481\n      jumpi\n        /* \"#utility.yul\":22135:22214   */\n      tag_482\n      tag_483\n      jump\t// in\n    tag_482:\n        /* \"#utility.yul\":22105:22216   */\n    tag_481:\n        /* \"#utility.yul\":22241:22247   */\n      dup4\n        /* \"#utility.yul\":22231:22239   */\n      dup7\n        /* \"#utility.yul\":22228:22248   */\n      gt\n        /* \"#utility.yul\":22225:22332   */\n      iszero\n      tag_484\n      jumpi\n        /* \"#utility.yul\":22251:22330   */\n      tag_485\n      tag_486\n      jump\t// in\n    tag_485:\n        /* \"#utility.yul\":22225:22332   */\n    tag_484:\n        /* \"#utility.yul\":22382:22383   */\n      0x01\n        /* \"#utility.yul\":22370:22380   */\n      dup6\n        /* \"#utility.yul\":22366:22384   */\n      mul\n        /* \"#utility.yul\":22358:22364   */\n      dup4\n        /* \"#utility.yul\":22354:22385   */\n      add\n        /* \"#utility.yul\":22341:22385   */\n      swap2\n      pop\n        /* \"#utility.yul\":22421:22431   */\n      dup5\n        /* \"#utility.yul\":22411:22419   */\n      dup7\n        /* \"#utility.yul\":22407:22432   */\n      sub\n        /* \"#utility.yul\":22394:22432   */\n      swap1\n      pop\n        /* \"#utility.yul\":21969:22438   */\n      swap5\n      pop\n      swap5\n      swap3\n      pop\n      pop\n      pop\n      jump\t// out\n        /* \"#utility.yul\":22444:22749   */\n    tag_148:\n        /* \"#utility.yul\":22484:22487   */\n      0x00\n        /* \"#utility.yul\":22503:22523   */\n      tag_488\n        /* \"#utility.yul\":22521:22522   */\n      dup3\n        /* \"#utility.yul\":22503:22523   */\n      tag_416\n      jump\t// in\n    tag_488:\n        /* \"#utility.yul\":22498:22523   */\n      swap2\n      pop\n        /* \"#utility.yul\":22537:22557   */\n      tag_489\n        /* \"#utility.yul\":22555:22556   */\n      dup4\n        /* \"#utility.yul\":22537:22557   */\n      tag_416\n      jump\t// in\n    tag_489:\n        /* \"#utility.yul\":22532:22557   */\n      swap3\n      pop\n        /* \"#utility.yul\":22691:22692   */\n      dup3\n        /* \"#utility.yul\":22623:22689   */\n      0xffffffffffffffffffffffffffffffffffffffffffffffffffffffffffffffff\n        /* \"#utility.yul\":22619:22693   */\n      sub\n        /* \"#utility.yul\":22616:22617   */\n      dup3\n        /* \"#utility.yul\":22613:22694   */\n      gt\n        /* \"#utility.yul\":22610:22717   */\n      iszero\n      tag_490\n      jumpi\n        /* \"#utility.yul\":22697:22715   */\n      tag_491\n      tag_492\n      jump\t// in\n    tag_491:\n        /* \"#utility.yul\":22610:22717   */\n    tag_490:\n        /* \"#utility.yul\":22741:22742   */\n      dup3\n        /* \"#utility.yul\":22738:22739   */\n      dup3\n        /* \"#utility.yul\":22734:22743   */\n      add\n        /* \"#utility.yul\":22727:22743   */\n      swap1\n      pop\n        /* \"#utility.yul\":22444:22749   */\n      swap3\n      swap2\n      pop\n      pop\n      jump\t// out\n        /* \"#utility.yul\":22755:22940   */\n    tag_193:\n        /* \"#utility.yul\":22795:22796   */\n      0x00\n        /* \"#utility.yul\":22812:22832   */\n      tag_494\n        /* \"#utility.yul\":22830:22831   */\n      dup3\n        /* \"#utility.yul\":22812:22832   */\n      tag_416\n      jump\t// in\n    tag_494:\n        /* \"#utility.yul\":22807:22832   */\n      swap2\n      pop\n        /* \"#utility.yul\":22846:22866   */\n      tag_495\n        /* \"#utility.yul\":22864:22865   */\n      dup4\n        /* \"#utility.yul\":22846:22866   */\n      tag_416\n      jump\t// in\n    tag_495:\n        /* \"#utility.yul\":22841:22866   */\n      swap3\n      pop\n        /* \"#utility.yul\":22885:22886   */\n      dup3\n        /* \"#utility.yul\":22875:22910   */\n      tag_496\n      jumpi\n        /* \"#utility.yul\":22890:22908   */\n      tag_497\n      tag_498\n      jump\t// in\n    tag_497:\n        /* \"#utility.yul\":22875:22910   */\n    tag_496:\n        /* \"#utility.yul\":22932:22933   */\n      dup3\n        /* \"#utility.yul\":22929:22930   */\n      dup3\n        /* \"#utility.yul\":22925:22934   */\n      div\n        /* \"#utility.yul\":22920:22934   */\n      swap1\n      pop\n        /* \"#utility.yul\":22755:22940   */\n      swap3\n      swap2\n      pop\n      pop\n      jump\t// out\n        /* \"#utility.yul\":22946:23294   */\n    tag_198:\n        /* \"#utility.yul\":22986:22993   */\n      0x00\n        /* \"#utility.yul\":23009:23029   */\n      tag_500\n        /* \"#utility.yul\":23027:23028   */\n      dup3\n        /* \"#utility.yul\":23009:23029   */\n      tag_416\n      jump\t// in\n    tag_500:\n        /* \"#utility.yul\":23004:23029   */\n      swap2\n      pop\n        /* \"#utility.yul\":23043:23063   */\n      tag_501\n        /* \"#utility.yul\":23061:23062   */\n      dup4\n        /* \"#utility.yul\":23043:23063   */\n      tag_416\n      jump\t// in\n    tag_501:\n        /* \"#utility.yul\":23038:23063   */\n      swap3\n      pop\n        /* \"#utility.yul\":23231:23232   */\n      dup2\n        /* \"#utility.yul\":23163:23229   */\n      0xffffffffffffffffffffffffffffffffffffffffffffffffffffffffffffffff\n        /* \"#utility.yul\":23159:23233   */\n      div\n        /* \"#utility.yul\":23156:23157   */\n      dup4\n        /* \"#utility.yul\":23153:23234   */\n      gt\n        /* \"#utility.yul\":23148:23149   */\n      dup3\n        /* \"#utility.yul\":23141:23150   */\n      iszero\n        /* \"#utility.yul\":23134:23151   */\n      iszero\n        /* \"#utility.yul\":23130:23235   */\n      and\n        /* \"#utility.yul\":23127:23258   */\n      iszero\n      tag_502\n      jumpi\n        /* \"#utility.yul\":23238:23256   */\n      tag_503\n      tag_492\n      jump\t// in\n    tag_503:\n        /* \"#utility.yul\":23127:23258   */\n    tag_502:\n        /* \"#utility.yul\":23286:23287   */\n      dup3\n        /* \"#utility.yul\":23283:23284   */\n      dup3\n        /* \"#utility.yul\":23279:23288   */\n      mul\n        /* \"#utility.yul\":23268:23288   */\n      swap1\n      pop\n        /* \"#utility.yul\":22946:23294   */\n      swap3\n      swap2\n      pop\n      pop\n      jump\t// out\n        /* \"#utility.yul\":23300:23491   */\n    tag_208:\n        /* \"#utility.yul\":23340:23344   */\n      0x00\n        /* \"#utility.yul\":23360:23380   */\n      tag_505\n        /* \"#utility.yul\":23378:23379   */\n      dup3\n        /* \"#utility.yul\":23360:23380   */\n      tag_416\n      jump\t// in\n    tag_505:\n        /* \"#utility.yul\":23355:23380   */\n      swap2\n      pop\n        /* \"#utility.yul\":23394:23414   */\n      tag_506\n        /* \"#utility.yul\":23412:23413   */\n      dup4\n        /* \"#utility.yul\":23394:23414   */\n      tag_416\n      jump\t// in\n    tag_506:\n        /* \"#utility.yul\":23389:23414   */\n      swap3\n      pop\n        /* \"#utility.yul\":23433:23434   */\n      dup3\n        /* \"#utility.yul\":23430:23431   */\n      dup3\n        /* \"#utility.yul\":23427:23435   */\n      lt\n        /* \"#utility.yul\":23424:23458   */\n      iszero\n      tag_507\n      jumpi\n        /* \"#utility.yul\":23438:23456   */\n      tag_508\n      tag_492\n      jump\t// in\n    tag_508:\n        /* \"#utility.yul\":23424:23458   */\n    tag_507:\n        /* \"#utility.yul\":23483:23484   */\n      dup3\n        /* \"#utility.yul\":23480:23481   */\n      dup3\n        /* \"#utility.yul\":23476:23485   */\n      sub\n        /* \"#utility.yul\":23468:23485   */\n      swap1\n      pop\n        /* \"#utility.yul\":23300:23491   */\n      swap3\n      swap2\n      pop\n      pop\n      jump\t// out\n        /* \"#utility.yul\":23497:23593   */\n    tag_330:\n        /* \"#utility.yul\":23534:23541   */\n      0x00\n        /* \"#utility.yul\":23563:23587   */\n      tag_510\n        /* \"#utility.yul\":23581:23586   */\n      dup3\n        /* \"#utility.yul\":23563:23587   */\n      tag_511\n      jump\t// in\n    tag_510:\n        /* \"#utility.yul\":23552:23587   */\n      swap1\n      pop\n        /* \"#utility.yul\":23497:23593   */\n      swap2\n      swap1\n      pop\n      jump\t// out\n        /* \"#utility.yul\":23599:23703   */\n    tag_326:\n        /* \"#utility.yul\":23644:23651   */\n      0x00\n        /* \"#utility.yul\":23673:23697   */\n      tag_513\n        /* \"#utility.yul\":23691:23696   */\n      dup3\n        /* \"#utility.yul\":23673:23697   */\n      tag_511\n      jump\t// in\n    tag_513:\n        /* \"#utility.yul\":23662:23697   */\n      swap1\n      pop\n        /* \"#utility.yul\":23599:23703   */\n      swap2\n      swap1\n      pop\n      jump\t// out\n        /* \"#utility.yul\":23709:23799   */\n    tag_514:\n        /* \"#utility.yul\":23743:23750   */\n      0x00\n        /* \"#utility.yul\":23786:23791   */\n      dup2\n        /* \"#utility.yul\":23779:23792   */\n      iszero\n        /* \"#utility.yul\":23772:23793   */\n      iszero\n        /* \"#utility.yul\":23761:23793   */\n      swap1\n      pop\n        /* \"#utility.yul\":23709:23799   */\n      swap2\n      swap1\n      pop\n      jump\t// out\n        /* \"#utility.yul\":23805:23954   */\n    tag_516:\n        /* \"#utility.yul\":23841:23848   */\n      0x00\n        /* \"#utility.yul\":23881:23947   */\n      0xff00000000000000000000000000000000000000000000000000000000000000\n        /* \"#utility.yul\":23874:23879   */\n      dup3\n        /* \"#utility.yul\":23870:23948   */\n      and\n        /* \"#utility.yul\":23859:23948   */\n      swap1\n      pop\n        /* \"#utility.yul\":23805:23954   */\n      swap2\n      swap1\n      pop\n      jump\t// out\n        /* \"#utility.yul\":23960:24109   */\n    tag_518:\n        /* \"#utility.yul\":23996:24003   */\n      0x00\n        /* \"#utility.yul\":24036:24102   */\n      0xffff000000000000000000000000000000000000000000000000000000000000\n        /* \"#utility.yul\":24029:24034   */\n      dup3\n        /* \"#utility.yul\":24025:24103   */\n      and\n        /* \"#utility.yul\":24014:24103   */\n      swap1\n      pop\n        /* \"#utility.yul\":23960:24109   */\n      swap2\n      swap1\n      pop\n      jump\t// out\n        /* \"#utility.yul\":24115:24265   */\n    tag_520:\n        /* \"#utility.yul\":24152:24159   */\n      0x00\n        /* \"#utility.yul\":24192:24258   */\n      0xffffffffffffffffffffffffffffffffffffffff000000000000000000000000\n        /* \"#utility.yul\":24185:24190   */\n      dup3\n        /* \"#utility.yul\":24181:24259   */\n      and\n        /* \"#utility.yul\":24170:24259   */\n      swap1\n      pop\n        /* \"#utility.yul\":24115:24265   */\n      swap2\n      swap1\n      pop\n      jump\t// out\n        /* \"#utility.yul\":24271:24348   */\n    tag_351:\n        /* \"#utility.yul\":24308:24315   */\n      0x00\n        /* \"#utility.yul\":24337:24342   */\n      dup2\n        /* \"#utility.yul\":24326:24342   */\n      swap1\n      pop\n        /* \"#utility.yul\":24271:24348   */\n      swap2\n      swap1\n      pop\n      jump\t// out\n        /* \"#utility.yul\":24354:24503   */\n    tag_363:\n        /* \"#utility.yul\":24390:24397   */\n      0x00\n        /* \"#utility.yul\":24430:24496   */\n      0xffffffff00000000000000000000000000000000000000000000000000000000\n        /* \"#utility.yul\":24423:24428   */\n      dup3\n        /* \"#utility.yul\":24419:24497   */\n      and\n        /* \"#utility.yul\":24408:24497   */\n      swap1\n      pop\n        /* \"#utility.yul\":24354:24503   */\n      swap2\n      swap1\n      pop\n      jump\t// out\n        /* \"#utility.yul\":24509:24654   */\n    tag_524:\n        /* \"#utility.yul\":24563:24570   */\n      0x00\n        /* \"#utility.yul\":24592:24597   */\n      dup2\n        /* \"#utility.yul\":24581:24597   */\n      swap1\n      pop\n        /* \"#utility.yul\":24598:24648   */\n      tag_526\n        /* \"#utility.yul\":24642:24647   */\n      dup3\n        /* \"#utility.yul\":24598:24648   */\n      tag_527\n      jump\t// in\n    tag_526:\n        /* \"#utility.yul\":24509:24654   */\n      swap2\n      swap1\n      pop\n      jump\t// out\n        /* \"#utility.yul\":24660:24786   */\n    tag_511:\n        /* \"#utility.yul\":24697:24704   */\n      0x00\n        /* \"#utility.yul\":24737:24779   */\n      0xffffffffffffffffffffffffffffffffffffffff\n        /* \"#utility.yul\":24730:24735   */\n      dup3\n        /* \"#utility.yul\":24726:24780   */\n      and\n        /* \"#utility.yul\":24715:24780   */\n      swap1\n      pop\n        /* \"#utility.yul\":24660:24786   */\n      swap2\n      swap1\n      pop\n      jump\t// out\n        /* \"#utility.yul\":24792:24869   */\n    tag_416:\n        /* \"#utility.yul\":24829:24836   */\n      0x00\n        /* \"#utility.yul\":24858:24863   */\n      dup2\n        /* \"#utility.yul\":24847:24863   */\n      swap1\n      pop\n        /* \"#utility.yul\":24792:24869   */\n      swap2\n      swap1\n      pop\n      jump\t// out\n        /* \"#utility.yul\":24875:25427   */\n    tag_202:\n        /* \"#utility.yul\":24966:24971   */\n      0x00\n        /* \"#utility.yul\":24997:25042   */\n      tag_531\n        /* \"#utility.yul\":25038:25041   */\n      dup4\n        /* \"#utility.yul\":25031:25036   */\n      dup4\n        /* \"#utility.yul\":24997:25042   */\n      tag_472\n      jump\t// in\n    tag_531:\n        /* \"#utility.yul\":25067:25072   */\n      dup3\n        /* \"#utility.yul\":25091:25132   */\n      tag_532\n        /* \"#utility.yul\":25122:25130   */\n      dup2\n        /* \"#utility.yul\":25109:25131   */\n      calldataload\n        /* \"#utility.yul\":25091:25132   */\n      tag_351\n      jump\t// in\n    tag_532:\n        /* \"#utility.yul\":25082:25132   */\n      swap3\n      pop\n        /* \"#utility.yul\":25156:25158   */\n      0x20\n        /* \"#utility.yul\":25148:25154   */\n      dup3\n        /* \"#utility.yul\":25145:25159   */\n      lt\n        /* \"#utility.yul\":25142:25420   */\n      iszero\n      tag_533\n      jumpi\n        /* \"#utility.yul\":25227:25396   */\n      tag_534\n        /* \"#utility.yul\":25312:25378   */\n      0xffffffffffffffffffffffffffffffffffffffffffffffffffffffffffffffff\n        /* \"#utility.yul\":25282:25288   */\n      dup4\n        /* \"#utility.yul\":25278:25280   */\n      0x20\n        /* \"#utility.yul\":25274:25289   */\n      sub\n        /* \"#utility.yul\":25271:25272   */\n      0x08\n        /* \"#utility.yul\":25267:25290   */\n      mul\n        /* \"#utility.yul\":25227:25396   */\n      tag_535\n      jump\t// in\n    tag_534:\n        /* \"#utility.yul\":25204:25209   */\n      dup4\n        /* \"#utility.yul\":25183:25410   */\n      and\n        /* \"#utility.yul\":25174:25410   */\n      swap3\n      pop\n        /* \"#utility.yul\":25142:25420   */\n    tag_533:\n        /* \"#utility.yul\":24972:25427   */\n      pop\n      pop\n        /* \"#utility.yul\":24875:25427   */\n      swap3\n      swap2\n      pop\n      pop\n      jump\t// out\n        /* \"#utility.yul\":25433:25567   */\n    tag_322:\n        /* \"#utility.yul\":25491:25500   */\n      0x00\n        /* \"#utility.yul\":25524:25561   */\n      tag_537\n        /* \"#utility.yul\":25555:25560   */\n      dup3\n        /* \"#utility.yul\":25524:25561   */\n      tag_538\n      jump\t// in\n    tag_537:\n        /* \"#utility.yul\":25511:25561   */\n      swap1\n      pop\n        /* \"#utility.yul\":25433:25567   */\n      swap2\n      swap1\n      pop\n      jump\t// out\n        /* \"#utility.yul\":25573:25718   */\n    tag_383:\n        /* \"#utility.yul\":25638:25647   */\n      0x00\n        /* \"#utility.yul\":25671:25712   */\n      tag_540\n        /* \"#utility.yul\":25706:25711   */\n      dup3\n        /* \"#utility.yul\":25671:25712   */\n      tag_524\n      jump\t// in\n    tag_540:\n        /* \"#utility.yul\":25658:25712   */\n      swap1\n      pop\n        /* \"#utility.yul\":25573:25718   */\n      swap2\n      swap1\n      pop\n      jump\t// out\n        /* \"#utility.yul\":25724:25850   */\n    tag_538:\n        /* \"#utility.yul\":25774:25783   */\n      0x00\n        /* \"#utility.yul\":25807:25844   */\n      tag_542\n        /* \"#utility.yul\":25838:25843   */\n      dup3\n        /* \"#utility.yul\":25807:25844   */\n      tag_543\n      jump\t// in\n    tag_542:\n        /* \"#utility.yul\":25794:25844   */\n      swap1\n      pop\n        /* \"#utility.yul\":25724:25850   */\n      swap2\n      swap1\n      pop\n      jump\t// out\n        /* \"#utility.yul\":25856:25969   */\n    tag_543:\n        /* \"#utility.yul\":25906:25915   */\n      0x00\n        /* \"#utility.yul\":25939:25963   */\n      tag_545\n        /* \"#utility.yul\":25957:25962   */\n      dup3\n        /* \"#utility.yul\":25939:25963   */\n      tag_511\n      jump\t// in\n    tag_545:\n        /* \"#utility.yul\":25926:25963   */\n      swap1\n      pop\n        /* \"#utility.yul\":25856:25969   */\n      swap2\n      swap1\n      pop\n      jump\t// out\n        /* \"#utility.yul\":25975:26282   */\n    tag_371:\n        /* \"#utility.yul\":26043:26044   */\n      0x00\n        /* \"#utility.yul\":26053:26166   */\n    tag_547:\n        /* \"#utility.yul\":26067:26073   */\n      dup4\n        /* \"#utility.yul\":26064:26065   */\n      dup2\n        /* \"#utility.yul\":26061:26074   */\n      lt\n        /* \"#utility.yul\":26053:26166   */\n      iszero\n      tag_549\n      jumpi\n        /* \"#utility.yul\":26152:26153   */\n      dup1\n        /* \"#utility.yul\":26147:26150   */\n      dup3\n        /* \"#utility.yul\":26143:26154   */\n      add\n        /* \"#utility.yul\":26137:26155   */\n      mload\n        /* \"#utility.yul\":26133:26134   */\n      dup2\n        /* \"#utility.yul\":26128:26131   */\n      dup5\n        /* \"#utility.yul\":26124:26135   */\n      add\n        /* \"#utility.yul\":26117:26156   */\n      mstore\n        /* \"#utility.yul\":26089:26091   */\n      0x20\n        /* \"#utility.yul\":26086:26087   */\n      dup2\n        /* \"#utility.yul\":26082:26092   */\n      add\n        /* \"#utility.yul\":26077:26092   */\n      swap1\n      pop\n        /* \"#utility.yul\":26053:26166   */\n      jump(tag_547)\n    tag_549:\n        /* \"#utility.yul\":26184:26190   */\n      dup4\n        /* \"#utility.yul\":26181:26182   */\n      dup2\n        /* \"#utility.yul\":26178:26191   */\n      gt\n        /* \"#utility.yul\":26175:26276   */\n      iszero\n      tag_550\n      jumpi\n        /* \"#utility.yul\":26264:26265   */\n      0x00\n        /* \"#utility.yul\":26255:26261   */\n      dup5\n        /* \"#utility.yul\":26250:26253   */\n      dup5\n        /* \"#utility.yul\":26246:26262   */\n      add\n        /* \"#utility.yul\":26239:26266   */\n      mstore\n        /* \"#utility.yul\":26175:26276   */\n    tag_550:\n        /* \"#utility.yul\":26024:26282   */\n      pop\n        /* \"#utility.yul\":25975:26282   */\n      pop\n      pop\n      pop\n      jump\t// out\n        /* \"#utility.yul\":26288:26521   */\n    tag_102:\n        /* \"#utility.yul\":26327:26330   */\n      0x00\n        /* \"#utility.yul\":26350:26374   */\n      tag_552\n        /* \"#utility.yul\":26368:26373   */\n      dup3\n        /* \"#utility.yul\":26350:26374   */\n      tag_416\n      jump\t// in\n    tag_552:\n        /* \"#utility.yul\":26341:26374   */\n      swap2\n      pop\n        /* \"#utility.yul\":26396:26462   */\n      0xffffffffffffffffffffffffffffffffffffffffffffffffffffffffffffffff\n        /* \"#utility.yul\":26389:26394   */\n      dup3\n        /* \"#utility.yul\":26386:26463   */\n      eq\n        /* \"#utility.yul\":26383:26486   */\n      iszero\n      tag_553\n      jumpi\n        /* \"#utility.yul\":26466:26484   */\n      tag_554\n      tag_492\n      jump\t// in\n    tag_554:\n        /* \"#utility.yul\":26383:26486   */\n    tag_553:\n        /* \"#utility.yul\":26513:26514   */\n      0x01\n        /* \"#utility.yul\":26506:26511   */\n      dup3\n        /* \"#utility.yul\":26502:26515   */\n      add\n        /* \"#utility.yul\":26495:26515   */\n      swap1\n      pop\n        /* \"#utility.yul\":26288:26521   */\n      swap2\n      swap1\n      pop\n      jump\t// out\n        /* \"#utility.yul\":26527:26606   */\n    tag_359:\n        /* \"#utility.yul\":26566:26573   */\n      0x00\n        /* \"#utility.yul\":26595:26600   */\n      dup2\n        /* \"#utility.yul\":26584:26600   */\n      swap1\n      pop\n        /* \"#utility.yul\":26527:26606   */\n      swap2\n      swap1\n      pop\n      jump\t// out\n        /* \"#utility.yul\":26612:26691   */\n    tag_424:\n        /* \"#utility.yul\":26651:26658   */\n      0x00\n        /* \"#utility.yul\":26680:26685   */\n      dup2\n        /* \"#utility.yul\":26669:26685   */\n      swap1\n      pop\n        /* \"#utility.yul\":26612:26691   */\n      swap2\n      swap1\n      pop\n      jump\t// out\n        /* \"#utility.yul\":26697:26877   */\n    tag_492:\n        /* \"#utility.yul\":26745:26822   */\n      0x4e487b7100000000000000000000000000000000000000000000000000000000\n        /* \"#utility.yul\":26742:26743   */\n      0x00\n        /* \"#utility.yul\":26735:26823   */\n      mstore\n        /* \"#utility.yul\":26842:26846   */\n      0x11\n        /* \"#utility.yul\":26839:26840   */\n      0x04\n        /* \"#utility.yul\":26832:26847   */\n      mstore\n        /* \"#utility.yul\":26866:26870   */\n      0x24\n        /* \"#utility.yul\":26863:26864   */\n      0x00\n        /* \"#utility.yul\":26856:26871   */\n      revert\n        /* \"#utility.yul\":26883:27063   */\n    tag_498:\n        /* \"#utility.yul\":26931:27008   */\n      0x4e487b7100000000000000000000000000000000000000000000000000000000\n        /* \"#utility.yul\":26928:26929   */\n      0x00\n        /* \"#utility.yul\":26921:27009   */\n      mstore\n        /* \"#utility.yul\":27028:27032   */\n      0x12\n        /* \"#utility.yul\":27025:27026   */\n      0x04\n        /* \"#utility.yul\":27018:27033   */\n      mstore\n        /* \"#utility.yul\":27052:27056   */\n      0x24\n        /* \"#utility.yul\":27049:27050   */\n      0x00\n        /* \"#utility.yul\":27042:27057   */\n      revert\n        /* \"#utility.yul\":27069:27249   */\n    tag_124:\n        /* \"#utility.yul\":27117:27194   */\n      0x4e487b7100000000000000000000000000000000000000000000000000000000\n        /* \"#utility.yul\":27114:27115   */\n      0x00\n        /* \"#utility.yul\":27107:27195   */\n      mstore\n        /* \"#utility.yul\":27214:27218   */\n      0x21\n        /* \"#utility.yul\":27211:27212   */\n      0x04\n        /* \"#utility.yul\":27204:27219   */\n      mstore\n        /* \"#utility.yul\":27238:27242   */\n      0x24\n        /* \"#utility.yul\":27235:27236   */\n      0x00\n        /* \"#utility.yul\":27228:27243   */\n      revert\n        /* \"#utility.yul\":27255:27435   */\n    tag_90:\n        /* \"#utility.yul\":27303:27380   */\n      0x4e487b7100000000000000000000000000000000000000000000000000000000\n        /* \"#utility.yul\":27300:27301   */\n      0x00\n        /* \"#utility.yul\":27293:27381   */\n      mstore\n        /* \"#utility.yul\":27400:27404   */\n      0x32\n        /* \"#utility.yul\":27397:27398   */\n      0x04\n        /* \"#utility.yul\":27390:27405   */\n      mstore\n        /* \"#utility.yul\":27424:27428   */\n      0x24\n        /* \"#utility.yul\":27421:27422   */\n      0x00\n        /* \"#utility.yul\":27414:27429   */\n      revert\n        /* \"#utility.yul\":27441:27621   */\n    tag_77:\n        /* \"#utility.yul\":27489:27566   */\n      0x4e487b7100000000000000000000000000000000000000000000000000000000\n        /* \"#utility.yul\":27486:27487   */\n      0x00\n        /* \"#utility.yul\":27479:27567   */\n      mstore\n        /* \"#utility.yul\":27586:27590   */\n      0x41\n        /* \"#utility.yul\":27583:27584   */\n      0x04\n        /* \"#utility.yul\":27576:27591   */\n      mstore\n        /* \"#utility.yul\":27610:27614   */\n      0x24\n        /* \"#utility.yul\":27607:27608   */\n      0x00\n        /* \"#utility.yul\":27600:27615   */\n      revert\n        /* \"#utility.yul\":27627:27744   */\n    tag_250:\n        /* \"#utility.yul\":27736:27737   */\n      0x00\n        /* \"#utility.yul\":27733:27734   */\n      dup1\n        /* \"#utility.yul\":27726:27738   */\n      revert\n        /* \"#utility.yul\":27750:27867   */\n    tag_247:\n        /* \"#utility.yul\":27859:27860   */\n      0x00\n        /* \"#utility.yul\":27856:27857   */\n      dup1\n        /* \"#utility.yul\":27849:27861   */\n      revert\n        /* \"#utility.yul\":27873:27990   */\n    tag_455:\n        /* \"#utility.yul\":27982:27983   */\n      0x00\n        /* \"#utility.yul\":27979:27980   */\n      dup1\n        /* \"#utility.yul\":27972:27984   */\n      revert\n        /* \"#utility.yul\":27996:28113   */\n    tag_258:\n        /* \"#utility.yul\":28105:28106   */\n      0x00\n        /* \"#utility.yul\":28102:28103   */\n      dup1\n        /* \"#utility.yul\":28095:28107   */\n      revert\n        /* \"#utility.yul\":28119:28236   */\n    tag_452:\n        /* \"#utility.yul\":28228:28229   */\n      0x00\n        /* \"#utility.yul\":28225:28226   */\n      dup1\n        /* \"#utility.yul\":28218:28230   */\n      revert\n        /* \"#utility.yul\":28242:28359   */\n    tag_486:\n        /* \"#utility.yul\":28351:28352   */\n      0x00\n        /* \"#utility.yul\":28348:28349   */\n      dup1\n        /* \"#utility.yul\":28341:28353   */\n      revert\n        /* \"#utility.yul\":28365:28482   */\n    tag_483:\n        /* \"#utility.yul\":28474:28475   */\n      0x00\n        /* \"#utility.yul\":28471:28472   */\n      dup1\n        /* \"#utility.yul\":28464:28476   */\n      revert\n        /* \"#utility.yul\":28488:28605   */\n    tag_253:\n        /* \"#utility.yul\":28597:28598   */\n      0x00\n        /* \"#utility.yul\":28594:28595   */\n      dup1\n        /* \"#utility.yul\":28587:28599   */\n      revert\n        /* \"#utility.yul\":28611:28728   */\n    tag_458:\n        /* \"#utility.yul\":28720:28721   */\n      0x00\n        /* \"#utility.yul\":28717:28718   */\n      dup1\n        /* \"#utility.yul\":28710:28722   */\n      revert\n        /* \"#utility.yul\":28734:28851   */\n    tag_286:\n        /* \"#utility.yul\":28843:28844   */\n      0x00\n        /* \"#utility.yul\":28840:28841   */\n      dup1\n        /* \"#utility.yul\":28833:28845   */\n      revert\n        /* \"#utility.yul\":28857:28974   */\n    tag_266:\n        /* \"#utility.yul\":28966:28967   */\n      0x00\n        /* \"#utility.yul\":28963:28964   */\n      dup1\n        /* \"#utility.yul\":28956:28968   */\n      revert\n        /* \"#utility.yul\":28980:29082   */\n    tag_373:\n        /* \"#utility.yul\":29021:29027   */\n      0x00\n        /* \"#utility.yul\":29072:29074   */\n      0x1f\n        /* \"#utility.yul\":29068:29075   */\n      not\n        /* \"#utility.yul\":29063:29065   */\n      0x1f\n        /* \"#utility.yul\":29056:29061   */\n      dup4\n        /* \"#utility.yul\":29052:29066   */\n      add\n        /* \"#utility.yul\":29048:29076   */\n      and\n        /* \"#utility.yul\":29038:29076   */\n      swap1\n      pop\n        /* \"#utility.yul\":28980:29082   */\n      swap2\n      swap1\n      pop\n      jump\t// out\n        /* \"#utility.yul\":29088:29195   */\n    tag_535:\n        /* \"#utility.yul\":29132:29140   */\n      0x00\n        /* \"#utility.yul\":29182:29187   */\n      dup3\n        /* \"#utility.yul\":29176:29180   */\n      dup3\n        /* \"#utility.yul\":29172:29188   */\n      shl\n        /* \"#utility.yul\":29151:29188   */\n      swap1\n      pop\n        /* \"#utility.yul\":29088:29195   */\n      swap3\n      swap2\n      pop\n      pop\n      jump\t// out\n        /* \"#utility.yul\":29201:29369   */\n    tag_389:\n        /* \"#utility.yul\":29341:29361   */\n      0x496e73756666696369656e742066756e64730000000000000000000000000000\n        /* \"#utility.yul\":29337:29338   */\n      0x00\n        /* \"#utility.yul\":29329:29335   */\n      dup3\n        /* \"#utility.yul\":29325:29339   */\n      add\n        /* \"#utility.yul\":29318:29362   */\n      mstore\n        /* \"#utility.yul\":29201:29369   */\n      pop\n      jump\t// out\n        /* \"#utility.yul\":29375:29498   */\n    tag_527:\n        /* \"#utility.yul\":29465:29467   */\n      0x18\n        /* \"#utility.yul\":29458:29463   */\n      dup2\n        /* \"#utility.yul\":29455:29468   */\n      lt\n        /* \"#utility.yul\":29445:29492   */\n      tag_577\n      jumpi\n        /* \"#utility.yul\":29472:29490   */\n      tag_578\n      tag_124\n      jump\t// in\n    tag_578:\n        /* \"#utility.yul\":29445:29492   */\n    tag_577:\n        /* \"#utility.yul\":29375:29498   */\n      pop\n      jump\t// out\n        /* \"#utility.yul\":29504:29626   */\n    tag_214:\n        /* \"#utility.yul\":29577:29601   */\n      tag_580\n        /* \"#utility.yul\":29595:29600   */\n      dup2\n        /* \"#utility.yul\":29577:29601   */\n      tag_330\n      jump\t// in\n    tag_580:\n        /* \"#utility.yul\":29570:29575   */\n      dup2\n        /* \"#utility.yul\":29567:29602   */\n      eq\n        /* \"#utility.yul\":29557:29620   */\n      tag_581\n      jumpi\n        /* \"#utility.yul\":29616:29617   */\n      0x00\n        /* \"#utility.yul\":29613:29614   */\n      dup1\n        /* \"#utility.yul\":29606:29618   */\n      revert\n        /* \"#utility.yul\":29557:29620   */\n    tag_581:\n        /* \"#utility.yul\":29504:29626   */\n      pop\n      jump\t// out\n        /* \"#utility.yul\":29632:29770   */\n    tag_218:\n        /* \"#utility.yul\":29713:29745   */\n      tag_583\n        /* \"#utility.yul\":29739:29744   */\n      dup2\n        /* \"#utility.yul\":29713:29745   */\n      tag_326\n      jump\t// in\n    tag_583:\n        /* \"#utility.yul\":29706:29711   */\n      dup2\n        /* \"#utility.yul\":29703:29746   */\n      eq\n        /* \"#utility.yul\":29693:29764   */\n      tag_584\n      jumpi\n        /* \"#utility.yul\":29760:29761   */\n      0x00\n        /* \"#utility.yul\":29757:29758   */\n      dup1\n        /* \"#utility.yul\":29750:29762   */\n      revert\n        /* \"#utility.yul\":29693:29764   */\n    tag_584:\n        /* \"#utility.yul\":29632:29770   */\n      pop\n      jump\t// out\n        /* \"#utility.yul\":29776:29892   */\n    tag_222:\n        /* \"#utility.yul\":29846:29867   */\n      tag_586\n        /* \"#utility.yul\":29861:29866   */\n      dup2\n        /* \"#utility.yul\":29846:29867   */\n      tag_514\n      jump\t// in\n    tag_586:\n        /* \"#utility.yul\":29839:29844   */\n      dup2\n        /* \"#utility.yul\":29836:29868   */\n      eq\n        /* \"#utility.yul\":29826:29886   */\n      tag_587\n      jumpi\n        /* \"#utility.yul\":29882:29883   */\n      0x00\n        /* \"#utility.yul\":29879:29880   */\n      dup1\n        /* \"#utility.yul\":29872:29884   */\n      revert\n        /* \"#utility.yul\":29826:29886   */\n    tag_587:\n        /* \"#utility.yul\":29776:29892   */\n      pop\n      jump\t// out\n        /* \"#utility.yul\":29898:30018   */\n    tag_226:\n        /* \"#utility.yul\":29970:29993   */\n      tag_589\n        /* \"#utility.yul\":29987:29992   */\n      dup2\n        /* \"#utility.yul\":29970:29993   */\n      tag_516\n      jump\t// in\n    tag_589:\n        /* \"#utility.yul\":29963:29968   */\n      dup2\n        /* \"#utility.yul\":29960:29994   */\n      eq\n        /* \"#utility.yul\":29950:30012   */\n      tag_590\n      jumpi\n        /* \"#utility.yul\":30008:30009   */\n      0x00\n        /* \"#utility.yul\":30005:30006   */\n      dup1\n        /* \"#utility.yul\":29998:30010   */\n      revert\n        /* \"#utility.yul\":29950:30012   */\n    tag_590:\n        /* \"#utility.yul\":29898:30018   */\n      pop\n      jump\t// out\n        /* \"#utility.yul\":30024:30144   */\n    tag_230:\n        /* \"#utility.yul\":30096:30119   */\n      tag_592\n        /* \"#utility.yul\":30113:30118   */\n      dup2\n        /* \"#utility.yul\":30096:30119   */\n      tag_518\n      jump\t// in\n    tag_592:\n        /* \"#utility.yul\":30089:30094   */\n      dup2\n        /* \"#utility.yul\":30086:30120   */\n      eq\n        /* \"#utility.yul\":30076:30138   */\n      tag_593\n      jumpi\n        /* \"#utility.yul\":30134:30135   */\n      0x00\n        /* \"#utility.yul\":30131:30132   */\n      dup1\n        /* \"#utility.yul\":30124:30136   */\n      revert\n        /* \"#utility.yul\":30076:30138   */\n    tag_593:\n        /* \"#utility.yul\":30024:30144   */\n      pop\n      jump\t// out\n        /* \"#utility.yul\":30150:30272   */\n    tag_234:\n        /* \"#utility.yul\":30223:30247   */\n      tag_595\n        /* \"#utility.yul\":30241:30246   */\n      dup2\n        /* \"#utility.yul\":30223:30247   */\n      tag_520\n      jump\t// in\n    tag_595:\n        /* \"#utility.yul\":30216:30221   */\n      dup2\n        /* \"#utility.yul\":30213:30248   */\n      eq\n        /* \"#utility.yul\":30203:30266   */\n      tag_596\n      jumpi\n        /* \"#utility.yul\":30262:30263   */\n      0x00\n        /* \"#utility.yul\":30259:30260   */\n      dup1\n        /* \"#utility.yul\":30252:30264   */\n      revert\n        /* \"#utility.yul\":30203:30266   */\n    tag_596:\n        /* \"#utility.yul\":30150:30272   */\n      pop\n      jump\t// out\n        /* \"#utility.yul\":30278:30400   */\n    tag_238:\n        /* \"#utility.yul\":30351:30375   */\n      tag_598\n        /* \"#utility.yul\":30369:30374   */\n      dup2\n        /* \"#utility.yul\":30351:30375   */\n      tag_351\n      jump\t// in\n    tag_598:\n        /* \"#utility.yul\":30344:30349   */\n      dup2\n        /* \"#utility.yul\":30341:30376   */\n      eq\n        /* \"#utility.yul\":30331:30394   */\n      tag_599\n      jumpi\n        /* \"#utility.yul\":30390:30391   */\n      0x00\n        /* \"#utility.yul\":30387:30388   */\n      dup1\n        /* \"#utility.yul\":30380:30392   */\n      revert\n        /* \"#utility.yul\":30331:30394   */\n    tag_599:\n        /* \"#utility.yul\":30278:30400   */\n      pop\n      jump\t// out\n        /* \"#utility.yul\":30406:30526   */\n    tag_242:\n        /* \"#utility.yul\":30478:30501   */\n      tag_601\n        /* \"#utility.yul\":30495:30500   */\n      dup2\n        /* \"#utility.yul\":30478:30501   */\n      tag_363\n      jump\t// in\n    tag_601:\n        /* \"#utility.yul\":30471:30476   */\n      dup2\n        /* \"#utility.yul\":30468:30502   */\n      eq\n        /* \"#utility.yul\":30458:30520   */\n      tag_602\n      jumpi\n        /* \"#utility.yul\":30516:30517   */\n      0x00\n        /* \"#utility.yul\":30513:30514   */\n      dup1\n        /* \"#utility.yul\":30506:30518   */\n      revert\n        /* \"#utility.yul\":30458:30520   */\n    tag_602:\n        /* \"#utility.yul\":30406:30526   */\n      pop\n      jump\t// out\n        /* \"#utility.yul\":30532:30654   */\n    tag_262:\n        /* \"#utility.yul\":30605:30629   */\n      tag_604\n        /* \"#utility.yul\":30623:30628   */\n      dup2\n        /* \"#utility.yul\":30605:30629   */\n      tag_416\n      jump\t// in\n    tag_604:\n        /* \"#utility.yul\":30598:30603   */\n      dup2\n        /* \"#utility.yul\":30595:30630   */\n      eq\n        /* \"#utility.yul\":30585:30648   */\n      tag_605\n      jumpi\n        /* \"#utility.yul\":30644:30645   */\n      0x00\n        /* \"#utility.yul\":30641:30642   */\n      dup1\n        /* \"#utility.yul\":30634:30646   */\n      revert\n        /* \"#utility.yul\":30585:30648   */\n    tag_605:\n        /* \"#utility.yul\":30532:30654   */\n      pop\n      jump\t// out\n\n    auxdata: 0xa26469706673582212202d0a21817b44aa67e13cc0e80d89c6b26c1795e5f7f4cd625a5feb054ae4ba5f64736f6c63430008070033\n}\n",
				"bytecode": {
					"linkReferences": {},
					"object": "60806040523480156200001157600080fd5b50336000806101000a81548173ffffffffffffffffffffffffffffffffffffffff021916908373ffffffffffffffffffffffffffffffffffffffff16021790555033600160006101000a81548173ffffffffffffffffffffffffffffffffffffffff021916908373ffffffffffffffffffffffffffffffffffffffff1602179055504244604051602001620000a8929190620000e5565b6040516020818303038152906040528051906020012060028190555062000129565b620000df620000d98262000115565b6200011f565b82525050565b6000620000f38285620000ca565b602082019150620001058284620000ca565b6020820191508190509392505050565b6000819050919050565b6000819050919050565b611d5380620001396000396000f3fe6080604052600436106100945760003560e01c806371d303501161005957806371d303501461016d57806382678dd614610184578063893d20e8146101af578063f5537ede146101da578063fa09e6301461020357610095565b8062f55d9d14610097578063150b7a02146100c05780631b88094d146100fd5780633bbed4a0146101285780634b5d60b41461015157610095565b5b005b3480156100a357600080fd5b506100be60048036038101906100b99190610e9b565b61022c565b005b3480156100cc57600080fd5b506100e760048036038101906100e29190610f48565b61029d565b6040516100f49190611584565b60405180910390f35b34801561010957600080fd5b506101126102b2565b60405161011f91906114e0565b60405180910390f35b34801561013457600080fd5b5061014f600480360381019061014a9190610e9b565b610335565b005b61016b60048036038101906101669190611084565b6103d1565b005b34801561017957600080fd5b5061018261097f565b005b34801561019057600080fd5b50610199610a08565b6040516101a69190611569565b60405180910390f35b3480156101bb57600080fd5b506101c4610a6b565b6040516101d191906114e0565b60405180910390f35b3480156101e657600080fd5b5061020160048036038101906101fc9190610ef5565b610a94565b005b34801561020f57600080fd5b5061022a60048036038101906102259190610ec8565b610b60565b005b60008054906101000a900473ffffffffffffffffffffffffffffffffffffffff1673ffffffffffffffffffffffffffffffffffffffff163373ffffffffffffffffffffffffffffffffffffffff161461028457600080fd5b8073ffffffffffffffffffffffffffffffffffffffff16ff5b600063150b7a0260e01b905095945050505050565b60008060009054906101000a900473ffffffffffffffffffffffffffffffffffffffff1673ffffffffffffffffffffffffffffffffffffffff163373ffffffffffffffffffffffffffffffffffffffff161461030d57600080fd5b600160009054906101000a900473ffffffffffffffffffffffffffffffffffffffff16905090565b60008054906101000a900473ffffffffffffffffffffffffffffffffffffffff1673ffffffffffffffffffffffffffffffffffffffff163373ffffffffffffffffffffffffffffffffffffffff161461038d57600080fd5b80600160006101000a81548173ffffffffffffffffffffffffffffffffffffffff021916908373ffffffffffffffffffffffffffffffffffffffff16021790555050565b60006002548318905060006103f8828460600160208101906103f39190610ffd565b610c02565b905060008167ffffffffffffffff81111561041657610415611b8d565b5b60405190808252806020026020018201604052801561044f57816020015b61043c610d38565b8152602001906001900390816104345790505b50905060005b82811461052e57604051806040016040528061049c868880610220019061047c91906115e1565b8681811061048d5761048c611b5e565b5b90506040020160200135610c15565b81526020016104e486888061022001906104b691906115e1565b868181106104c7576104c6611b5e565b5b90506040020160000160208101906104df9190611057565b610c25565b73ffffffffffffffffffffffffffffffffffffffff168152508282815181106105105761050f611b5e565b5b6020026020010181905250808061052690611a74565b915050610455565b506000604051806102400160405280610559868860e00160208101906105549190611057565b610c25565b73ffffffffffffffffffffffffffffffffffffffff1681526020016105908688600001602081019061058b9190610ffd565b610c02565b81526020016105a486886101600135610c15565b81526020016105c686886101000160208101906105c19190611057565b610c25565b73ffffffffffffffffffffffffffffffffffffffff1681526020016105fe86886101200160208101906105f99190611057565b610c25565b73ffffffffffffffffffffffffffffffffffffffff16815260200161063686886101400160208101906106319190611057565b610c25565b73ffffffffffffffffffffffffffffffffffffffff16815260200161066d86886080016020810190610668919061102a565b610c35565b815260200161068e868860200160208101906106899190610ffd565b610c02565b81526020016106af868860400160208101906106aa9190610ffd565b610c02565b60178111156106c1576106c0611b2f565b5b60178111156106d3576106d2611b2f565b5b81526020016106f4868860a00160208101906106ef91906110e0565b610c49565b8152602001610715868860c001602081019061071091906110e0565b610c49565b815260200161072986886101800135610c5f565b815260200161073d86886101a00135610c15565b815260200161075186886101c00135610c5f565b815260200161076586886101e00135610c5f565b8152602001848152602001838152602001610790868880610200019061078b9190611644565b610c6c565b815250905060008160400151905060005b8261020001515181146107f25782610200015181815181106107c6576107c5611b5e565b5b602002602001015160000151826107dd919061175e565b915080806107ea90611a74565b9150506107a1565b5034811115610836576040517f08c379a000000000000000000000000000000000000000000000000000000000815260040161082d9061159f565b60405180910390fd5b60006e6c3852cbef3e08e8df289169ede58173ffffffffffffffffffffffffffffffffffffffff1663fb0f3ee183856040518363ffffffff1660e01b815260040161088191906115bf565b6020604051808303818588803b15801561089a57600080fd5b505af11580156108ae573d6000803e3d6000fd5b50505050506040513d601f19601f820116820180604052508101906108d39190610fd0565b90508015610975578260a0015173ffffffffffffffffffffffffffffffffffffffff166342842e0e30600160009054906101000a900473ffffffffffffffffffffffffffffffffffffffff168660c001516040518463ffffffff1660e01b815260040161094293929190611532565b600060405180830381600087803b15801561095c57600080fd5b505af1158015610970573d6000803e3d6000fd5b505050505b5050505050505050565b60008054906101000a900473ffffffffffffffffffffffffffffffffffffffff1673ffffffffffffffffffffffffffffffffffffffff163373ffffffffffffffffffffffffffffffffffffffff16146109d757600080fd5b42446040516020016109ea9291906114b4565b60405160208183030381529060405280519060200120600281905550565b60008060009054906101000a900473ffffffffffffffffffffffffffffffffffffffff1673ffffffffffffffffffffffffffffffffffffffff163373ffffffffffffffffffffffffffffffffffffffff1614610a6357600080fd5b600254905090565b60008060009054906101000a900473ffffffffffffffffffffffffffffffffffffffff16905090565b60008054906101000a900473ffffffffffffffffffffffffffffffffffffffff1673ffffffffffffffffffffffffffffffffffffffff163373ffffffffffffffffffffffffffffffffffffffff1614610aec57600080fd5b8173ffffffffffffffffffffffffffffffffffffffff166342842e0e3085846040518463ffffffff1660e01b8152600401610b29939291906114fb565b600060405180830381600087803b158015610b4357600080fd5b505af1158015610b57573d6000803e3d6000fd5b50505050505050565b60008054906101000a900473ffffffffffffffffffffffffffffffffffffffff1673ffffffffffffffffffffffffffffffffffffffff163373ffffffffffffffffffffffffffffffffffffffff1614610bb857600080fd5b8073ffffffffffffffffffffffffffffffffffffffff166108fc479081150290604051600060405180830381858888f19350505050158015610bfe573d6000803e3d6000fd5b5050565b600082821860f81c60ff16905092915050565b600082821860001c905092915050565b600082821860601c905092915050565b600082821860f01c61ffff16905092915050565b600082821860e01c63ffffffff16905092915050565b6000828218905092915050565b606060006020601f85859050610c82919061175e565b610c8c91906117b4565b9050606060005b828114610cfb5781878787602085610cab91906117e5565b908092610cba93929190611723565b90610cc5919061199a565b18604051602001610cd792919061148c565b60405160208183030381529060405291508080610cf390611a74565b915050610c93565b50600085859050602084610d0f91906117e5565b610d19919061183f565b90506000811115610d2b578082510382525b8193505050509392505050565b604051806040016040528060008152602001600073ffffffffffffffffffffffffffffffffffffffff1681525090565b600081359050610d7781611c4e565b92915050565b600081359050610d8c81611c65565b92915050565b600081519050610da181611c7c565b92915050565b600081359050610db681611c93565b92915050565b600081359050610dcb81611caa565b92915050565b600081359050610de081611cc1565b92915050565b600081359050610df581611cd8565b92915050565b600081359050610e0a81611cef565b92915050565b60008083601f840112610e2657610e25611bc1565b5b8235905067ffffffffffffffff811115610e4357610e42611bbc565b5b602083019150836001820283011115610e5f57610e5e611bdf565b5b9250929050565b60006102408284031215610e7d57610e7c611bcb565b5b81905092915050565b600081359050610e9581611d06565b92915050565b600060208284031215610eb157610eb0611bee565b5b6000610ebf84828501610d68565b91505092915050565b600060208284031215610ede57610edd611bee565b5b6000610eec84828501610d7d565b91505092915050565b600080600060608486031215610f0e57610f0d611bee565b5b6000610f1c86828701610d7d565b9350506020610f2d86828701610d68565b9250506040610f3e86828701610e86565b9150509250925092565b600080600080600060808688031215610f6457610f63611bee565b5b6000610f7288828901610d68565b9550506020610f8388828901610d68565b9450506040610f9488828901610e86565b935050606086013567ffffffffffffffff811115610fb557610fb4611be9565b5b610fc188828901610e10565b92509250509295509295909350565b600060208284031215610fe657610fe5611bee565b5b6000610ff484828501610d92565b91505092915050565b60006020828403121561101357611012611bee565b5b600061102184828501610da7565b91505092915050565b6000602082840312156110405761103f611bee565b5b600061104e84828501610dbc565b91505092915050565b60006020828403121561106d5761106c611bee565b5b600061107b84828501610dd1565b91505092915050565b6000806040838503121561109b5761109a611bee565b5b60006110a985828601610de6565b925050602083013567ffffffffffffffff8111156110ca576110c9611be9565b5b6110d685828601610e66565b9150509250929050565b6000602082840312156110f6576110f5611bee565b5b600061110484828501610dfb565b91505092915050565b6000611119838361129f565b60408301905092915050565b61112e816119f9565b82525050565b61113d81611885565b82525050565b61114c81611873565b82525050565b61115b81611873565b82525050565b600061116c826116b7565b61117681856116e5565b9350611181836116a7565b8060005b838110156111b2578151611199888261110d565b97506111a4836116d8565b925050600181019050611185565b5085935050505092915050565b6111c881611927565b82525050565b6111d781611927565b82525050565b6111ee6111e982611927565b611abd565b82525050565b6111fd81611931565b82525050565b600061120e826116cd565b61121881856116f6565b9350611228818560208601611a41565b61123181611bf3565b840191505092915050565b6000611247826116cd565b6112518185611707565b9350611261818560208601611a41565b80840191505092915050565b61127681611a0b565b82525050565b6000611289601283611712565b915061129482611c11565b602082019050919050565b6040820160008201516112b56000850182611457565b5060208201516112c86020850182611143565b50505050565b6000610240830160008301516112e76000860182611143565b5060208301516112fa6020860182611457565b50604083015161130d6040860182611457565b5060608301516113206060860182611134565b5060808301516113336080860182611143565b5060a083015161134660a0860182611143565b5060c083015161135960c0860182611457565b5060e083015161136c60e0860182611457565b5061010083015161138161010086018261126d565b50610120830151611396610120860182611457565b506101408301516113ab610140860182611457565b506101608301516113c06101608601826111bf565b506101808301516113d5610180860182611457565b506101a08301516113ea6101a08601826111bf565b506101c08301516113ff6101c08601826111bf565b506101e08301516114146101e0860182611457565b5061020083015184820361020086015261142e8282611161565b91505061022083015184820361022086015261144a8282611203565b9150508091505092915050565b61146081611990565b82525050565b61146f81611990565b82525050565b61148661148182611990565b611ac7565b82525050565b6000611498828561123c565b91506114a482846111dd565b6020820191508190509392505050565b60006114c08285611475565b6020820191506114d08284611475565b6020820191508190509392505050565b60006020820190506114f56000830184611152565b92915050565b60006060820190506115106000830186611152565b61151d6020830185611125565b61152a6040830184611466565b949350505050565b60006060820190506115476000830186611152565b6115546020830185611152565b6115616040830184611466565b949350505050565b600060208201905061157e60008301846111ce565b92915050565b600060208201905061159960008301846111f4565b92915050565b600060208201905081810360008301526115b88161127c565b9050919050565b600060208201905081810360008301526115d981846112ce565b905092915050565b600080833560016020038436030381126115fe576115fd611bd0565b5b80840192508235915067ffffffffffffffff8211156116205761161f611bc6565b5b60208301925060408202360383131561163c5761163b611be4565b5b509250929050565b6000808335600160200384360303811261166157611660611bd0565b5b80840192508235915067ffffffffffffffff82111561168357611682611bc6565b5b60208301925060018202360383131561169f5761169e611be4565b5b509250929050565b6000819050602082019050919050565b600081519050919050565b600082905092915050565b600081519050919050565b6000602082019050919050565b600082825260208201905092915050565b600082825260208201905092915050565b600081905092915050565b600082825260208201905092915050565b6000808585111561173757611736611bda565b5b8386111561174857611747611bd5565b5b6001850283019150848603905094509492505050565b600061176982611990565b915061177483611990565b9250827fffffffffffffffffffffffffffffffffffffffffffffffffffffffffffffffff038211156117a9576117a8611ad1565b5b828201905092915050565b60006117bf82611990565b91506117ca83611990565b9250826117da576117d9611b00565b5b828204905092915050565b60006117f082611990565b91506117fb83611990565b9250817fffffffffffffffffffffffffffffffffffffffffffffffffffffffffffffffff048311821515161561183457611833611ad1565b5b828202905092915050565b600061184a82611990565b915061185583611990565b92508282101561186857611867611ad1565b5b828203905092915050565b600061187e82611970565b9050919050565b600061189082611970565b9050919050565b60008115159050919050565b60007fff0000000000000000000000000000000000000000000000000000000000000082169050919050565b60007fffff00000000000000000000000000000000000000000000000000000000000082169050919050565b60007fffffffffffffffffffffffffffffffffffffffff00000000000000000000000082169050919050565b6000819050919050565b60007fffffffff0000000000000000000000000000000000000000000000000000000082169050919050565b600081905061196b82611c3a565b919050565b600073ffffffffffffffffffffffffffffffffffffffff82169050919050565b6000819050919050565b60006119a683836116c2565b826119b18135611927565b925060208210156119f1576119ec7fffffffffffffffffffffffffffffffffffffffffffffffffffffffffffffffff83602003600802611c04565b831692505b505092915050565b6000611a0482611a1d565b9050919050565b6000611a168261195d565b9050919050565b6000611a2882611a2f565b9050919050565b6000611a3a82611970565b9050919050565b60005b83811015611a5f578082015181840152602081019050611a44565b83811115611a6e576000848401525b50505050565b6000611a7f82611990565b91507fffffffffffffffffffffffffffffffffffffffffffffffffffffffffffffffff821415611ab257611ab1611ad1565b5b600182019050919050565b6000819050919050565b6000819050919050565b7f4e487b7100000000000000000000000000000000000000000000000000000000600052601160045260246000fd5b7f4e487b7100000000000000000000000000000000000000000000000000000000600052601260045260246000fd5b7f4e487b7100000000000000000000000000000000000000000000000000000000600052602160045260246000fd5b7f4e487b7100000000000000000000000000000000000000000000000000000000600052603260045260246000fd5b7f4e487b7100000000000000000000000000000000000000000000000000000000600052604160045260246000fd5b600080fd5b600080fd5b600080fd5b600080fd5b600080fd5b600080fd5b600080fd5b600080fd5b600080fd5b600080fd5b600080fd5b6000601f19601f8301169050919050565b600082821b905092915050565b7f496e73756666696369656e742066756e64730000000000000000000000000000600082015250565b60188110611c4b57611c4a611b2f565b5b50565b611c5781611873565b8114611c6257600080fd5b50565b611c6e81611885565b8114611c7957600080fd5b50565b611c8581611897565b8114611c9057600080fd5b50565b611c9c816118a3565b8114611ca757600080fd5b50565b611cb3816118cf565b8114611cbe57600080fd5b50565b611cca816118fb565b8114611cd557600080fd5b50565b611ce181611927565b8114611cec57600080fd5b50565b611cf881611931565b8114611d0357600080fd5b50565b611d0f81611990565b8114611d1a57600080fd5b5056fea26469706673582212202d0a21817b44aa67e13cc0e80d89c6b26c1795e5f7f4cd625a5feb054ae4ba5f64736f6c63430008070033",
					"opcodes": "PUSH1 0x80 PUSH1 0x40 MSTORE CALLVALUE DUP1 ISZERO PUSH3 0x11 JUMPI PUSH1 0x0 DUP1 REVERT JUMPDEST POP CALLER PUSH1 0x0 DUP1 PUSH2 0x100 EXP DUP2 SLOAD DUP2 PUSH20 0xFFFFFFFFFFFFFFFFFFFFFFFFFFFFFFFFFFFFFFFF MUL NOT AND SWAP1 DUP4 PUSH20 0xFFFFFFFFFFFFFFFFFFFFFFFFFFFFFFFFFFFFFFFF AND MUL OR SWAP1 SSTORE POP CALLER PUSH1 0x1 PUSH1 0x0 PUSH2 0x100 EXP DUP2 SLOAD DUP2 PUSH20 0xFFFFFFFFFFFFFFFFFFFFFFFFFFFFFFFFFFFFFFFF MUL NOT AND SWAP1 DUP4 PUSH20 0xFFFFFFFFFFFFFFFFFFFFFFFFFFFFFFFFFFFFFFFF AND MUL OR SWAP1 SSTORE POP TIMESTAMP DIFFICULTY PUSH1 0x40 MLOAD PUSH1 0x20 ADD PUSH3 0xA8 SWAP3 SWAP2 SWAP1 PUSH3 0xE5 JUMP JUMPDEST PUSH1 0x40 MLOAD PUSH1 0x20 DUP2 DUP4 SUB SUB DUP2 MSTORE SWAP1 PUSH1 0x40 MSTORE DUP1 MLOAD SWAP1 PUSH1 0x20 ADD KECCAK256 PUSH1 0x2 DUP2 SWAP1 SSTORE POP PUSH3 0x129 JUMP JUMPDEST PUSH3 0xDF PUSH3 0xD9 DUP3 PUSH3 0x115 JUMP JUMPDEST PUSH3 0x11F JUMP JUMPDEST DUP3 MSTORE POP POP JUMP JUMPDEST PUSH1 0x0 PUSH3 0xF3 DUP3 DUP6 PUSH3 0xCA JUMP JUMPDEST PUSH1 0x20 DUP3 ADD SWAP2 POP PUSH3 0x105 DUP3 DUP5 PUSH3 0xCA JUMP JUMPDEST PUSH1 0x20 DUP3 ADD SWAP2 POP DUP2 SWAP1 POP SWAP4 SWAP3 POP POP POP JUMP JUMPDEST PUSH1 0x0 DUP2 SWAP1 POP SWAP2 SWAP1 POP JUMP JUMPDEST PUSH1 0x0 DUP2 SWAP1 POP SWAP2 SWAP1 POP JUMP JUMPDEST PUSH2 0x1D53 DUP1 PUSH3 0x139 PUSH1 0x0 CODECOPY PUSH1 0x0 RETURN INVALID PUSH1 0x80 PUSH1 0x40 MSTORE PUSH1 0x4 CALLDATASIZE LT PUSH2 0x94 JUMPI PUSH1 0x0 CALLDATALOAD PUSH1 0xE0 SHR DUP1 PUSH4 0x71D30350 GT PUSH2 0x59 JUMPI DUP1 PUSH4 0x71D30350 EQ PUSH2 0x16D JUMPI DUP1 PUSH4 0x82678DD6 EQ PUSH2 0x184 JUMPI DUP1 PUSH4 0x893D20E8 EQ PUSH2 0x1AF JUMPI DUP1 PUSH4 0xF5537EDE EQ PUSH2 0x1DA JUMPI DUP1 PUSH4 0xFA09E630 EQ PUSH2 0x203 JUMPI PUSH2 0x95 JUMP JUMPDEST DUP1 PUSH3 0xF55D9D EQ PUSH2 0x97 JUMPI DUP1 PUSH4 0x150B7A02 EQ PUSH2 0xC0 JUMPI DUP1 PUSH4 0x1B88094D EQ PUSH2 0xFD JUMPI DUP1 PUSH4 0x3BBED4A0 EQ PUSH2 0x128 JUMPI DUP1 PUSH4 0x4B5D60B4 EQ PUSH2 0x151 JUMPI PUSH2 0x95 JUMP JUMPDEST JUMPDEST STOP JUMPDEST CALLVALUE DUP1 ISZERO PUSH2 0xA3 JUMPI PUSH1 0x0 DUP1 REVERT JUMPDEST POP PUSH2 0xBE PUSH1 0x4 DUP1 CALLDATASIZE SUB DUP2 ADD SWAP1 PUSH2 0xB9 SWAP2 SWAP1 PUSH2 0xE9B JUMP JUMPDEST PUSH2 0x22C JUMP JUMPDEST STOP JUMPDEST CALLVALUE DUP1 ISZERO PUSH2 0xCC JUMPI PUSH1 0x0 DUP1 REVERT JUMPDEST POP PUSH2 0xE7 PUSH1 0x4 DUP1 CALLDATASIZE SUB DUP2 ADD SWAP1 PUSH2 0xE2 SWAP2 SWAP1 PUSH2 0xF48 JUMP JUMPDEST PUSH2 0x29D JUMP JUMPDEST PUSH1 0x40 MLOAD PUSH2 0xF4 SWAP2 SWAP1 PUSH2 0x1584 JUMP JUMPDEST PUSH1 0x40 MLOAD DUP1 SWAP2 SUB SWAP1 RETURN JUMPDEST CALLVALUE DUP1 ISZERO PUSH2 0x109 JUMPI PUSH1 0x0 DUP1 REVERT JUMPDEST POP PUSH2 0x112 PUSH2 0x2B2 JUMP JUMPDEST PUSH1 0x40 MLOAD PUSH2 0x11F SWAP2 SWAP1 PUSH2 0x14E0 JUMP JUMPDEST PUSH1 0x40 MLOAD DUP1 SWAP2 SUB SWAP1 RETURN JUMPDEST CALLVALUE DUP1 ISZERO PUSH2 0x134 JUMPI PUSH1 0x0 DUP1 REVERT JUMPDEST POP PUSH2 0x14F PUSH1 0x4 DUP1 CALLDATASIZE SUB DUP2 ADD SWAP1 PUSH2 0x14A SWAP2 SWAP1 PUSH2 0xE9B JUMP JUMPDEST PUSH2 0x335 JUMP JUMPDEST STOP JUMPDEST PUSH2 0x16B PUSH1 0x4 DUP1 CALLDATASIZE SUB DUP2 ADD SWAP1 PUSH2 0x166 SWAP2 SWAP1 PUSH2 0x1084 JUMP JUMPDEST PUSH2 0x3D1 JUMP JUMPDEST STOP JUMPDEST CALLVALUE DUP1 ISZERO PUSH2 0x179 JUMPI PUSH1 0x0 DUP1 REVERT JUMPDEST POP PUSH2 0x182 PUSH2 0x97F JUMP JUMPDEST STOP JUMPDEST CALLVALUE DUP1 ISZERO PUSH2 0x190 JUMPI PUSH1 0x0 DUP1 REVERT JUMPDEST POP PUSH2 0x199 PUSH2 0xA08 JUMP JUMPDEST PUSH1 0x40 MLOAD PUSH2 0x1A6 SWAP2 SWAP1 PUSH2 0x1569 JUMP JUMPDEST PUSH1 0x40 MLOAD DUP1 SWAP2 SUB SWAP1 RETURN JUMPDEST CALLVALUE DUP1 ISZERO PUSH2 0x1BB JUMPI PUSH1 0x0 DUP1 REVERT JUMPDEST POP PUSH2 0x1C4 PUSH2 0xA6B JUMP JUMPDEST PUSH1 0x40 MLOAD PUSH2 0x1D1 SWAP2 SWAP1 PUSH2 0x14E0 JUMP JUMPDEST PUSH1 0x40 MLOAD DUP1 SWAP2 SUB SWAP1 RETURN JUMPDEST CALLVALUE DUP1 ISZERO PUSH2 0x1E6 JUMPI PUSH1 0x0 DUP1 REVERT JUMPDEST POP PUSH2 0x201 PUSH1 0x4 DUP1 CALLDATASIZE SUB DUP2 ADD SWAP1 PUSH2 0x1FC SWAP2 SWAP1 PUSH2 0xEF5 JUMP JUMPDEST PUSH2 0xA94 JUMP JUMPDEST STOP JUMPDEST CALLVALUE DUP1 ISZERO PUSH2 0x20F JUMPI PUSH1 0x0 DUP1 REVERT JUMPDEST POP PUSH2 0x22A PUSH1 0x4 DUP1 CALLDATASIZE SUB DUP2 ADD SWAP1 PUSH2 0x225 SWAP2 SWAP1 PUSH2 0xEC8 JUMP JUMPDEST PUSH2 0xB60 JUMP JUMPDEST STOP JUMPDEST PUSH1 0x0 DUP1 SLOAD SWAP1 PUSH2 0x100 EXP SWAP1 DIV PUSH20 0xFFFFFFFFFFFFFFFFFFFFFFFFFFFFFFFFFFFFFFFF AND PUSH20 0xFFFFFFFFFFFFFFFFFFFFFFFFFFFFFFFFFFFFFFFF AND CALLER PUSH20 0xFFFFFFFFFFFFFFFFFFFFFFFFFFFFFFFFFFFFFFFF AND EQ PUSH2 0x284 JUMPI PUSH1 0x0 DUP1 REVERT JUMPDEST DUP1 PUSH20 0xFFFFFFFFFFFFFFFFFFFFFFFFFFFFFFFFFFFFFFFF AND SELFDESTRUCT JUMPDEST PUSH1 0x0 PUSH4 0x150B7A02 PUSH1 0xE0 SHL SWAP1 POP SWAP6 SWAP5 POP POP POP POP POP JUMP JUMPDEST PUSH1 0x0 DUP1 PUSH1 0x0 SWAP1 SLOAD SWAP1 PUSH2 0x100 EXP SWAP1 DIV PUSH20 0xFFFFFFFFFFFFFFFFFFFFFFFFFFFFFFFFFFFFFFFF AND PUSH20 0xFFFFFFFFFFFFFFFFFFFFFFFFFFFFFFFFFFFFFFFF AND CALLER PUSH20 0xFFFFFFFFFFFFFFFFFFFFFFFFFFFFFFFFFFFFFFFF AND EQ PUSH2 0x30D JUMPI PUSH1 0x0 DUP1 REVERT JUMPDEST PUSH1 0x1 PUSH1 0x0 SWAP1 SLOAD SWAP1 PUSH2 0x100 EXP SWAP1 DIV PUSH20 0xFFFFFFFFFFFFFFFFFFFFFFFFFFFFFFFFFFFFFFFF AND SWAP1 POP SWAP1 JUMP JUMPDEST PUSH1 0x0 DUP1 SLOAD SWAP1 PUSH2 0x100 EXP SWAP1 DIV PUSH20 0xFFFFFFFFFFFFFFFFFFFFFFFFFFFFFFFFFFFFFFFF AND PUSH20 0xFFFFFFFFFFFFFFFFFFFFFFFFFFFFFFFFFFFFFFFF AND CALLER PUSH20 0xFFFFFFFFFFFFFFFFFFFFFFFFFFFFFFFFFFFFFFFF AND EQ PUSH2 0x38D JUMPI PUSH1 0x0 DUP1 REVERT JUMPDEST DUP1 PUSH1 0x1 PUSH1 0x0 PUSH2 0x100 EXP DUP2 SLOAD DUP2 PUSH20 0xFFFFFFFFFFFFFFFFFFFFFFFFFFFFFFFFFFFFFFFF MUL NOT AND SWAP1 DUP4 PUSH20 0xFFFFFFFFFFFFFFFFFFFFFFFFFFFFFFFFFFFFFFFF AND MUL OR SWAP1 SSTORE POP POP JUMP JUMPDEST PUSH1 0x0 PUSH1 0x2 SLOAD DUP4 XOR SWAP1 POP PUSH1 0x0 PUSH2 0x3F8 DUP3 DUP5 PUSH1 0x60 ADD PUSH1 0x20 DUP2 ADD SWAP1 PUSH2 0x3F3 SWAP2 SWAP1 PUSH2 0xFFD JUMP JUMPDEST PUSH2 0xC02 JUMP JUMPDEST SWAP1 POP PUSH1 0x0 DUP2 PUSH8 0xFFFFFFFFFFFFFFFF DUP2 GT ISZERO PUSH2 0x416 JUMPI PUSH2 0x415 PUSH2 0x1B8D JUMP JUMPDEST JUMPDEST PUSH1 0x40 MLOAD SWAP1 DUP1 DUP3 MSTORE DUP1 PUSH1 0x20 MUL PUSH1 0x20 ADD DUP3 ADD PUSH1 0x40 MSTORE DUP1 ISZERO PUSH2 0x44F JUMPI DUP2 PUSH1 0x20 ADD JUMPDEST PUSH2 0x43C PUSH2 0xD38 JUMP JUMPDEST DUP2 MSTORE PUSH1 0x20 ADD SWAP1 PUSH1 0x1 SWAP1 SUB SWAP1 DUP2 PUSH2 0x434 JUMPI SWAP1 POP JUMPDEST POP SWAP1 POP PUSH1 0x0 JUMPDEST DUP3 DUP2 EQ PUSH2 0x52E JUMPI PUSH1 0x40 MLOAD DUP1 PUSH1 0x40 ADD PUSH1 0x40 MSTORE DUP1 PUSH2 0x49C DUP7 DUP9 DUP1 PUSH2 0x220 ADD SWAP1 PUSH2 0x47C SWAP2 SWAP1 PUSH2 0x15E1 JUMP JUMPDEST DUP7 DUP2 DUP2 LT PUSH2 0x48D JUMPI PUSH2 0x48C PUSH2 0x1B5E JUMP JUMPDEST JUMPDEST SWAP1 POP PUSH1 0x40 MUL ADD PUSH1 0x20 ADD CALLDATALOAD PUSH2 0xC15 JUMP JUMPDEST DUP2 MSTORE PUSH1 0x20 ADD PUSH2 0x4E4 DUP7 DUP9 DUP1 PUSH2 0x220 ADD SWAP1 PUSH2 0x4B6 SWAP2 SWAP1 PUSH2 0x15E1 JUMP JUMPDEST DUP7 DUP2 DUP2 LT PUSH2 0x4C7 JUMPI PUSH2 0x4C6 PUSH2 0x1B5E JUMP JUMPDEST JUMPDEST SWAP1 POP PUSH1 0x40 MUL ADD PUSH1 0x0 ADD PUSH1 0x20 DUP2 ADD SWAP1 PUSH2 0x4DF SWAP2 SWAP1 PUSH2 0x1057 JUMP JUMPDEST PUSH2 0xC25 JUMP JUMPDEST PUSH20 0xFFFFFFFFFFFFFFFFFFFFFFFFFFFFFFFFFFFFFFFF AND DUP2 MSTORE POP DUP3 DUP3 DUP2 MLOAD DUP2 LT PUSH2 0x510 JUMPI PUSH2 0x50F PUSH2 0x1B5E JUMP JUMPDEST JUMPDEST PUSH1 0x20 MUL PUSH1 0x20 ADD ADD DUP2 SWAP1 MSTORE POP DUP1 DUP1 PUSH2 0x526 SWAP1 PUSH2 0x1A74 JUMP JUMPDEST SWAP2 POP POP PUSH2 0x455 JUMP JUMPDEST POP PUSH1 0x0 PUSH1 0x40 MLOAD DUP1 PUSH2 0x240 ADD PUSH1 0x40 MSTORE DUP1 PUSH2 0x559 DUP7 DUP9 PUSH1 0xE0 ADD PUSH1 0x20 DUP2 ADD SWAP1 PUSH2 0x554 SWAP2 SWAP1 PUSH2 0x1057 JUMP JUMPDEST PUSH2 0xC25 JUMP JUMPDEST PUSH20 0xFFFFFFFFFFFFFFFFFFFFFFFFFFFFFFFFFFFFFFFF AND DUP2 MSTORE PUSH1 0x20 ADD PUSH2 0x590 DUP7 DUP9 PUSH1 0x0 ADD PUSH1 0x20 DUP2 ADD SWAP1 PUSH2 0x58B SWAP2 SWAP1 PUSH2 0xFFD JUMP JUMPDEST PUSH2 0xC02 JUMP JUMPDEST DUP2 MSTORE PUSH1 0x20 ADD PUSH2 0x5A4 DUP7 DUP9 PUSH2 0x160 ADD CALLDATALOAD PUSH2 0xC15 JUMP JUMPDEST DUP2 MSTORE PUSH1 0x20 ADD PUSH2 0x5C6 DUP7 DUP9 PUSH2 0x100 ADD PUSH1 0x20 DUP2 ADD SWAP1 PUSH2 0x5C1 SWAP2 SWAP1 PUSH2 0x1057 JUMP JUMPDEST PUSH2 0xC25 JUMP JUMPDEST PUSH20 0xFFFFFFFFFFFFFFFFFFFFFFFFFFFFFFFFFFFFFFFF AND DUP2 MSTORE PUSH1 0x20 ADD PUSH2 0x5FE DUP7 DUP9 PUSH2 0x120 ADD PUSH1 0x20 DUP2 ADD SWAP1 PUSH2 0x5F9 SWAP2 SWAP1 PUSH2 0x1057 JUMP JUMPDEST PUSH2 0xC25 JUMP JUMPDEST PUSH20 0xFFFFFFFFFFFFFFFFFFFFFFFFFFFFFFFFFFFFFFFF AND DUP2 MSTORE PUSH1 0x20 ADD PUSH2 0x636 DUP7 DUP9 PUSH2 0x140 ADD PUSH1 0x20 DUP2 ADD SWAP1 PUSH2 0x631 SWAP2 SWAP1 PUSH2 0x1057 JUMP JUMPDEST PUSH2 0xC25 JUMP JUMPDEST PUSH20 0xFFFFFFFFFFFFFFFFFFFFFFFFFFFFFFFFFFFFFFFF AND DUP2 MSTORE PUSH1 0x20 ADD PUSH2 0x66D DUP7 DUP9 PUSH1 0x80 ADD PUSH1 0x20 DUP2 ADD SWAP1 PUSH2 0x668 SWAP2 SWAP1 PUSH2 0x102A JUMP JUMPDEST PUSH2 0xC35 JUMP JUMPDEST DUP2 MSTORE PUSH1 0x20 ADD PUSH2 0x68E DUP7 DUP9 PUSH1 0x20 ADD PUSH1 0x20 DUP2 ADD SWAP1 PUSH2 0x689 SWAP2 SWAP1 PUSH2 0xFFD JUMP JUMPDEST PUSH2 0xC02 JUMP JUMPDEST DUP2 MSTORE PUSH1 0x20 ADD PUSH2 0x6AF DUP7 DUP9 PUSH1 0x40 ADD PUSH1 0x20 DUP2 ADD SWAP1 PUSH2 0x6AA SWAP2 SWAP1 PUSH2 0xFFD JUMP JUMPDEST PUSH2 0xC02 JUMP JUMPDEST PUSH1 0x17 DUP2 GT ISZERO PUSH2 0x6C1 JUMPI PUSH2 0x6C0 PUSH2 0x1B2F JUMP JUMPDEST JUMPDEST PUSH1 0x17 DUP2 GT ISZERO PUSH2 0x6D3 JUMPI PUSH2 0x6D2 PUSH2 0x1B2F JUMP JUMPDEST JUMPDEST DUP2 MSTORE PUSH1 0x20 ADD PUSH2 0x6F4 DUP7 DUP9 PUSH1 0xA0 ADD PUSH1 0x20 DUP2 ADD SWAP1 PUSH2 0x6EF SWAP2 SWAP1 PUSH2 0x10E0 JUMP JUMPDEST PUSH2 0xC49 JUMP JUMPDEST DUP2 MSTORE PUSH1 0x20 ADD PUSH2 0x715 DUP7 DUP9 PUSH1 0xC0 ADD PUSH1 0x20 DUP2 ADD SWAP1 PUSH2 0x710 SWAP2 SWAP1 PUSH2 0x10E0 JUMP JUMPDEST PUSH2 0xC49 JUMP JUMPDEST DUP2 MSTORE PUSH1 0x20 ADD PUSH2 0x729 DUP7 DUP9 PUSH2 0x180 ADD CALLDATALOAD PUSH2 0xC5F JUMP JUMPDEST DUP2 MSTORE PUSH1 0x20 ADD PUSH2 0x73D DUP7 DUP9 PUSH2 0x1A0 ADD CALLDATALOAD PUSH2 0xC15 JUMP JUMPDEST DUP2 MSTORE PUSH1 0x20 ADD PUSH2 0x751 DUP7 DUP9 PUSH2 0x1C0 ADD CALLDATALOAD PUSH2 0xC5F JUMP JUMPDEST DUP2 MSTORE PUSH1 0x20 ADD PUSH2 0x765 DUP7 DUP9 PUSH2 0x1E0 ADD CALLDATALOAD PUSH2 0xC5F JUMP JUMPDEST DUP2 MSTORE PUSH1 0x20 ADD DUP5 DUP2 MSTORE PUSH1 0x20 ADD DUP4 DUP2 MSTORE PUSH1 0x20 ADD PUSH2 0x790 DUP7 DUP9 DUP1 PUSH2 0x200 ADD SWAP1 PUSH2 0x78B SWAP2 SWAP1 PUSH2 0x1644 JUMP JUMPDEST PUSH2 0xC6C JUMP JUMPDEST DUP2 MSTORE POP SWAP1 POP PUSH1 0x0 DUP2 PUSH1 0x40 ADD MLOAD SWAP1 POP PUSH1 0x0 JUMPDEST DUP3 PUSH2 0x200 ADD MLOAD MLOAD DUP2 EQ PUSH2 0x7F2 JUMPI DUP3 PUSH2 0x200 ADD MLOAD DUP2 DUP2 MLOAD DUP2 LT PUSH2 0x7C6 JUMPI PUSH2 0x7C5 PUSH2 0x1B5E JUMP JUMPDEST JUMPDEST PUSH1 0x20 MUL PUSH1 0x20 ADD ADD MLOAD PUSH1 0x0 ADD MLOAD DUP3 PUSH2 0x7DD SWAP2 SWAP1 PUSH2 0x175E JUMP JUMPDEST SWAP2 POP DUP1 DUP1 PUSH2 0x7EA SWAP1 PUSH2 0x1A74 JUMP JUMPDEST SWAP2 POP POP PUSH2 0x7A1 JUMP JUMPDEST POP CALLVALUE DUP2 GT ISZERO PUSH2 0x836 JUMPI PUSH1 0x40 MLOAD PUSH32 0x8C379A000000000000000000000000000000000000000000000000000000000 DUP2 MSTORE PUSH1 0x4 ADD PUSH2 0x82D SWAP1 PUSH2 0x159F JUMP JUMPDEST PUSH1 0x40 MLOAD DUP1 SWAP2 SUB SWAP1 REVERT JUMPDEST PUSH1 0x0 PUSH15 0x6C3852CBEF3E08E8DF289169EDE581 PUSH20 0xFFFFFFFFFFFFFFFFFFFFFFFFFFFFFFFFFFFFFFFF AND PUSH4 0xFB0F3EE1 DUP4 DUP6 PUSH1 0x40 MLOAD DUP4 PUSH4 0xFFFFFFFF AND PUSH1 0xE0 SHL DUP2 MSTORE PUSH1 0x4 ADD PUSH2 0x881 SWAP2 SWAP1 PUSH2 0x15BF JUMP JUMPDEST PUSH1 0x20 PUSH1 0x40 MLOAD DUP1 DUP4 SUB DUP2 DUP6 DUP9 DUP1 EXTCODESIZE ISZERO DUP1 ISZERO PUSH2 0x89A JUMPI PUSH1 0x0 DUP1 REVERT JUMPDEST POP GAS CALL ISZERO DUP1 ISZERO PUSH2 0x8AE JUMPI RETURNDATASIZE PUSH1 0x0 DUP1 RETURNDATACOPY RETURNDATASIZE PUSH1 0x0 REVERT JUMPDEST POP POP POP POP POP PUSH1 0x40 MLOAD RETURNDATASIZE PUSH1 0x1F NOT PUSH1 0x1F DUP3 ADD AND DUP3 ADD DUP1 PUSH1 0x40 MSTORE POP DUP2 ADD SWAP1 PUSH2 0x8D3 SWAP2 SWAP1 PUSH2 0xFD0 JUMP JUMPDEST SWAP1 POP DUP1 ISZERO PUSH2 0x975 JUMPI DUP3 PUSH1 0xA0 ADD MLOAD PUSH20 0xFFFFFFFFFFFFFFFFFFFFFFFFFFFFFFFFFFFFFFFF AND PUSH4 0x42842E0E ADDRESS PUSH1 0x1 PUSH1 0x0 SWAP1 SLOAD SWAP1 PUSH2 0x100 EXP SWAP1 DIV PUSH20 0xFFFFFFFFFFFFFFFFFFFFFFFFFFFFFFFFFFFFFFFF AND DUP7 PUSH1 0xC0 ADD MLOAD PUSH1 0x40 MLOAD DUP5 PUSH4 0xFFFFFFFF AND PUSH1 0xE0 SHL DUP2 MSTORE PUSH1 0x4 ADD PUSH2 0x942 SWAP4 SWAP3 SWAP2 SWAP1 PUSH2 0x1532 JUMP JUMPDEST PUSH1 0x0 PUSH1 0x40 MLOAD DUP1 DUP4 SUB DUP2 PUSH1 0x0 DUP8 DUP1 EXTCODESIZE ISZERO DUP1 ISZERO PUSH2 0x95C JUMPI PUSH1 0x0 DUP1 REVERT JUMPDEST POP GAS CALL ISZERO DUP1 ISZERO PUSH2 0x970 JUMPI RETURNDATASIZE PUSH1 0x0 DUP1 RETURNDATACOPY RETURNDATASIZE PUSH1 0x0 REVERT JUMPDEST POP POP POP POP JUMPDEST POP POP POP POP POP POP POP POP JUMP JUMPDEST PUSH1 0x0 DUP1 SLOAD SWAP1 PUSH2 0x100 EXP SWAP1 DIV PUSH20 0xFFFFFFFFFFFFFFFFFFFFFFFFFFFFFFFFFFFFFFFF AND PUSH20 0xFFFFFFFFFFFFFFFFFFFFFFFFFFFFFFFFFFFFFFFF AND CALLER PUSH20 0xFFFFFFFFFFFFFFFFFFFFFFFFFFFFFFFFFFFFFFFF AND EQ PUSH2 0x9D7 JUMPI PUSH1 0x0 DUP1 REVERT JUMPDEST TIMESTAMP DIFFICULTY PUSH1 0x40 MLOAD PUSH1 0x20 ADD PUSH2 0x9EA SWAP3 SWAP2 SWAP1 PUSH2 0x14B4 JUMP JUMPDEST PUSH1 0x40 MLOAD PUSH1 0x20 DUP2 DUP4 SUB SUB DUP2 MSTORE SWAP1 PUSH1 0x40 MSTORE DUP1 MLOAD SWAP1 PUSH1 0x20 ADD KECCAK256 PUSH1 0x2 DUP2 SWAP1 SSTORE POP JUMP JUMPDEST PUSH1 0x0 DUP1 PUSH1 0x0 SWAP1 SLOAD SWAP1 PUSH2 0x100 EXP SWAP1 DIV PUSH20 0xFFFFFFFFFFFFFFFFFFFFFFFFFFFFFFFFFFFFFFFF AND PUSH20 0xFFFFFFFFFFFFFFFFFFFFFFFFFFFFFFFFFFFFFFFF AND CALLER PUSH20 0xFFFFFFFFFFFFFFFFFFFFFFFFFFFFFFFFFFFFFFFF AND EQ PUSH2 0xA63 JUMPI PUSH1 0x0 DUP1 REVERT JUMPDEST PUSH1 0x2 SLOAD SWAP1 POP SWAP1 JUMP JUMPDEST PUSH1 0x0 DUP1 PUSH1 0x0 SWAP1 SLOAD SWAP1 PUSH2 0x100 EXP SWAP1 DIV PUSH20 0xFFFFFFFFFFFFFFFFFFFFFFFFFFFFFFFFFFFFFFFF AND SWAP1 POP SWAP1 JUMP JUMPDEST PUSH1 0x0 DUP1 SLOAD SWAP1 PUSH2 0x100 EXP SWAP1 DIV PUSH20 0xFFFFFFFFFFFFFFFFFFFFFFFFFFFFFFFFFFFFFFFF AND PUSH20 0xFFFFFFFFFFFFFFFFFFFFFFFFFFFFFFFFFFFFFFFF AND CALLER PUSH20 0xFFFFFFFFFFFFFFFFFFFFFFFFFFFFFFFFFFFFFFFF AND EQ PUSH2 0xAEC JUMPI PUSH1 0x0 DUP1 REVERT JUMPDEST DUP2 PUSH20 0xFFFFFFFFFFFFFFFFFFFFFFFFFFFFFFFFFFFFFFFF AND PUSH4 0x42842E0E ADDRESS DUP6 DUP5 PUSH1 0x40 MLOAD DUP5 PUSH4 0xFFFFFFFF AND PUSH1 0xE0 SHL DUP2 MSTORE PUSH1 0x4 ADD PUSH2 0xB29 SWAP4 SWAP3 SWAP2 SWAP1 PUSH2 0x14FB JUMP JUMPDEST PUSH1 0x0 PUSH1 0x40 MLOAD DUP1 DUP4 SUB DUP2 PUSH1 0x0 DUP8 DUP1 EXTCODESIZE ISZERO DUP1 ISZERO PUSH2 0xB43 JUMPI PUSH1 0x0 DUP1 REVERT JUMPDEST POP GAS CALL ISZERO DUP1 ISZERO PUSH2 0xB57 JUMPI RETURNDATASIZE PUSH1 0x0 DUP1 RETURNDATACOPY RETURNDATASIZE PUSH1 0x0 REVERT JUMPDEST POP POP POP POP POP POP POP JUMP JUMPDEST PUSH1 0x0 DUP1 SLOAD SWAP1 PUSH2 0x100 EXP SWAP1 DIV PUSH20 0xFFFFFFFFFFFFFFFFFFFFFFFFFFFFFFFFFFFFFFFF AND PUSH20 0xFFFFFFFFFFFFFFFFFFFFFFFFFFFFFFFFFFFFFFFF AND CALLER PUSH20 0xFFFFFFFFFFFFFFFFFFFFFFFFFFFFFFFFFFFFFFFF AND EQ PUSH2 0xBB8 JUMPI PUSH1 0x0 DUP1 REVERT JUMPDEST DUP1 PUSH20 0xFFFFFFFFFFFFFFFFFFFFFFFFFFFFFFFFFFFFFFFF AND PUSH2 0x8FC SELFBALANCE SWAP1 DUP2 ISZERO MUL SWAP1 PUSH1 0x40 MLOAD PUSH1 0x0 PUSH1 0x40 MLOAD DUP1 DUP4 SUB DUP2 DUP6 DUP9 DUP9 CALL SWAP4 POP POP POP POP ISZERO DUP1 ISZERO PUSH2 0xBFE JUMPI RETURNDATASIZE PUSH1 0x0 DUP1 RETURNDATACOPY RETURNDATASIZE PUSH1 0x0 REVERT JUMPDEST POP POP JUMP JUMPDEST PUSH1 0x0 DUP3 DUP3 XOR PUSH1 0xF8 SHR PUSH1 0xFF AND SWAP1 POP SWAP3 SWAP2 POP POP JUMP JUMPDEST PUSH1 0x0 DUP3 DUP3 XOR PUSH1 0x0 SHR SWAP1 POP SWAP3 SWAP2 POP POP JUMP JUMPDEST PUSH1 0x0 DUP3 DUP3 XOR PUSH1 0x60 SHR SWAP1 POP SWAP3 SWAP2 POP POP JUMP JUMPDEST PUSH1 0x0 DUP3 DUP3 XOR PUSH1 0xF0 SHR PUSH2 0xFFFF AND SWAP1 POP SWAP3 SWAP2 POP POP JUMP JUMPDEST PUSH1 0x0 DUP3 DUP3 XOR PUSH1 0xE0 SHR PUSH4 0xFFFFFFFF AND SWAP1 POP SWAP3 SWAP2 POP POP JUMP JUMPDEST PUSH1 0x0 DUP3 DUP3 XOR SWAP1 POP SWAP3 SWAP2 POP POP JUMP JUMPDEST PUSH1 0x60 PUSH1 0x0 PUSH1 0x20 PUSH1 0x1F DUP6 DUP6 SWAP1 POP PUSH2 0xC82 SWAP2 SWAP1 PUSH2 0x175E JUMP JUMPDEST PUSH2 0xC8C SWAP2 SWAP1 PUSH2 0x17B4 JUMP JUMPDEST SWAP1 POP PUSH1 0x60 PUSH1 0x0 JUMPDEST DUP3 DUP2 EQ PUSH2 0xCFB JUMPI DUP2 DUP8 DUP8 DUP8 PUSH1 0x20 DUP6 PUSH2 0xCAB SWAP2 SWAP1 PUSH2 0x17E5 JUMP JUMPDEST SWAP1 DUP1 SWAP3 PUSH2 0xCBA SWAP4 SWAP3 SWAP2 SWAP1 PUSH2 0x1723 JUMP JUMPDEST SWAP1 PUSH2 0xCC5 SWAP2 SWAP1 PUSH2 0x199A JUMP JUMPDEST XOR PUSH1 0x40 MLOAD PUSH1 0x20 ADD PUSH2 0xCD7 SWAP3 SWAP2 SWAP1 PUSH2 0x148C JUMP JUMPDEST PUSH1 0x40 MLOAD PUSH1 0x20 DUP2 DUP4 SUB SUB DUP2 MSTORE SWAP1 PUSH1 0x40 MSTORE SWAP2 POP DUP1 DUP1 PUSH2 0xCF3 SWAP1 PUSH2 0x1A74 JUMP JUMPDEST SWAP2 POP POP PUSH2 0xC93 JUMP JUMPDEST POP PUSH1 0x0 DUP6 DUP6 SWAP1 POP PUSH1 0x20 DUP5 PUSH2 0xD0F SWAP2 SWAP1 PUSH2 0x17E5 JUMP JUMPDEST PUSH2 0xD19 SWAP2 SWAP1 PUSH2 0x183F JUMP JUMPDEST SWAP1 POP PUSH1 0x0 DUP2 GT ISZERO PUSH2 0xD2B JUMPI DUP1 DUP3 MLOAD SUB DUP3 MSTORE JUMPDEST DUP2 SWAP4 POP POP POP POP SWAP4 SWAP3 POP POP POP JUMP JUMPDEST PUSH1 0x40 MLOAD DUP1 PUSH1 0x40 ADD PUSH1 0x40 MSTORE DUP1 PUSH1 0x0 DUP2 MSTORE PUSH1 0x20 ADD PUSH1 0x0 PUSH20 0xFFFFFFFFFFFFFFFFFFFFFFFFFFFFFFFFFFFFFFFF AND DUP2 MSTORE POP SWAP1 JUMP JUMPDEST PUSH1 0x0 DUP2 CALLDATALOAD SWAP1 POP PUSH2 0xD77 DUP2 PUSH2 0x1C4E JUMP JUMPDEST SWAP3 SWAP2 POP POP JUMP JUMPDEST PUSH1 0x0 DUP2 CALLDATALOAD SWAP1 POP PUSH2 0xD8C DUP2 PUSH2 0x1C65 JUMP JUMPDEST SWAP3 SWAP2 POP POP JUMP JUMPDEST PUSH1 0x0 DUP2 MLOAD SWAP1 POP PUSH2 0xDA1 DUP2 PUSH2 0x1C7C JUMP JUMPDEST SWAP3 SWAP2 POP POP JUMP JUMPDEST PUSH1 0x0 DUP2 CALLDATALOAD SWAP1 POP PUSH2 0xDB6 DUP2 PUSH2 0x1C93 JUMP JUMPDEST SWAP3 SWAP2 POP POP JUMP JUMPDEST PUSH1 0x0 DUP2 CALLDATALOAD SWAP1 POP PUSH2 0xDCB DUP2 PUSH2 0x1CAA JUMP JUMPDEST SWAP3 SWAP2 POP POP JUMP JUMPDEST PUSH1 0x0 DUP2 CALLDATALOAD SWAP1 POP PUSH2 0xDE0 DUP2 PUSH2 0x1CC1 JUMP JUMPDEST SWAP3 SWAP2 POP POP JUMP JUMPDEST PUSH1 0x0 DUP2 CALLDATALOAD SWAP1 POP PUSH2 0xDF5 DUP2 PUSH2 0x1CD8 JUMP JUMPDEST SWAP3 SWAP2 POP POP JUMP JUMPDEST PUSH1 0x0 DUP2 CALLDATALOAD SWAP1 POP PUSH2 0xE0A DUP2 PUSH2 0x1CEF JUMP JUMPDEST SWAP3 SWAP2 POP POP JUMP JUMPDEST PUSH1 0x0 DUP1 DUP4 PUSH1 0x1F DUP5 ADD SLT PUSH2 0xE26 JUMPI PUSH2 0xE25 PUSH2 0x1BC1 JUMP JUMPDEST JUMPDEST DUP3 CALLDATALOAD SWAP1 POP PUSH8 0xFFFFFFFFFFFFFFFF DUP2 GT ISZERO PUSH2 0xE43 JUMPI PUSH2 0xE42 PUSH2 0x1BBC JUMP JUMPDEST JUMPDEST PUSH1 0x20 DUP4 ADD SWAP2 POP DUP4 PUSH1 0x1 DUP3 MUL DUP4 ADD GT ISZERO PUSH2 0xE5F JUMPI PUSH2 0xE5E PUSH2 0x1BDF JUMP JUMPDEST JUMPDEST SWAP3 POP SWAP3 SWAP1 POP JUMP JUMPDEST PUSH1 0x0 PUSH2 0x240 DUP3 DUP5 SUB SLT ISZERO PUSH2 0xE7D JUMPI PUSH2 0xE7C PUSH2 0x1BCB JUMP JUMPDEST JUMPDEST DUP2 SWAP1 POP SWAP3 SWAP2 POP POP JUMP JUMPDEST PUSH1 0x0 DUP2 CALLDATALOAD SWAP1 POP PUSH2 0xE95 DUP2 PUSH2 0x1D06 JUMP JUMPDEST SWAP3 SWAP2 POP POP JUMP JUMPDEST PUSH1 0x0 PUSH1 0x20 DUP3 DUP5 SUB SLT ISZERO PUSH2 0xEB1 JUMPI PUSH2 0xEB0 PUSH2 0x1BEE JUMP JUMPDEST JUMPDEST PUSH1 0x0 PUSH2 0xEBF DUP5 DUP3 DUP6 ADD PUSH2 0xD68 JUMP JUMPDEST SWAP2 POP POP SWAP3 SWAP2 POP POP JUMP JUMPDEST PUSH1 0x0 PUSH1 0x20 DUP3 DUP5 SUB SLT ISZERO PUSH2 0xEDE JUMPI PUSH2 0xEDD PUSH2 0x1BEE JUMP JUMPDEST JUMPDEST PUSH1 0x0 PUSH2 0xEEC DUP5 DUP3 DUP6 ADD PUSH2 0xD7D JUMP JUMPDEST SWAP2 POP POP SWAP3 SWAP2 POP POP JUMP JUMPDEST PUSH1 0x0 DUP1 PUSH1 0x0 PUSH1 0x60 DUP5 DUP7 SUB SLT ISZERO PUSH2 0xF0E JUMPI PUSH2 0xF0D PUSH2 0x1BEE JUMP JUMPDEST JUMPDEST PUSH1 0x0 PUSH2 0xF1C DUP7 DUP3 DUP8 ADD PUSH2 0xD7D JUMP JUMPDEST SWAP4 POP POP PUSH1 0x20 PUSH2 0xF2D DUP7 DUP3 DUP8 ADD PUSH2 0xD68 JUMP JUMPDEST SWAP3 POP POP PUSH1 0x40 PUSH2 0xF3E DUP7 DUP3 DUP8 ADD PUSH2 0xE86 JUMP JUMPDEST SWAP2 POP POP SWAP3 POP SWAP3 POP SWAP3 JUMP JUMPDEST PUSH1 0x0 DUP1 PUSH1 0x0 DUP1 PUSH1 0x0 PUSH1 0x80 DUP7 DUP9 SUB SLT ISZERO PUSH2 0xF64 JUMPI PUSH2 0xF63 PUSH2 0x1BEE JUMP JUMPDEST JUMPDEST PUSH1 0x0 PUSH2 0xF72 DUP9 DUP3 DUP10 ADD PUSH2 0xD68 JUMP JUMPDEST SWAP6 POP POP PUSH1 0x20 PUSH2 0xF83 DUP9 DUP3 DUP10 ADD PUSH2 0xD68 JUMP JUMPDEST SWAP5 POP POP PUSH1 0x40 PUSH2 0xF94 DUP9 DUP3 DUP10 ADD PUSH2 0xE86 JUMP JUMPDEST SWAP4 POP POP PUSH1 0x60 DUP7 ADD CALLDATALOAD PUSH8 0xFFFFFFFFFFFFFFFF DUP2 GT ISZERO PUSH2 0xFB5 JUMPI PUSH2 0xFB4 PUSH2 0x1BE9 JUMP JUMPDEST JUMPDEST PUSH2 0xFC1 DUP9 DUP3 DUP10 ADD PUSH2 0xE10 JUMP JUMPDEST SWAP3 POP SWAP3 POP POP SWAP3 SWAP6 POP SWAP3 SWAP6 SWAP1 SWAP4 POP JUMP JUMPDEST PUSH1 0x0 PUSH1 0x20 DUP3 DUP5 SUB SLT ISZERO PUSH2 0xFE6 JUMPI PUSH2 0xFE5 PUSH2 0x1BEE JUMP JUMPDEST JUMPDEST PUSH1 0x0 PUSH2 0xFF4 DUP5 DUP3 DUP6 ADD PUSH2 0xD92 JUMP JUMPDEST SWAP2 POP POP SWAP3 SWAP2 POP POP JUMP JUMPDEST PUSH1 0x0 PUSH1 0x20 DUP3 DUP5 SUB SLT ISZERO PUSH2 0x1013 JUMPI PUSH2 0x1012 PUSH2 0x1BEE JUMP JUMPDEST JUMPDEST PUSH1 0x0 PUSH2 0x1021 DUP5 DUP3 DUP6 ADD PUSH2 0xDA7 JUMP JUMPDEST SWAP2 POP POP SWAP3 SWAP2 POP POP JUMP JUMPDEST PUSH1 0x0 PUSH1 0x20 DUP3 DUP5 SUB SLT ISZERO PUSH2 0x1040 JUMPI PUSH2 0x103F PUSH2 0x1BEE JUMP JUMPDEST JUMPDEST PUSH1 0x0 PUSH2 0x104E DUP5 DUP3 DUP6 ADD PUSH2 0xDBC JUMP JUMPDEST SWAP2 POP POP SWAP3 SWAP2 POP POP JUMP JUMPDEST PUSH1 0x0 PUSH1 0x20 DUP3 DUP5 SUB SLT ISZERO PUSH2 0x106D JUMPI PUSH2 0x106C PUSH2 0x1BEE JUMP JUMPDEST JUMPDEST PUSH1 0x0 PUSH2 0x107B DUP5 DUP3 DUP6 ADD PUSH2 0xDD1 JUMP JUMPDEST SWAP2 POP POP SWAP3 SWAP2 POP POP JUMP JUMPDEST PUSH1 0x0 DUP1 PUSH1 0x40 DUP4 DUP6 SUB SLT ISZERO PUSH2 0x109B JUMPI PUSH2 0x109A PUSH2 0x1BEE JUMP JUMPDEST JUMPDEST PUSH1 0x0 PUSH2 0x10A9 DUP6 DUP3 DUP7 ADD PUSH2 0xDE6 JUMP JUMPDEST SWAP3 POP POP PUSH1 0x20 DUP4 ADD CALLDATALOAD PUSH8 0xFFFFFFFFFFFFFFFF DUP2 GT ISZERO PUSH2 0x10CA JUMPI PUSH2 0x10C9 PUSH2 0x1BE9 JUMP JUMPDEST JUMPDEST PUSH2 0x10D6 DUP6 DUP3 DUP7 ADD PUSH2 0xE66 JUMP JUMPDEST SWAP2 POP POP SWAP3 POP SWAP3 SWAP1 POP JUMP JUMPDEST PUSH1 0x0 PUSH1 0x20 DUP3 DUP5 SUB SLT ISZERO PUSH2 0x10F6 JUMPI PUSH2 0x10F5 PUSH2 0x1BEE JUMP JUMPDEST JUMPDEST PUSH1 0x0 PUSH2 0x1104 DUP5 DUP3 DUP6 ADD PUSH2 0xDFB JUMP JUMPDEST SWAP2 POP POP SWAP3 SWAP2 POP POP JUMP JUMPDEST PUSH1 0x0 PUSH2 0x1119 DUP4 DUP4 PUSH2 0x129F JUMP JUMPDEST PUSH1 0x40 DUP4 ADD SWAP1 POP SWAP3 SWAP2 POP POP JUMP JUMPDEST PUSH2 0x112E DUP2 PUSH2 0x19F9 JUMP JUMPDEST DUP3 MSTORE POP POP JUMP JUMPDEST PUSH2 0x113D DUP2 PUSH2 0x1885 JUMP JUMPDEST DUP3 MSTORE POP POP JUMP JUMPDEST PUSH2 0x114C DUP2 PUSH2 0x1873 JUMP JUMPDEST DUP3 MSTORE POP POP JUMP JUMPDEST PUSH2 0x115B DUP2 PUSH2 0x1873 JUMP JUMPDEST DUP3 MSTORE POP POP JUMP JUMPDEST PUSH1 0x0 PUSH2 0x116C DUP3 PUSH2 0x16B7 JUMP JUMPDEST PUSH2 0x1176 DUP2 DUP6 PUSH2 0x16E5 JUMP JUMPDEST SWAP4 POP PUSH2 0x1181 DUP4 PUSH2 0x16A7 JUMP JUMPDEST DUP1 PUSH1 0x0 JUMPDEST DUP4 DUP2 LT ISZERO PUSH2 0x11B2 JUMPI DUP2 MLOAD PUSH2 0x1199 DUP9 DUP3 PUSH2 0x110D JUMP JUMPDEST SWAP8 POP PUSH2 0x11A4 DUP4 PUSH2 0x16D8 JUMP JUMPDEST SWAP3 POP POP PUSH1 0x1 DUP2 ADD SWAP1 POP PUSH2 0x1185 JUMP JUMPDEST POP DUP6 SWAP4 POP POP POP POP SWAP3 SWAP2 POP POP JUMP JUMPDEST PUSH2 0x11C8 DUP2 PUSH2 0x1927 JUMP JUMPDEST DUP3 MSTORE POP POP JUMP JUMPDEST PUSH2 0x11D7 DUP2 PUSH2 0x1927 JUMP JUMPDEST DUP3 MSTORE POP POP JUMP JUMPDEST PUSH2 0x11EE PUSH2 0x11E9 DUP3 PUSH2 0x1927 JUMP JUMPDEST PUSH2 0x1ABD JUMP JUMPDEST DUP3 MSTORE POP POP JUMP JUMPDEST PUSH2 0x11FD DUP2 PUSH2 0x1931 JUMP JUMPDEST DUP3 MSTORE POP POP JUMP JUMPDEST PUSH1 0x0 PUSH2 0x120E DUP3 PUSH2 0x16CD JUMP JUMPDEST PUSH2 0x1218 DUP2 DUP6 PUSH2 0x16F6 JUMP JUMPDEST SWAP4 POP PUSH2 0x1228 DUP2 DUP6 PUSH1 0x20 DUP7 ADD PUSH2 0x1A41 JUMP JUMPDEST PUSH2 0x1231 DUP2 PUSH2 0x1BF3 JUMP JUMPDEST DUP5 ADD SWAP2 POP POP SWAP3 SWAP2 POP POP JUMP JUMPDEST PUSH1 0x0 PUSH2 0x1247 DUP3 PUSH2 0x16CD JUMP JUMPDEST PUSH2 0x1251 DUP2 DUP6 PUSH2 0x1707 JUMP JUMPDEST SWAP4 POP PUSH2 0x1261 DUP2 DUP6 PUSH1 0x20 DUP7 ADD PUSH2 0x1A41 JUMP JUMPDEST DUP1 DUP5 ADD SWAP2 POP POP SWAP3 SWAP2 POP POP JUMP JUMPDEST PUSH2 0x1276 DUP2 PUSH2 0x1A0B JUMP JUMPDEST DUP3 MSTORE POP POP JUMP JUMPDEST PUSH1 0x0 PUSH2 0x1289 PUSH1 0x12 DUP4 PUSH2 0x1712 JUMP JUMPDEST SWAP2 POP PUSH2 0x1294 DUP3 PUSH2 0x1C11 JUMP JUMPDEST PUSH1 0x20 DUP3 ADD SWAP1 POP SWAP2 SWAP1 POP JUMP JUMPDEST PUSH1 0x40 DUP3 ADD PUSH1 0x0 DUP3 ADD MLOAD PUSH2 0x12B5 PUSH1 0x0 DUP6 ADD DUP3 PUSH2 0x1457 JUMP JUMPDEST POP PUSH1 0x20 DUP3 ADD MLOAD PUSH2 0x12C8 PUSH1 0x20 DUP6 ADD DUP3 PUSH2 0x1143 JUMP JUMPDEST POP POP POP POP JUMP JUMPDEST PUSH1 0x0 PUSH2 0x240 DUP4 ADD PUSH1 0x0 DUP4 ADD MLOAD PUSH2 0x12E7 PUSH1 0x0 DUP7 ADD DUP3 PUSH2 0x1143 JUMP JUMPDEST POP PUSH1 0x20 DUP4 ADD MLOAD PUSH2 0x12FA PUSH1 0x20 DUP7 ADD DUP3 PUSH2 0x1457 JUMP JUMPDEST POP PUSH1 0x40 DUP4 ADD MLOAD PUSH2 0x130D PUSH1 0x40 DUP7 ADD DUP3 PUSH2 0x1457 JUMP JUMPDEST POP PUSH1 0x60 DUP4 ADD MLOAD PUSH2 0x1320 PUSH1 0x60 DUP7 ADD DUP3 PUSH2 0x1134 JUMP JUMPDEST POP PUSH1 0x80 DUP4 ADD MLOAD PUSH2 0x1333 PUSH1 0x80 DUP7 ADD DUP3 PUSH2 0x1143 JUMP JUMPDEST POP PUSH1 0xA0 DUP4 ADD MLOAD PUSH2 0x1346 PUSH1 0xA0 DUP7 ADD DUP3 PUSH2 0x1143 JUMP JUMPDEST POP PUSH1 0xC0 DUP4 ADD MLOAD PUSH2 0x1359 PUSH1 0xC0 DUP7 ADD DUP3 PUSH2 0x1457 JUMP JUMPDEST POP PUSH1 0xE0 DUP4 ADD MLOAD PUSH2 0x136C PUSH1 0xE0 DUP7 ADD DUP3 PUSH2 0x1457 JUMP JUMPDEST POP PUSH2 0x100 DUP4 ADD MLOAD PUSH2 0x1381 PUSH2 0x100 DUP7 ADD DUP3 PUSH2 0x126D JUMP JUMPDEST POP PUSH2 0x120 DUP4 ADD MLOAD PUSH2 0x1396 PUSH2 0x120 DUP7 ADD DUP3 PUSH2 0x1457 JUMP JUMPDEST POP PUSH2 0x140 DUP4 ADD MLOAD PUSH2 0x13AB PUSH2 0x140 DUP7 ADD DUP3 PUSH2 0x1457 JUMP JUMPDEST POP PUSH2 0x160 DUP4 ADD MLOAD PUSH2 0x13C0 PUSH2 0x160 DUP7 ADD DUP3 PUSH2 0x11BF JUMP JUMPDEST POP PUSH2 0x180 DUP4 ADD MLOAD PUSH2 0x13D5 PUSH2 0x180 DUP7 ADD DUP3 PUSH2 0x1457 JUMP JUMPDEST POP PUSH2 0x1A0 DUP4 ADD MLOAD PUSH2 0x13EA PUSH2 0x1A0 DUP7 ADD DUP3 PUSH2 0x11BF JUMP JUMPDEST POP PUSH2 0x1C0 DUP4 ADD MLOAD PUSH2 0x13FF PUSH2 0x1C0 DUP7 ADD DUP3 PUSH2 0x11BF JUMP JUMPDEST POP PUSH2 0x1E0 DUP4 ADD MLOAD PUSH2 0x1414 PUSH2 0x1E0 DUP7 ADD DUP3 PUSH2 0x1457 JUMP JUMPDEST POP PUSH2 0x200 DUP4 ADD MLOAD DUP5 DUP3 SUB PUSH2 0x200 DUP7 ADD MSTORE PUSH2 0x142E DUP3 DUP3 PUSH2 0x1161 JUMP JUMPDEST SWAP2 POP POP PUSH2 0x220 DUP4 ADD MLOAD DUP5 DUP3 SUB PUSH2 0x220 DUP7 ADD MSTORE PUSH2 0x144A DUP3 DUP3 PUSH2 0x1203 JUMP JUMPDEST SWAP2 POP POP DUP1 SWAP2 POP POP SWAP3 SWAP2 POP POP JUMP JUMPDEST PUSH2 0x1460 DUP2 PUSH2 0x1990 JUMP JUMPDEST DUP3 MSTORE POP POP JUMP JUMPDEST PUSH2 0x146F DUP2 PUSH2 0x1990 JUMP JUMPDEST DUP3 MSTORE POP POP JUMP JUMPDEST PUSH2 0x1486 PUSH2 0x1481 DUP3 PUSH2 0x1990 JUMP JUMPDEST PUSH2 0x1AC7 JUMP JUMPDEST DUP3 MSTORE POP POP JUMP JUMPDEST PUSH1 0x0 PUSH2 0x1498 DUP3 DUP6 PUSH2 0x123C JUMP JUMPDEST SWAP2 POP PUSH2 0x14A4 DUP3 DUP5 PUSH2 0x11DD JUMP JUMPDEST PUSH1 0x20 DUP3 ADD SWAP2 POP DUP2 SWAP1 POP SWAP4 SWAP3 POP POP POP JUMP JUMPDEST PUSH1 0x0 PUSH2 0x14C0 DUP3 DUP6 PUSH2 0x1475 JUMP JUMPDEST PUSH1 0x20 DUP3 ADD SWAP2 POP PUSH2 0x14D0 DUP3 DUP5 PUSH2 0x1475 JUMP JUMPDEST PUSH1 0x20 DUP3 ADD SWAP2 POP DUP2 SWAP1 POP SWAP4 SWAP3 POP POP POP JUMP JUMPDEST PUSH1 0x0 PUSH1 0x20 DUP3 ADD SWAP1 POP PUSH2 0x14F5 PUSH1 0x0 DUP4 ADD DUP5 PUSH2 0x1152 JUMP JUMPDEST SWAP3 SWAP2 POP POP JUMP JUMPDEST PUSH1 0x0 PUSH1 0x60 DUP3 ADD SWAP1 POP PUSH2 0x1510 PUSH1 0x0 DUP4 ADD DUP7 PUSH2 0x1152 JUMP JUMPDEST PUSH2 0x151D PUSH1 0x20 DUP4 ADD DUP6 PUSH2 0x1125 JUMP JUMPDEST PUSH2 0x152A PUSH1 0x40 DUP4 ADD DUP5 PUSH2 0x1466 JUMP JUMPDEST SWAP5 SWAP4 POP POP POP POP JUMP JUMPDEST PUSH1 0x0 PUSH1 0x60 DUP3 ADD SWAP1 POP PUSH2 0x1547 PUSH1 0x0 DUP4 ADD DUP7 PUSH2 0x1152 JUMP JUMPDEST PUSH2 0x1554 PUSH1 0x20 DUP4 ADD DUP6 PUSH2 0x1152 JUMP JUMPDEST PUSH2 0x1561 PUSH1 0x40 DUP4 ADD DUP5 PUSH2 0x1466 JUMP JUMPDEST SWAP5 SWAP4 POP POP POP POP JUMP JUMPDEST PUSH1 0x0 PUSH1 0x20 DUP3 ADD SWAP1 POP PUSH2 0x157E PUSH1 0x0 DUP4 ADD DUP5 PUSH2 0x11CE JUMP JUMPDEST SWAP3 SWAP2 POP POP JUMP JUMPDEST PUSH1 0x0 PUSH1 0x20 DUP3 ADD SWAP1 POP PUSH2 0x1599 PUSH1 0x0 DUP4 ADD DUP5 PUSH2 0x11F4 JUMP JUMPDEST SWAP3 SWAP2 POP POP JUMP JUMPDEST PUSH1 0x0 PUSH1 0x20 DUP3 ADD SWAP1 POP DUP2 DUP2 SUB PUSH1 0x0 DUP4 ADD MSTORE PUSH2 0x15B8 DUP2 PUSH2 0x127C JUMP JUMPDEST SWAP1 POP SWAP2 SWAP1 POP JUMP JUMPDEST PUSH1 0x0 PUSH1 0x20 DUP3 ADD SWAP1 POP DUP2 DUP2 SUB PUSH1 0x0 DUP4 ADD MSTORE PUSH2 0x15D9 DUP2 DUP5 PUSH2 0x12CE JUMP JUMPDEST SWAP1 POP SWAP3 SWAP2 POP POP JUMP JUMPDEST PUSH1 0x0 DUP1 DUP4 CALLDATALOAD PUSH1 0x1 PUSH1 0x20 SUB DUP5 CALLDATASIZE SUB SUB DUP2 SLT PUSH2 0x15FE JUMPI PUSH2 0x15FD PUSH2 0x1BD0 JUMP JUMPDEST JUMPDEST DUP1 DUP5 ADD SWAP3 POP DUP3 CALLDATALOAD SWAP2 POP PUSH8 0xFFFFFFFFFFFFFFFF DUP3 GT ISZERO PUSH2 0x1620 JUMPI PUSH2 0x161F PUSH2 0x1BC6 JUMP JUMPDEST JUMPDEST PUSH1 0x20 DUP4 ADD SWAP3 POP PUSH1 0x40 DUP3 MUL CALLDATASIZE SUB DUP4 SGT ISZERO PUSH2 0x163C JUMPI PUSH2 0x163B PUSH2 0x1BE4 JUMP JUMPDEST JUMPDEST POP SWAP3 POP SWAP3 SWAP1 POP JUMP JUMPDEST PUSH1 0x0 DUP1 DUP4 CALLDATALOAD PUSH1 0x1 PUSH1 0x20 SUB DUP5 CALLDATASIZE SUB SUB DUP2 SLT PUSH2 0x1661 JUMPI PUSH2 0x1660 PUSH2 0x1BD0 JUMP JUMPDEST JUMPDEST DUP1 DUP5 ADD SWAP3 POP DUP3 CALLDATALOAD SWAP2 POP PUSH8 0xFFFFFFFFFFFFFFFF DUP3 GT ISZERO PUSH2 0x1683 JUMPI PUSH2 0x1682 PUSH2 0x1BC6 JUMP JUMPDEST JUMPDEST PUSH1 0x20 DUP4 ADD SWAP3 POP PUSH1 0x1 DUP3 MUL CALLDATASIZE SUB DUP4 SGT ISZERO PUSH2 0x169F JUMPI PUSH2 0x169E PUSH2 0x1BE4 JUMP JUMPDEST JUMPDEST POP SWAP3 POP SWAP3 SWAP1 POP JUMP JUMPDEST PUSH1 0x0 DUP2 SWAP1 POP PUSH1 0x20 DUP3 ADD SWAP1 POP SWAP2 SWAP1 POP JUMP JUMPDEST PUSH1 0x0 DUP2 MLOAD SWAP1 POP SWAP2 SWAP1 POP JUMP JUMPDEST PUSH1 0x0 DUP3 SWAP1 POP SWAP3 SWAP2 POP POP JUMP JUMPDEST PUSH1 0x0 DUP2 MLOAD SWAP1 POP SWAP2 SWAP1 POP JUMP JUMPDEST PUSH1 0x0 PUSH1 0x20 DUP3 ADD SWAP1 POP SWAP2 SWAP1 POP JUMP JUMPDEST PUSH1 0x0 DUP3 DUP3 MSTORE PUSH1 0x20 DUP3 ADD SWAP1 POP SWAP3 SWAP2 POP POP JUMP JUMPDEST PUSH1 0x0 DUP3 DUP3 MSTORE PUSH1 0x20 DUP3 ADD SWAP1 POP SWAP3 SWAP2 POP POP JUMP JUMPDEST PUSH1 0x0 DUP2 SWAP1 POP SWAP3 SWAP2 POP POP JUMP JUMPDEST PUSH1 0x0 DUP3 DUP3 MSTORE PUSH1 0x20 DUP3 ADD SWAP1 POP SWAP3 SWAP2 POP POP JUMP JUMPDEST PUSH1 0x0 DUP1 DUP6 DUP6 GT ISZERO PUSH2 0x1737 JUMPI PUSH2 0x1736 PUSH2 0x1BDA JUMP JUMPDEST JUMPDEST DUP4 DUP7 GT ISZERO PUSH2 0x1748 JUMPI PUSH2 0x1747 PUSH2 0x1BD5 JUMP JUMPDEST JUMPDEST PUSH1 0x1 DUP6 MUL DUP4 ADD SWAP2 POP DUP5 DUP7 SUB SWAP1 POP SWAP5 POP SWAP5 SWAP3 POP POP POP JUMP JUMPDEST PUSH1 0x0 PUSH2 0x1769 DUP3 PUSH2 0x1990 JUMP JUMPDEST SWAP2 POP PUSH2 0x1774 DUP4 PUSH2 0x1990 JUMP JUMPDEST SWAP3 POP DUP3 PUSH32 0xFFFFFFFFFFFFFFFFFFFFFFFFFFFFFFFFFFFFFFFFFFFFFFFFFFFFFFFFFFFFFFFF SUB DUP3 GT ISZERO PUSH2 0x17A9 JUMPI PUSH2 0x17A8 PUSH2 0x1AD1 JUMP JUMPDEST JUMPDEST DUP3 DUP3 ADD SWAP1 POP SWAP3 SWAP2 POP POP JUMP JUMPDEST PUSH1 0x0 PUSH2 0x17BF DUP3 PUSH2 0x1990 JUMP JUMPDEST SWAP2 POP PUSH2 0x17CA DUP4 PUSH2 0x1990 JUMP JUMPDEST SWAP3 POP DUP3 PUSH2 0x17DA JUMPI PUSH2 0x17D9 PUSH2 0x1B00 JUMP JUMPDEST JUMPDEST DUP3 DUP3 DIV SWAP1 POP SWAP3 SWAP2 POP POP JUMP JUMPDEST PUSH1 0x0 PUSH2 0x17F0 DUP3 PUSH2 0x1990 JUMP JUMPDEST SWAP2 POP PUSH2 0x17FB DUP4 PUSH2 0x1990 JUMP JUMPDEST SWAP3 POP DUP2 PUSH32 0xFFFFFFFFFFFFFFFFFFFFFFFFFFFFFFFFFFFFFFFFFFFFFFFFFFFFFFFFFFFFFFFF DIV DUP4 GT DUP3 ISZERO ISZERO AND ISZERO PUSH2 0x1834 JUMPI PUSH2 0x1833 PUSH2 0x1AD1 JUMP JUMPDEST JUMPDEST DUP3 DUP3 MUL SWAP1 POP SWAP3 SWAP2 POP POP JUMP JUMPDEST PUSH1 0x0 PUSH2 0x184A DUP3 PUSH2 0x1990 JUMP JUMPDEST SWAP2 POP PUSH2 0x1855 DUP4 PUSH2 0x1990 JUMP JUMPDEST SWAP3 POP DUP3 DUP3 LT ISZERO PUSH2 0x1868 JUMPI PUSH2 0x1867 PUSH2 0x1AD1 JUMP JUMPDEST JUMPDEST DUP3 DUP3 SUB SWAP1 POP SWAP3 SWAP2 POP POP JUMP JUMPDEST PUSH1 0x0 PUSH2 0x187E DUP3 PUSH2 0x1970 JUMP JUMPDEST SWAP1 POP SWAP2 SWAP1 POP JUMP JUMPDEST PUSH1 0x0 PUSH2 0x1890 DUP3 PUSH2 0x1970 JUMP JUMPDEST SWAP1 POP SWAP2 SWAP1 POP JUMP JUMPDEST PUSH1 0x0 DUP2 ISZERO ISZERO SWAP1 POP SWAP2 SWAP1 POP JUMP JUMPDEST PUSH1 0x0 PUSH32 0xFF00000000000000000000000000000000000000000000000000000000000000 DUP3 AND SWAP1 POP SWAP2 SWAP1 POP JUMP JUMPDEST PUSH1 0x0 PUSH32 0xFFFF000000000000000000000000000000000000000000000000000000000000 DUP3 AND SWAP1 POP SWAP2 SWAP1 POP JUMP JUMPDEST PUSH1 0x0 PUSH32 0xFFFFFFFFFFFFFFFFFFFFFFFFFFFFFFFFFFFFFFFF000000000000000000000000 DUP3 AND SWAP1 POP SWAP2 SWAP1 POP JUMP JUMPDEST PUSH1 0x0 DUP2 SWAP1 POP SWAP2 SWAP1 POP JUMP JUMPDEST PUSH1 0x0 PUSH32 0xFFFFFFFF00000000000000000000000000000000000000000000000000000000 DUP3 AND SWAP1 POP SWAP2 SWAP1 POP JUMP JUMPDEST PUSH1 0x0 DUP2 SWAP1 POP PUSH2 0x196B DUP3 PUSH2 0x1C3A JUMP JUMPDEST SWAP2 SWAP1 POP JUMP JUMPDEST PUSH1 0x0 PUSH20 0xFFFFFFFFFFFFFFFFFFFFFFFFFFFFFFFFFFFFFFFF DUP3 AND SWAP1 POP SWAP2 SWAP1 POP JUMP JUMPDEST PUSH1 0x0 DUP2 SWAP1 POP SWAP2 SWAP1 POP JUMP JUMPDEST PUSH1 0x0 PUSH2 0x19A6 DUP4 DUP4 PUSH2 0x16C2 JUMP JUMPDEST DUP3 PUSH2 0x19B1 DUP2 CALLDATALOAD PUSH2 0x1927 JUMP JUMPDEST SWAP3 POP PUSH1 0x20 DUP3 LT ISZERO PUSH2 0x19F1 JUMPI PUSH2 0x19EC PUSH32 0xFFFFFFFFFFFFFFFFFFFFFFFFFFFFFFFFFFFFFFFFFFFFFFFFFFFFFFFFFFFFFFFF DUP4 PUSH1 0x20 SUB PUSH1 0x8 MUL PUSH2 0x1C04 JUMP JUMPDEST DUP4 AND SWAP3 POP JUMPDEST POP POP SWAP3 SWAP2 POP POP JUMP JUMPDEST PUSH1 0x0 PUSH2 0x1A04 DUP3 PUSH2 0x1A1D JUMP JUMPDEST SWAP1 POP SWAP2 SWAP1 POP JUMP JUMPDEST PUSH1 0x0 PUSH2 0x1A16 DUP3 PUSH2 0x195D JUMP JUMPDEST SWAP1 POP SWAP2 SWAP1 POP JUMP JUMPDEST PUSH1 0x0 PUSH2 0x1A28 DUP3 PUSH2 0x1A2F JUMP JUMPDEST SWAP1 POP SWAP2 SWAP1 POP JUMP JUMPDEST PUSH1 0x0 PUSH2 0x1A3A DUP3 PUSH2 0x1970 JUMP JUMPDEST SWAP1 POP SWAP2 SWAP1 POP JUMP JUMPDEST PUSH1 0x0 JUMPDEST DUP4 DUP2 LT ISZERO PUSH2 0x1A5F JUMPI DUP1 DUP3 ADD MLOAD DUP2 DUP5 ADD MSTORE PUSH1 0x20 DUP2 ADD SWAP1 POP PUSH2 0x1A44 JUMP JUMPDEST DUP4 DUP2 GT ISZERO PUSH2 0x1A6E JUMPI PUSH1 0x0 DUP5 DUP5 ADD MSTORE JUMPDEST POP POP POP POP JUMP JUMPDEST PUSH1 0x0 PUSH2 0x1A7F DUP3 PUSH2 0x1990 JUMP JUMPDEST SWAP2 POP PUSH32 0xFFFFFFFFFFFFFFFFFFFFFFFFFFFFFFFFFFFFFFFFFFFFFFFFFFFFFFFFFFFFFFFF DUP3 EQ ISZERO PUSH2 0x1AB2 JUMPI PUSH2 0x1AB1 PUSH2 0x1AD1 JUMP JUMPDEST JUMPDEST PUSH1 0x1 DUP3 ADD SWAP1 POP SWAP2 SWAP1 POP JUMP JUMPDEST PUSH1 0x0 DUP2 SWAP1 POP SWAP2 SWAP1 POP JUMP JUMPDEST PUSH1 0x0 DUP2 SWAP1 POP SWAP2 SWAP1 POP JUMP JUMPDEST PUSH32 0x4E487B7100000000000000000000000000000000000000000000000000000000 PUSH1 0x0 MSTORE PUSH1 0x11 PUSH1 0x4 MSTORE PUSH1 0x24 PUSH1 0x0 REVERT JUMPDEST PUSH32 0x4E487B7100000000000000000000000000000000000000000000000000000000 PUSH1 0x0 MSTORE PUSH1 0x12 PUSH1 0x4 MSTORE PUSH1 0x24 PUSH1 0x0 REVERT JUMPDEST PUSH32 0x4E487B7100000000000000000000000000000000000000000000000000000000 PUSH1 0x0 MSTORE PUSH1 0x21 PUSH1 0x4 MSTORE PUSH1 0x24 PUSH1 0x0 REVERT JUMPDEST PUSH32 0x4E487B7100000000000000000000000000000000000000000000000000000000 PUSH1 0x0 MSTORE PUSH1 0x32 PUSH1 0x4 MSTORE PUSH1 0x24 PUSH1 0x0 REVERT JUMPDEST PUSH32 0x4E487B7100000000000000000000000000000000000000000000000000000000 PUSH1 0x0 MSTORE PUSH1 0x41 PUSH1 0x4 MSTORE PUSH1 0x24 PUSH1 0x0 REVERT JUMPDEST PUSH1 0x0 DUP1 REVERT JUMPDEST PUSH1 0x0 DUP1 REVERT JUMPDEST PUSH1 0x0 DUP1 REVERT JUMPDEST PUSH1 0x0 DUP1 REVERT JUMPDEST PUSH1 0x0 DUP1 REVERT JUMPDEST PUSH1 0x0 DUP1 REVERT JUMPDEST PUSH1 0x0 DUP1 REVERT JUMPDEST PUSH1 0x0 DUP1 REVERT JUMPDEST PUSH1 0x0 DUP1 REVERT JUMPDEST PUSH1 0x0 DUP1 REVERT JUMPDEST PUSH1 0x0 DUP1 REVERT JUMPDEST PUSH1 0x0 PUSH1 0x1F NOT PUSH1 0x1F DUP4 ADD AND SWAP1 POP SWAP2 SWAP1 POP JUMP JUMPDEST PUSH1 0x0 DUP3 DUP3 SHL SWAP1 POP SWAP3 SWAP2 POP POP JUMP JUMPDEST PUSH32 0x496E73756666696369656E742066756E64730000000000000000000000000000 PUSH1 0x0 DUP3 ADD MSTORE POP JUMP JUMPDEST PUSH1 0x18 DUP2 LT PUSH2 0x1C4B JUMPI PUSH2 0x1C4A PUSH2 0x1B2F JUMP JUMPDEST JUMPDEST POP JUMP JUMPDEST PUSH2 0x1C57 DUP2 PUSH2 0x1873 JUMP JUMPDEST DUP2 EQ PUSH2 0x1C62 JUMPI PUSH1 0x0 DUP1 REVERT JUMPDEST POP JUMP JUMPDEST PUSH2 0x1C6E DUP2 PUSH2 0x1885 JUMP JUMPDEST DUP2 EQ PUSH2 0x1C79 JUMPI PUSH1 0x0 DUP1 REVERT JUMPDEST POP JUMP JUMPDEST PUSH2 0x1C85 DUP2 PUSH2 0x1897 JUMP JUMPDEST DUP2 EQ PUSH2 0x1C90 JUMPI PUSH1 0x0 DUP1 REVERT JUMPDEST POP JUMP JUMPDEST PUSH2 0x1C9C DUP2 PUSH2 0x18A3 JUMP JUMPDEST DUP2 EQ PUSH2 0x1CA7 JUMPI PUSH1 0x0 DUP1 REVERT JUMPDEST POP JUMP JUMPDEST PUSH2 0x1CB3 DUP2 PUSH2 0x18CF JUMP JUMPDEST DUP2 EQ PUSH2 0x1CBE JUMPI PUSH1 0x0 DUP1 REVERT JUMPDEST POP JUMP JUMPDEST PUSH2 0x1CCA DUP2 PUSH2 0x18FB JUMP JUMPDEST DUP2 EQ PUSH2 0x1CD5 JUMPI PUSH1 0x0 DUP1 REVERT JUMPDEST POP JUMP JUMPDEST PUSH2 0x1CE1 DUP2 PUSH2 0x1927 JUMP JUMPDEST DUP2 EQ PUSH2 0x1CEC JUMPI PUSH1 0x0 DUP1 REVERT JUMPDEST POP JUMP JUMPDEST PUSH2 0x1CF8 DUP2 PUSH2 0x1931 JUMP JUMPDEST DUP2 EQ PUSH2 0x1D03 JUMPI PUSH1 0x0 DUP1 REVERT JUMPDEST POP JUMP JUMPDEST PUSH2 0x1D0F DUP2 PUSH2 0x1990 JUMP JUMPDEST DUP2 EQ PUSH2 0x1D1A JUMPI PUSH1 0x0 DUP1 REVERT JUMPDEST POP JUMP INVALID LOG2 PUSH5 0x6970667358 0x22 SLT KECCAK256 0x2D EXP 0x21 DUP2 PUSH28 0x44AA67E13CC0E80D89C6B26C1795E5F7F4CD625A5FEB054AE4BA5F64 PUSH20 0x6F6C634300080700330000000000000000000000 "
				},
				"gasEstimates": {
					"creation": {
						"codeDepositCost": "1501400",
						"executionCost": "infinite",
						"totalCost": "infinite"
					},
					"external": {
						"": "196",
						"destroy(address)": "30221",
						"generateNewKey()": "infinite",
						"getKey()": "4629",
						"getOwner()": "2566",
						"getRecipient()": "4737",
						"onERC721Received(address,address,uint256,bytes)": "infinite",
						"setRecipient(address)": "26956",
						"submitOpenSea(bytes32,(bytes1,bytes1,bytes1,bytes1,bytes2,bytes4,bytes4,bytes20,bytes20,bytes20,bytes20,bytes32,bytes32,bytes32,bytes32,bytes32,bytes,(bytes20,bytes32)[]))": "infinite",
						"transferToken(address,address,uint256)": "infinite",
						"withdrawAll(address)": "infinite"
					},
					"internal": {
						"decodeAddress(bytes32,bytes20)": "42",
						"decodeBytes(bytes32,bytes calldata)": "infinite",
						"decodeBytes(bytes32,bytes32)": "36",
						"decodeUint(bytes32,bytes32)": "42",
						"decodeUint1(bytes32,bytes1)": "48",
						"decodeUint2(bytes32,bytes2)": "48",
						"decodeUint4(bytes32,bytes4)": "48"
					}
				},
				"methodIdentifiers": {
					"destroy(address)": "00f55d9d",
					"generateNewKey()": "71d30350",
					"getKey()": "82678dd6",
					"getOwner()": "893d20e8",
					"getRecipient()": "1b88094d",
					"onERC721Received(address,address,uint256,bytes)": "150b7a02",
					"setRecipient(address)": "3bbed4a0",
					"submitOpenSea(bytes32,(bytes1,bytes1,bytes1,bytes1,bytes2,bytes4,bytes4,bytes20,bytes20,bytes20,bytes20,bytes32,bytes32,bytes32,bytes32,bytes32,bytes,(bytes20,bytes32)[]))": "4b5d60b4",
					"transferToken(address,address,uint256)": "f5537ede",
					"withdrawAll(address)": "fa09e630"
				}
			},
			"storageLayout": {
				"storage": [
					{
						"astId": 139,
						"contract": "main.sol:EncodedNFTDelegatorEfficient",
						"label": "owner",
						"offset": 0,
						"slot": "0",
						"type": "t_address"
					},
					{
						"astId": 141,
						"contract": "main.sol:EncodedNFTDelegatorEfficient",
						"label": "recipient",
						"offset": 0,
						"slot": "1",
						"type": "t_address"
					},
					{
						"astId": 143,
						"contract": "main.sol:EncodedNFTDelegatorEfficient",
						"label": "key",
						"offset": 0,
						"slot": "2",
						"type": "t_bytes32"
					}
				],
				"types": {
					"t_address": {
						"encoding": "inplace",
						"label": "address",
						"numberOfBytes": "20"
					},
					"t_bytes32": {
						"encoding": "inplace",
						"label": "bytes32",
						"numberOfBytes": "32"
					}
				}
			},
			"userdoc": {
				"kind": "user",
				"methods": {},
				"version": 1
			}
		}
	}
}