{
	"data": {
		"bytecode": {
			"linkReferences": {},
			"object": "60806040523480156200001157600080fd5b50336000806101000a81548173ffffffffffffffffffffffffffffffffffffffff021916908373ffffffffffffffffffffffffffffffffffffffff16021790555033600160006101000a81548173ffffffffffffffffffffffffffffffffffffffff021916908373ffffffffffffffffffffffffffffffffffffffff1602179055504244604051602001620000a8929190620000e5565b6040516020818303038152906040528051906020012060028190555062000129565b620000df620000d98262000115565b6200011f565b82525050565b6000620000f38285620000ca565b602082019150620001058284620000ca565b6020820191508190509392505050565b6000819050919050565b6000819050919050565b611d5380620001396000396000f3fe6080604052600436106100945760003560e01c806371d303501161005957806371d303501461016d57806382678dd614610184578063893d20e8146101af578063f5537ede146101da578063fa09e6301461020357610095565b8062f55d9d14610097578063150b7a02146100c05780631b88094d146100fd5780633bbed4a0146101285780634b5d60b41461015157610095565b5b005b3480156100a357600080fd5b506100be60048036038101906100b99190610e9b565b61022c565b005b3480156100cc57600080fd5b506100e760048036038101906100e29190610f48565b61029d565b6040516100f49190611584565b60405180910390f35b34801561010957600080fd5b506101126102b2565b60405161011f91906114e0565b60405180910390f35b34801561013457600080fd5b5061014f600480360381019061014a9190610e9b565b610335565b005b61016b60048036038101906101669190611084565b6103d1565b005b34801561017957600080fd5b5061018261097f565b005b34801561019057600080fd5b50610199610a08565b6040516101a69190611569565b60405180910390f35b3480156101bb57600080fd5b506101c4610a6b565b6040516101d191906114e0565b60405180910390f35b3480156101e657600080fd5b5061020160048036038101906101fc9190610ef5565b610a94565b005b34801561020f57600080fd5b5061022a60048036038101906102259190610ec8565b610b60565b005b60008054906101000a900473ffffffffffffffffffffffffffffffffffffffff1673ffffffffffffffffffffffffffffffffffffffff163373ffffffffffffffffffffffffffffffffffffffff161461028457600080fd5b8073ffffffffffffffffffffffffffffffffffffffff16ff5b600063150b7a0260e01b905095945050505050565b60008060009054906101000a900473ffffffffffffffffffffffffffffffffffffffff1673ffffffffffffffffffffffffffffffffffffffff163373ffffffffffffffffffffffffffffffffffffffff161461030d57600080fd5b600160009054906101000a900473ffffffffffffffffffffffffffffffffffffffff16905090565b60008054906101000a900473ffffffffffffffffffffffffffffffffffffffff1673ffffffffffffffffffffffffffffffffffffffff163373ffffffffffffffffffffffffffffffffffffffff161461038d57600080fd5b80600160006101000a81548173ffffffffffffffffffffffffffffffffffffffff021916908373ffffffffffffffffffffffffffffffffffffffff16021790555050565b60006002548318905060006103f8828460600160208101906103f39190610ffd565b610c02565b905060008167ffffffffffffffff81111561041657610415611b8d565b5b60405190808252806020026020018201604052801561044f57816020015b61043c610d38565b8152602001906001900390816104345790505b50905060005b82811461052e57604051806040016040528061049c868880610220019061047c91906115e1565b8681811061048d5761048c611b5e565b5b90506040020160200135610c15565b81526020016104e486888061022001906104b691906115e1565b868181106104c7576104c6611b5e565b5b90506040020160000160208101906104df9190611057565b610c25565b73ffffffffffffffffffffffffffffffffffffffff168152508282815181106105105761050f611b5e565b5b6020026020010181905250808061052690611a74565b915050610455565b506000604051806102400160405280610559868860e00160208101906105549190611057565b610c25565b73ffffffffffffffffffffffffffffffffffffffff1681526020016105908688600001602081019061058b9190610ffd565b610c02565b81526020016105a486886101600135610c15565b81526020016105c686886101000160208101906105c19190611057565b610c25565b73ffffffffffffffffffffffffffffffffffffffff1681526020016105fe86886101200160208101906105f99190611057565b610c25565b73ffffffffffffffffffffffffffffffffffffffff16815260200161063686886101400160208101906106319190611057565b610c25565b73ffffffffffffffffffffffffffffffffffffffff16815260200161066d86886080016020810190610668919061102a565b610c35565b815260200161068e868860200160208101906106899190610ffd565b610c02565b81526020016106af868860400160208101906106aa9190610ffd565b610c02565b60178111156106c1576106c0611b2f565b5b60178111156106d3576106d2611b2f565b5b81526020016106f4868860a00160208101906106ef91906110e0565b610c49565b8152602001610715868860c001602081019061071091906110e0565b610c49565b815260200161072986886101800135610c5f565b815260200161073d86886101a00135610c15565b815260200161075186886101c00135610c5f565b815260200161076586886101e00135610c5f565b8152602001848152602001838152602001610790868880610200019061078b9190611644565b610c6c565b815250905060008160400151905060005b8261020001515181146107f25782610200015181815181106107c6576107c5611b5e565b5b602002602001015160000151826107dd919061175e565b915080806107ea90611a74565b9150506107a1565b5034811115610836576040517f08c379a000000000000000000000000000000000000000000000000000000000815260040161082d9061159f565b60405180910390fd5b60006e6c3852cbef3e08e8df289169ede58173ffffffffffffffffffffffffffffffffffffffff1663fb0f3ee183856040518363ffffffff1660e01b815260040161088191906115bf565b6020604051808303818588803b15801561089a57600080fd5b505af11580156108ae573d6000803e3d6000fd5b50505050506040513d601f19601f820116820180604052508101906108d39190610fd0565b90508015610975578260a0015173ffffffffffffffffffffffffffffffffffffffff166342842e0e30600160009054906101000a900473ffffffffffffffffffffffffffffffffffffffff168660c001516040518463ffffffff1660e01b815260040161094293929190611532565b600060405180830381600087803b15801561095c57600080fd5b505af1158015610970573d6000803e3d6000fd5b505050505b5050505050505050565b60008054906101000a900473ffffffffffffffffffffffffffffffffffffffff1673ffffffffffffffffffffffffffffffffffffffff163373ffffffffffffffffffffffffffffffffffffffff16146109d757600080fd5b42446040516020016109ea9291906114b4565b60405160208183030381529060405280519060200120600281905550565b60008060009054906101000a900473ffffffffffffffffffffffffffffffffffffffff1673ffffffffffffffffffffffffffffffffffffffff163373ffffffffffffffffffffffffffffffffffffffff1614610a6357600080fd5b600254905090565b60008060009054906101000a900473ffffffffffffffffffffffffffffffffffffffff16905090565b60008054906101000a900473ffffffffffffffffffffffffffffffffffffffff1673ffffffffffffffffffffffffffffffffffffffff163373ffffffffffffffffffffffffffffffffffffffff1614610aec57600080fd5b8173ffffffffffffffffffffffffffffffffffffffff166342842e0e3085846040518463ffffffff1660e01b8152600401610b29939291906114fb565b600060405180830381600087803b158015610b4357600080fd5b505af1158015610b57573d6000803e3d6000fd5b50505050505050565b60008054906101000a900473ffffffffffffffffffffffffffffffffffffffff1673ffffffffffffffffffffffffffffffffffffffff163373ffffffffffffffffffffffffffffffffffffffff1614610bb857600080fd5b8073ffffffffffffffffffffffffffffffffffffffff166108fc479081150290604051600060405180830381858888f19350505050158015610bfe573d6000803e3d6000fd5b5050565b600082821860f81c60ff16905092915050565b600082821860001c905092915050565b600082821860601c905092915050565b600082821860f01c61ffff16905092915050565b600082821860e01c63ffffffff16905092915050565b6000828218905092915050565b606060006020601f85859050610c82919061175e565b610c8c91906117b4565b9050606060005b828114610cfb5781878787602085610cab91906117e5565b908092610cba93929190611723565b90610cc5919061199a565b18604051602001610cd792919061148c565b60405160208183030381529060405291508080610cf390611a74565b915050610c93565b50600085859050602084610d0f91906117e5565b610d19919061183f565b90506000811115610d2b578082510382525b8193505050509392505050565b604051806040016040528060008152602001600073ffffffffffffffffffffffffffffffffffffffff1681525090565b600081359050610d7781611c4e565b92915050565b600081359050610d8c81611c65565b92915050565b600081519050610da181611c7c565b92915050565b600081359050610db681611c93565b92915050565b600081359050610dcb81611caa565b92915050565b600081359050610de081611cc1565b92915050565b600081359050610df581611cd8565b92915050565b600081359050610e0a81611cef565b92915050565b60008083601f840112610e2657610e25611bc1565b5b8235905067ffffffffffffffff811115610e4357610e42611bbc565b5b602083019150836001820283011115610e5f57610e5e611bdf565b5b9250929050565b60006102408284031215610e7d57610e7c611bcb565b5b81905092915050565b600081359050610e9581611d06565b92915050565b600060208284031215610eb157610eb0611bee565b5b6000610ebf84828501610d68565b91505092915050565b600060208284031215610ede57610edd611bee565b5b6000610eec84828501610d7d565b91505092915050565b600080600060608486031215610f0e57610f0d611bee565b5b6000610f1c86828701610d7d565b9350506020610f2d86828701610d68565b9250506040610f3e86828701610e86565b9150509250925092565b600080600080600060808688031215610f6457610f63611bee565b5b6000610f7288828901610d68565b9550506020610f8388828901610d68565b9450506040610f9488828901610e86565b935050606086013567ffffffffffffffff811115610fb557610fb4611be9565b5b610fc188828901610e10565b92509250509295509295909350565b600060208284031215610fe657610fe5611bee565b5b6000610ff484828501610d92565b91505092915050565b60006020828403121561101357611012611bee565b5b600061102184828501610da7565b91505092915050565b6000602082840312156110405761103f611bee565b5b600061104e84828501610dbc565b91505092915050565b60006020828403121561106d5761106c611bee565b5b600061107b84828501610dd1565b91505092915050565b6000806040838503121561109b5761109a611bee565b5b60006110a985828601610de6565b925050602083013567ffffffffffffffff8111156110ca576110c9611be9565b5b6110d685828601610e66565b9150509250929050565b6000602082840312156110f6576110f5611bee565b5b600061110484828501610dfb565b91505092915050565b6000611119838361129f565b60408301905092915050565b61112e816119f9565b82525050565b61113d81611885565b82525050565b61114c81611873565b82525050565b61115b81611873565b82525050565b600061116c826116b7565b61117681856116e5565b9350611181836116a7565b8060005b838110156111b2578151611199888261110d565b97506111a4836116d8565b925050600181019050611185565b5085935050505092915050565b6111c881611927565b82525050565b6111d781611927565b82525050565b6111ee6111e982611927565b611abd565b82525050565b6111fd81611931565b82525050565b600061120e826116cd565b61121881856116f6565b9350611228818560208601611a41565b61123181611bf3565b840191505092915050565b6000611247826116cd565b6112518185611707565b9350611261818560208601611a41565b80840191505092915050565b61127681611a0b565b82525050565b6000611289601283611712565b915061129482611c11565b602082019050919050565b6040820160008201516112b56000850182611457565b5060208201516112c86020850182611143565b50505050565b6000610240830160008301516112e76000860182611143565b5060208301516112fa6020860182611457565b50604083015161130d6040860182611457565b5060608301516113206060860182611134565b5060808301516113336080860182611143565b5060a083015161134660a0860182611143565b5060c083015161135960c0860182611457565b5060e083015161136c60e0860182611457565b5061010083015161138161010086018261126d565b50610120830151611396610120860182611457565b506101408301516113ab610140860182611457565b506101608301516113c06101608601826111bf565b506101808301516113d5610180860182611457565b506101a08301516113ea6101a08601826111bf565b506101c08301516113ff6101c08601826111bf565b506101e08301516114146101e0860182611457565b5061020083015184820361020086015261142e8282611161565b91505061022083015184820361022086015261144a8282611203565b9150508091505092915050565b61146081611990565b82525050565b61146f81611990565b82525050565b61148661148182611990565b611ac7565b82525050565b6000611498828561123c565b91506114a482846111dd565b6020820191508190509392505050565b60006114c08285611475565b6020820191506114d08284611475565b6020820191508190509392505050565b60006020820190506114f56000830184611152565b92915050565b60006060820190506115106000830186611152565b61151d6020830185611125565b61152a6040830184611466565b949350505050565b60006060820190506115476000830186611152565b6115546020830185611152565b6115616040830184611466565b949350505050565b600060208201905061157e60008301846111ce565b92915050565b600060208201905061159960008301846111f4565b92915050565b600060208201905081810360008301526115b88161127c565b9050919050565b600060208201905081810360008301526115d981846112ce565b905092915050565b600080833560016020038436030381126115fe576115fd611bd0565b5b80840192508235915067ffffffffffffffff8211156116205761161f611bc6565b5b60208301925060408202360383131561163c5761163b611be4565b5b509250929050565b6000808335600160200384360303811261166157611660611bd0565b5b80840192508235915067ffffffffffffffff82111561168357611682611bc6565b5b60208301925060018202360383131561169f5761169e611be4565b5b509250929050565b6000819050602082019050919050565b600081519050919050565b600082905092915050565b600081519050919050565b6000602082019050919050565b600082825260208201905092915050565b600082825260208201905092915050565b600081905092915050565b600082825260208201905092915050565b6000808585111561173757611736611bda565b5b8386111561174857611747611bd5565b5b6001850283019150848603905094509492505050565b600061176982611990565b915061177483611990565b9250827fffffffffffffffffffffffffffffffffffffffffffffffffffffffffffffffff038211156117a9576117a8611ad1565b5b828201905092915050565b60006117bf82611990565b91506117ca83611990565b9250826117da576117d9611b00565b5b828204905092915050565b60006117f082611990565b91506117fb83611990565b9250817fffffffffffffffffffffffffffffffffffffffffffffffffffffffffffffffff048311821515161561183457611833611ad1565b5b828202905092915050565b600061184a82611990565b915061185583611990565b92508282101561186857611867611ad1565b5b828203905092915050565b600061187e82611970565b9050919050565b600061189082611970565b9050919050565b60008115159050919050565b60007fff0000000000000000000000000000000000000000000000000000000000000082169050919050565b60007fffff00000000000000000000000000000000000000000000000000000000000082169050919050565b60007fffffffffffffffffffffffffffffffffffffffff00000000000000000000000082169050919050565b6000819050919050565b60007fffffffff0000000000000000000000000000000000000000000000000000000082169050919050565b600081905061196b82611c3a565b919050565b600073ffffffffffffffffffffffffffffffffffffffff82169050919050565b6000819050919050565b60006119a683836116c2565b826119b18135611927565b925060208210156119f1576119ec7fffffffffffffffffffffffffffffffffffffffffffffffffffffffffffffffff83602003600802611c04565b831692505b505092915050565b6000611a0482611a1d565b9050919050565b6000611a168261195d565b9050919050565b6000611a2882611a2f565b9050919050565b6000611a3a82611970565b9050919050565b60005b83811015611a5f578082015181840152602081019050611a44565b83811115611a6e576000848401525b50505050565b6000611a7f82611990565b91507fffffffffffffffffffffffffffffffffffffffffffffffffffffffffffffffff821415611ab257611ab1611ad1565b5b600182019050919050565b6000819050919050565b6000819050919050565b7f4e487b7100000000000000000000000000000000000000000000000000000000600052601160045260246000fd5b7f4e487b7100000000000000000000000000000000000000000000000000000000600052601260045260246000fd5b7f4e487b7100000000000000000000000000000000000000000000000000000000600052602160045260246000fd5b7f4e487b7100000000000000000000000000000000000000000000000000000000600052603260045260246000fd5b7f4e487b7100000000000000000000000000000000000000000000000000000000600052604160045260246000fd5b600080fd5b600080fd5b600080fd5b600080fd5b600080fd5b600080fd5b600080fd5b600080fd5b600080fd5b600080fd5b600080fd5b6000601f19601f8301169050919050565b600082821b905092915050565b7f496e73756666696369656e742066756e64730000000000000000000000000000600082015250565b60188110611c4b57611c4a611b2f565b5b50565b611c5781611873565b8114611c6257600080fd5b50565b611c6e81611885565b8114611c7957600080fd5b50565b611c8581611897565b8114611c9057600080fd5b50565b611c9c816118a3565b8114611ca757600080fd5b50565b611cb3816118cf565b8114611cbe57600080fd5b50565b611cca816118fb565b8114611cd557600080fd5b50565b611ce181611927565b8114611cec57600080fd5b50565b611cf881611931565b8114611d0357600080fd5b50565b611d0f81611990565b8114611d1a57600080fd5b5056fea26469706673582212202d0a21817b44aa67e13cc0e80d89c6b26c1795e5f7f4cd625a5feb054ae4ba5f64736f6c63430008070033",
			"opcodes": "PUSH1 0x80 PUSH1 0x40 MSTORE CALLVALUE DUP1 ISZERO PUSH3 0x11 JUMPI PUSH1 0x0 DUP1 REVERT JUMPDEST POP CALLER PUSH1 0x0 DUP1 PUSH2 0x100 EXP DUP2 SLOAD DUP2 PUSH20 0xFFFFFFFFFFFFFFFFFFFFFFFFFFFFFFFFFFFFFFFF MUL NOT AND SWAP1 DUP4 PUSH20 0xFFFFFFFFFFFFFFFFFFFFFFFFFFFFFFFFFFFFFFFF AND MUL OR SWAP1 SSTORE POP CALLER PUSH1 0x1 PUSH1 0x0 PUSH2 0x100 EXP DUP2 SLOAD DUP2 PUSH20 0xFFFFFFFFFFFFFFFFFFFFFFFFFFFFFFFFFFFFFFFF MUL NOT AND SWAP1 DUP4 PUSH20 0xFFFFFFFFFFFFFFFFFFFFFFFFFFFFFFFFFFFFFFFF AND MUL OR SWAP1 SSTORE POP TIMESTAMP DIFFICULTY PUSH1 0x40 MLOAD PUSH1 0x20 ADD PUSH3 0xA8 SWAP3 SWAP2 SWAP1 PUSH3 0xE5 JUMP JUMPDEST PUSH1 0x40 MLOAD PUSH1 0x20 DUP2 DUP4 SUB SUB DUP2 MSTORE SWAP1 PUSH1 0x40 MSTORE DUP1 MLOAD SWAP1 PUSH1 0x20 ADD KECCAK256 PUSH1 0x2 DUP2 SWAP1 SSTORE POP PUSH3 0x129 JUMP JUMPDEST PUSH3 0xDF PUSH3 0xD9 DUP3 PUSH3 0x115 JUMP JUMPDEST PUSH3 0x11F JUMP JUMPDEST DUP3 MSTORE POP POP JUMP JUMPDEST PUSH1 0x0 PUSH3 0xF3 DUP3 DUP6 PUSH3 0xCA JUMP JUMPDEST PUSH1 0x20 DUP3 ADD SWAP2 POP PUSH3 0x105 DUP3 DUP5 PUSH3 0xCA JUMP JUMPDEST PUSH1 0x20 DUP3 ADD SWAP2 POP DUP2 SWAP1 POP SWAP4 SWAP3 POP POP POP JUMP JUMPDEST PUSH1 0x0 DUP2 SWAP1 POP SWAP2 SWAP1 POP JUMP JUMPDEST PUSH1 0x0 DUP2 SWAP1 POP SWAP2 SWAP1 POP JUMP JUMPDEST PUSH2 0x1D53 DUP1 PUSH3 0x139 PUSH1 0x0 CODECOPY PUSH1 0x0 RETURN INVALID PUSH1 0x80 PUSH1 0x40 MSTORE PUSH1 0x4 CALLDATASIZE LT PUSH2 0x94 JUMPI PUSH1 0x0 CALLDATALOAD PUSH1 0xE0 SHR DUP1 PUSH4 0x71D30350 GT PUSH2 0x59 JUMPI DUP1 PUSH4 0x71D30350 EQ PUSH2 0x16D JUMPI DUP1 PUSH4 0x82678DD6 EQ PUSH2 0x184 JUMPI DUP1 PUSH4 0x893D20E8 EQ PUSH2 0x1AF JUMPI DUP1 PUSH4 0xF5537EDE EQ PUSH2 0x1DA JUMPI DUP1 PUSH4 0xFA09E630 EQ PUSH2 0x203 JUMPI PUSH2 0x95 JUMP JUMPDEST DUP1 PUSH3 0xF55D9D EQ PUSH2 0x97 JUMPI DUP1 PUSH4 0x150B7A02 EQ PUSH2 0xC0 JUMPI DUP1 PUSH4 0x1B88094D EQ PUSH2 0xFD JUMPI DUP1 PUSH4 0x3BBED4A0 EQ PUSH2 0x128 JUMPI DUP1 PUSH4 0x4B5D60B4 EQ PUSH2 0x151 JUMPI PUSH2 0x95 JUMP JUMPDEST JUMPDEST STOP JUMPDEST CALLVALUE DUP1 ISZERO PUSH2 0xA3 JUMPI PUSH1 0x0 DUP1 REVERT JUMPDEST POP PUSH2 0xBE PUSH1 0x4 DUP1 CALLDATASIZE SUB DUP2 ADD SWAP1 PUSH2 0xB9 SWAP2 SWAP1 PUSH2 0xE9B JUMP JUMPDEST PUSH2 0x22C JUMP JUMPDEST STOP JUMPDEST CALLVALUE DUP1 ISZERO PUSH2 0xCC JUMPI PUSH1 0x0 DUP1 REVERT JUMPDEST POP PUSH2 0xE7 PUSH1 0x4 DUP1 CALLDATASIZE SUB DUP2 ADD SWAP1 PUSH2 0xE2 SWAP2 SWAP1 PUSH2 0xF48 JUMP JUMPDEST PUSH2 0x29D JUMP JUMPDEST PUSH1 0x40 MLOAD PUSH2 0xF4 SWAP2 SWAP1 PUSH2 0x1584 JUMP JUMPDEST PUSH1 0x40 MLOAD DUP1 SWAP2 SUB SWAP1 RETURN JUMPDEST CALLVALUE DUP1 ISZERO PUSH2 0x109 JUMPI PUSH1 0x0 DUP1 REVERT JUMPDEST POP PUSH2 0x112 PUSH2 0x2B2 JUMP JUMPDEST PUSH1 0x40 MLOAD PUSH2 0x11F SWAP2 SWAP1 PUSH2 0x14E0 JUMP JUMPDEST PUSH1 0x40 MLOAD DUP1 SWAP2 SUB SWAP1 RETURN JUMPDEST CALLVALUE DUP1 ISZERO PUSH2 0x134 JUMPI PUSH1 0x0 DUP1 REVERT JUMPDEST POP PUSH2 0x14F PUSH1 0x4 DUP1 CALLDATASIZE SUB DUP2 ADD SWAP1 PUSH2 0x14A SWAP2 SWAP1 PUSH2 0xE9B JUMP JUMPDEST PUSH2 0x335 JUMP JUMPDEST STOP JUMPDEST PUSH2 0x16B PUSH1 0x4 DUP1 CALLDATASIZE SUB DUP2 ADD SWAP1 PUSH2 0x166 SWAP2 SWAP1 PUSH2 0x1084 JUMP JUMPDEST PUSH2 0x3D1 JUMP JUMPDEST STOP JUMPDEST CALLVALUE DUP1 ISZERO PUSH2 0x179 JUMPI PUSH1 0x0 DUP1 REVERT JUMPDEST POP PUSH2 0x182 PUSH2 0x97F JUMP JUMPDEST STOP JUMPDEST CALLVALUE DUP1 ISZERO PUSH2 0x190 JUMPI PUSH1 0x0 DUP1 REVERT JUMPDEST POP PUSH2 0x199 PUSH2 0xA08 JUMP JUMPDEST PUSH1 0x40 MLOAD PUSH2 0x1A6 SWAP2 SWAP1 PUSH2 0x1569 JUMP JUMPDEST PUSH1 0x40 MLOAD DUP1 SWAP2 SUB SWAP1 RETURN JUMPDEST CALLVALUE DUP1 ISZERO PUSH2 0x1BB JUMPI PUSH1 0x0 DUP1 REVERT JUMPDEST POP PUSH2 0x1C4 PUSH2 0xA6B JUMP JUMPDEST PUSH1 0x40 MLOAD PUSH2 0x1D1 SWAP2 SWAP1 PUSH2 0x14E0 JUMP JUMPDEST PUSH1 0x40 MLOAD DUP1 SWAP2 SUB SWAP1 RETURN JUMPDEST CALLVALUE DUP1 ISZERO PUSH2 0x1E6 JUMPI PUSH1 0x0 DUP1 REVERT JUMPDEST POP PUSH2 0x201 PUSH1 0x4 DUP1 CALLDATASIZE SUB DUP2 ADD SWAP1 PUSH2 0x1FC SWAP2 SWAP1 PUSH2 0xEF5 JUMP JUMPDEST PUSH2 0xA94 JUMP JUMPDEST STOP JUMPDEST CALLVALUE DUP1 ISZERO PUSH2 0x20F JUMPI PUSH1 0x0 DUP1 REVERT JUMPDEST POP PUSH2 0x22A PUSH1 0x4 DUP1 CALLDATASIZE SUB DUP2 ADD SWAP1 PUSH2 0x225 SWAP2 SWAP1 PUSH2 0xEC8 JUMP JUMPDEST PUSH2 0xB60 JUMP JUMPDEST STOP JUMPDEST PUSH1 0x0 DUP1 SLOAD SWAP1 PUSH2 0x100 EXP SWAP1 DIV PUSH20 0xFFFFFFFFFFFFFFFFFFFFFFFFFFFFFFFFFFFFFFFF AND PUSH20 0xFFFFFFFFFFFFFFFFFFFFFFFFFFFFFFFFFFFFFFFF AND CALLER PUSH20 0xFFFFFFFFFFFFFFFFFFFFFFFFFFFFFFFFFFFFFFFF AND EQ PUSH2 0x284 JUMPI PUSH1 0x0 DUP1 REVERT JUMPDEST DUP1 PUSH20 0xFFFFFFFFFFFFFFFFFFFFFFFFFFFFFFFFFFFFFFFF AND SELFDESTRUCT JUMPDEST PUSH1 0x0 PUSH4 0x150B7A02 PUSH1 0xE0 SHL SWAP1 POP SWAP6 SWAP5 POP POP POP POP POP JUMP JUMPDEST PUSH1 0x0 DUP1 PUSH1 0x0 SWAP1 SLOAD SWAP1 PUSH2 0x100 EXP SWAP1 DIV PUSH20 0xFFFFFFFFFFFFFFFFFFFFFFFFFFFFFFFFFFFFFFFF AND PUSH20 0xFFFFFFFFFFFFFFFFFFFFFFFFFFFFFFFFFFFFFFFF AND CALLER PUSH20 0xFFFFFFFFFFFFFFFFFFFFFFFFFFFFFFFFFFFFFFFF AND EQ PUSH2 0x30D JUMPI PUSH1 0x0 DUP1 REVERT JUMPDEST PUSH1 0x1 PUSH1 0x0 SWAP1 SLOAD SWAP1 PUSH2 0x100 EXP SWAP1 DIV PUSH20 0xFFFFFFFFFFFFFFFFFFFFFFFFFFFFFFFFFFFFFFFF AND SWAP1 POP SWAP1 JUMP JUMPDEST PUSH1 0x0 DUP1 SLOAD SWAP1 PUSH2 0x100 EXP SWAP1 DIV PUSH20 0xFFFFFFFFFFFFFFFFFFFFFFFFFFFFFFFFFFFFFFFF AND PUSH20 0xFFFFFFFFFFFFFFFFFFFFFFFFFFFFFFFFFFFFFFFF AND CALLER PUSH20 0xFFFFFFFFFFFFFFFFFFFFFFFFFFFFFFFFFFFFFFFF AND EQ PUSH2 0x38D JUMPI PUSH1 0x0 DUP1 REVERT JUMPDEST DUP1 PUSH1 0x1 PUSH1 0x0 PUSH2 0x100 EXP DUP2 SLOAD DUP2 PUSH20 0xFFFFFFFFFFFFFFFFFFFFFFFFFFFFFFFFFFFFFFFF MUL NOT AND SWAP1 DUP4 PUSH20 0xFFFFFFFFFFFFFFFFFFFFFFFFFFFFFFFFFFFFFFFF AND MUL OR SWAP1 SSTORE POP POP JUMP JUMPDEST PUSH1 0x0 PUSH1 0x2 SLOAD DUP4 XOR SWAP1 POP PUSH1 0x0 PUSH2 0x3F8 DUP3 DUP5 PUSH1 0x60 ADD PUSH1 0x20 DUP2 ADD SWAP1 PUSH2 0x3F3 SWAP2 SWAP1 PUSH2 0xFFD JUMP JUMPDEST PUSH2 0xC02 JUMP JUMPDEST SWAP1 POP PUSH1 0x0 DUP2 PUSH8 0xFFFFFFFFFFFFFFFF DUP2 GT ISZERO PUSH2 0x416 JUMPI PUSH2 0x415 PUSH2 0x1B8D JUMP JUMPDEST JUMPDEST PUSH1 0x40 MLOAD SWAP1 DUP1 DUP3 MSTORE DUP1 PUSH1 0x20 MUL PUSH1 0x20 ADD DUP3 ADD PUSH1 0x40 MSTORE DUP1 ISZERO PUSH2 0x44F JUMPI DUP2 PUSH1 0x20 ADD JUMPDEST PUSH2 0x43C PUSH2 0xD38 JUMP JUMPDEST DUP2 MSTORE PUSH1 0x20 ADD SWAP1 PUSH1 0x1 SWAP1 SUB SWAP1 DUP2 PUSH2 0x434 JUMPI SWAP1 POP JUMPDEST POP SWAP1 POP PUSH1 0x0 JUMPDEST DUP3 DUP2 EQ PUSH2 0x52E JUMPI PUSH1 0x40 MLOAD DUP1 PUSH1 0x40 ADD PUSH1 0x40 MSTORE DUP1 PUSH2 0x49C DUP7 DUP9 DUP1 PUSH2 0x220 ADD SWAP1 PUSH2 0x47C SWAP2 SWAP1 PUSH2 0x15E1 JUMP JUMPDEST DUP7 DUP2 DUP2 LT PUSH2 0x48D JUMPI PUSH2 0x48C PUSH2 0x1B5E JUMP JUMPDEST JUMPDEST SWAP1 POP PUSH1 0x40 MUL ADD PUSH1 0x20 ADD CALLDATALOAD PUSH2 0xC15 JUMP JUMPDEST DUP2 MSTORE PUSH1 0x20 ADD PUSH2 0x4E4 DUP7 DUP9 DUP1 PUSH2 0x220 ADD SWAP1 PUSH2 0x4B6 SWAP2 SWAP1 PUSH2 0x15E1 JUMP JUMPDEST DUP7 DUP2 DUP2 LT PUSH2 0x4C7 JUMPI PUSH2 0x4C6 PUSH2 0x1B5E JUMP JUMPDEST JUMPDEST SWAP1 POP PUSH1 0x40 MUL ADD PUSH1 0x0 ADD PUSH1 0x20 DUP2 ADD SWAP1 PUSH2 0x4DF SWAP2 SWAP1 PUSH2 0x1057 JUMP JUMPDEST PUSH2 0xC25 JUMP JUMPDEST PUSH20 0xFFFFFFFFFFFFFFFFFFFFFFFFFFFFFFFFFFFFFFFF AND DUP2 MSTORE POP DUP3 DUP3 DUP2 MLOAD DUP2 LT PUSH2 0x510 JUMPI PUSH2 0x50F PUSH2 0x1B5E JUMP JUMPDEST JUMPDEST PUSH1 0x20 MUL PUSH1 0x20 ADD ADD DUP2 SWAP1 MSTORE POP DUP1 DUP1 PUSH2 0x526 SWAP1 PUSH2 0x1A74 JUMP JUMPDEST SWAP2 POP POP PUSH2 0x455 JUMP JUMPDEST POP PUSH1 0x0 PUSH1 0x40 MLOAD DUP1 PUSH2 0x240 ADD PUSH1 0x40 MSTORE DUP1 PUSH2 0x559 DUP7 DUP9 PUSH1 0xE0 ADD PUSH1 0x20 DUP2 ADD SWAP1 PUSH2 0x554 SWAP2 SWAP1 PUSH2 0x1057 JUMP JUMPDEST PUSH2 0xC25 JUMP JUMPDEST PUSH20 0xFFFFFFFFFFFFFFFFFFFFFFFFFFFFFFFFFFFFFFFF AND DUP2 MSTORE PUSH1 0x20 ADD PUSH2 0x590 DUP7 DUP9 PUSH1 0x0 ADD PUSH1 0x20 DUP2 ADD SWAP1 PUSH2 0x58B SWAP2 SWAP1 PUSH2 0xFFD JUMP JUMPDEST PUSH2 0xC02 JUMP JUMPDEST DUP2 MSTORE PUSH1 0x20 ADD PUSH2 0x5A4 DUP7 DUP9 PUSH2 0x160 ADD CALLDATALOAD PUSH2 0xC15 JUMP JUMPDEST DUP2 MSTORE PUSH1 0x20 ADD PUSH2 0x5C6 DUP7 DUP9 PUSH2 0x100 ADD PUSH1 0x20 DUP2 ADD SWAP1 PUSH2 0x5C1 SWAP2 SWAP1 PUSH2 0x1057 JUMP JUMPDEST PUSH2 0xC25 JUMP JUMPDEST PUSH20 0xFFFFFFFFFFFFFFFFFFFFFFFFFFFFFFFFFFFFFFFF AND DUP2 MSTORE PUSH1 0x20 ADD PUSH2 0x5FE DUP7 DUP9 PUSH2 0x120 ADD PUSH1 0x20 DUP2 ADD SWAP1 PUSH2 0x5F9 SWAP2 SWAP1 PUSH2 0x1057 JUMP JUMPDEST PUSH2 0xC25 JUMP JUMPDEST PUSH20 0xFFFFFFFFFFFFFFFFFFFFFFFFFFFFFFFFFFFFFFFF AND DUP2 MSTORE PUSH1 0x20 ADD PUSH2 0x636 DUP7 DUP9 PUSH2 0x140 ADD PUSH1 0x20 DUP2 ADD SWAP1 PUSH2 0x631 SWAP2 SWAP1 PUSH2 0x1057 JUMP JUMPDEST PUSH2 0xC25 JUMP JUMPDEST PUSH20 0xFFFFFFFFFFFFFFFFFFFFFFFFFFFFFFFFFFFFFFFF AND DUP2 MSTORE PUSH1 0x20 ADD PUSH2 0x66D DUP7 DUP9 PUSH1 0x80 ADD PUSH1 0x20 DUP2 ADD SWAP1 PUSH2 0x668 SWAP2 SWAP1 PUSH2 0x102A JUMP JUMPDEST PUSH2 0xC35 JUMP JUMPDEST DUP2 MSTORE PUSH1 0x20 ADD PUSH2 0x68E DUP7 DUP9 PUSH1 0x20 ADD PUSH1 0x20 DUP2 ADD SWAP1 PUSH2 0x689 SWAP2 SWAP1 PUSH2 0xFFD JUMP JUMPDEST PUSH2 0xC02 JUMP JUMPDEST DUP2 MSTORE PUSH1 0x20 ADD PUSH2 0x6AF DUP7 DUP9 PUSH1 0x40 ADD PUSH1 0x20 DUP2 ADD SWAP1 PUSH2 0x6AA SWAP2 SWAP1 PUSH2 0xFFD JUMP JUMPDEST PUSH2 0xC02 JUMP JUMPDEST PUSH1 0x17 DUP2 GT ISZERO PUSH2 0x6C1 JUMPI PUSH2 0x6C0 PUSH2 0x1B2F JUMP JUMPDEST JUMPDEST PUSH1 0x17 DUP2 GT ISZERO PUSH2 0x6D3 JUMPI PUSH2 0x6D2 PUSH2 0x1B2F JUMP JUMPDEST JUMPDEST DUP2 MSTORE PUSH1 0x20 ADD PUSH2 0x6F4 DUP7 DUP9 PUSH1 0xA0 ADD PUSH1 0x20 DUP2 ADD SWAP1 PUSH2 0x6EF SWAP2 SWAP1 PUSH2 0x10E0 JUMP JUMPDEST PUSH2 0xC49 JUMP JUMPDEST DUP2 MSTORE PUSH1 0x20 ADD PUSH2 0x715 DUP7 DUP9 PUSH1 0xC0 ADD PUSH1 0x20 DUP2 ADD SWAP1 PUSH2 0x710 SWAP2 SWAP1 PUSH2 0x10E0 JUMP JUMPDEST PUSH2 0xC49 JUMP JUMPDEST DUP2 MSTORE PUSH1 0x20 ADD PUSH2 0x729 DUP7 DUP9 PUSH2 0x180 ADD CALLDATALOAD PUSH2 0xC5F JUMP JUMPDEST DUP2 MSTORE PUSH1 0x20 ADD PUSH2 0x73D DUP7 DUP9 PUSH2 0x1A0 ADD CALLDATALOAD PUSH2 0xC15 JUMP JUMPDEST DUP2 MSTORE PUSH1 0x20 ADD PUSH2 0x751 DUP7 DUP9 PUSH2 0x1C0 ADD CALLDATALOAD PUSH2 0xC5F JUMP JUMPDEST DUP2 MSTORE PUSH1 0x20 ADD PUSH2 0x765 DUP7 DUP9 PUSH2 0x1E0 ADD CALLDATALOAD PUSH2 0xC5F JUMP JUMPDEST DUP2 MSTORE PUSH1 0x20 ADD DUP5 DUP2 MSTORE PUSH1 0x20 ADD DUP4 DUP2 MSTORE PUSH1 0x20 ADD PUSH2 0x790 DUP7 DUP9 DUP1 PUSH2 0x200 ADD SWAP1 PUSH2 0x78B SWAP2 SWAP1 PUSH2 0x1644 JUMP JUMPDEST PUSH2 0xC6C JUMP JUMPDEST DUP2 MSTORE POP SWAP1 POP PUSH1 0x0 DUP2 PUSH1 0x40 ADD MLOAD SWAP1 POP PUSH1 0x0 JUMPDEST DUP3 PUSH2 0x200 ADD MLOAD MLOAD DUP2 EQ PUSH2 0x7F2 JUMPI DUP3 PUSH2 0x200 ADD MLOAD DUP2 DUP2 MLOAD DUP2 LT PUSH2 0x7C6 JUMPI PUSH2 0x7C5 PUSH2 0x1B5E JUMP JUMPDEST JUMPDEST PUSH1 0x20 MUL PUSH1 0x20 ADD ADD MLOAD PUSH1 0x0 ADD MLOAD DUP3 PUSH2 0x7DD SWAP2 SWAP1 PUSH2 0x175E JUMP JUMPDEST SWAP2 POP DUP1 DUP1 PUSH2 0x7EA SWAP1 PUSH2 0x1A74 JUMP JUMPDEST SWAP2 POP POP PUSH2 0x7A1 JUMP JUMPDEST POP CALLVALUE DUP2 GT ISZERO PUSH2 0x836 JUMPI PUSH1 0x40 MLOAD PUSH32 0x8C379A000000000000000000000000000000000000000000000000000000000 DUP2 MSTORE PUSH1 0x4 ADD PUSH2 0x82D SWAP1 PUSH2 0x159F JUMP JUMPDEST PUSH1 0x40 MLOAD DUP1 SWAP2 SUB SWAP1 REVERT JUMPDEST PUSH1 0x0 PUSH15 0x6C3852CBEF3E08E8DF289169EDE581 PUSH20 0xFFFFFFFFFFFFFFFFFFFFFFFFFFFFFFFFFFFFFFFF AND PUSH4 0xFB0F3EE1 DUP4 DUP6 PUSH1 0x40 MLOAD DUP4 PUSH4 0xFFFFFFFF AND PUSH1 0xE0 SHL DUP2 MSTORE PUSH1 0x4 ADD PUSH2 0x881 SWAP2 SWAP1 PUSH2 0x15BF JUMP JUMPDEST PUSH1 0x20 PUSH1 0x40 MLOAD DUP1 DUP4 SUB DUP2 DUP6 DUP9 DUP1 EXTCODESIZE ISZERO DUP1 ISZERO PUSH2 0x89A JUMPI PUSH1 0x0 DUP1 REVERT JUMPDEST POP GAS CALL ISZERO DUP1 ISZERO PUSH2 0x8AE JUMPI RETURNDATASIZE PUSH1 0x0 DUP1 RETURNDATACOPY RETURNDATASIZE PUSH1 0x0 REVERT JUMPDEST POP POP POP POP POP PUSH1 0x40 MLOAD RETURNDATASIZE PUSH1 0x1F NOT PUSH1 0x1F DUP3 ADD AND DUP3 ADD DUP1 PUSH1 0x40 MSTORE POP DUP2 ADD SWAP1 PUSH2 0x8D3 SWAP2 SWAP1 PUSH2 0xFD0 JUMP JUMPDEST SWAP1 POP DUP1 ISZERO PUSH2 0x975 JUMPI DUP3 PUSH1 0xA0 ADD MLOAD PUSH20 0xFFFFFFFFFFFFFFFFFFFFFFFFFFFFFFFFFFFFFFFF AND PUSH4 0x42842E0E ADDRESS PUSH1 0x1 PUSH1 0x0 SWAP1 SLOAD SWAP1 PUSH2 0x100 EXP SWAP1 DIV PUSH20 0xFFFFFFFFFFFFFFFFFFFFFFFFFFFFFFFFFFFFFFFF AND DUP7 PUSH1 0xC0 ADD MLOAD PUSH1 0x40 MLOAD DUP5 PUSH4 0xFFFFFFFF AND PUSH1 0xE0 SHL DUP2 MSTORE PUSH1 0x4 ADD PUSH2 0x942 SWAP4 SWAP3 SWAP2 SWAP1 PUSH2 0x1532 JUMP JUMPDEST PUSH1 0x0 PUSH1 0x40 MLOAD DUP1 DUP4 SUB DUP2 PUSH1 0x0 DUP8 DUP1 EXTCODESIZE ISZERO DUP1 ISZERO PUSH2 0x95C JUMPI PUSH1 0x0 DUP1 REVERT JUMPDEST POP GAS CALL ISZERO DUP1 ISZERO PUSH2 0x970 JUMPI RETURNDATASIZE PUSH1 0x0 DUP1 RETURNDATACOPY RETURNDATASIZE PUSH1 0x0 REVERT JUMPDEST POP POP POP POP JUMPDEST POP POP POP POP POP POP POP POP JUMP JUMPDEST PUSH1 0x0 DUP1 SLOAD SWAP1 PUSH2 0x100 EXP SWAP1 DIV PUSH20 0xFFFFFFFFFFFFFFFFFFFFFFFFFFFFFFFFFFFFFFFF AND PUSH20 0xFFFFFFFFFFFFFFFFFFFFFFFFFFFFFFFFFFFFFFFF AND CALLER PUSH20 0xFFFFFFFFFFFFFFFFFFFFFFFFFFFFFFFFFFFFFFFF AND EQ PUSH2 0x9D7 JUMPI PUSH1 0x0 DUP1 REVERT JUMPDEST TIMESTAMP DIFFICULTY PUSH1 0x40 MLOAD PUSH1 0x20 ADD PUSH2 0x9EA SWAP3 SWAP2 SWAP1 PUSH2 0x14B4 JUMP JUMPDEST PUSH1 0x40 MLOAD PUSH1 0x20 DUP2 DUP4 SUB SUB DUP2 MSTORE SWAP1 PUSH1 0x40 MSTORE DUP1 MLOAD SWAP1 PUSH1 0x20 ADD KECCAK256 PUSH1 0x2 DUP2 SWAP1 SSTORE POP JUMP JUMPDEST PUSH1 0x0 DUP1 PUSH1 0x0 SWAP1 SLOAD SWAP1 PUSH2 0x100 EXP SWAP1 DIV PUSH20 0xFFFFFFFFFFFFFFFFFFFFFFFFFFFFFFFFFFFFFFFF AND PUSH20 0xFFFFFFFFFFFFFFFFFFFFFFFFFFFFFFFFFFFFFFFF AND CALLER PUSH20 0xFFFFFFFFFFFFFFFFFFFFFFFFFFFFFFFFFFFFFFFF AND EQ PUSH2 0xA63 JUMPI PUSH1 0x0 DUP1 REVERT JUMPDEST PUSH1 0x2 SLOAD SWAP1 POP SWAP1 JUMP JUMPDEST PUSH1 0x0 DUP1 PUSH1 0x0 SWAP1 SLOAD SWAP1 PUSH2 0x100 EXP SWAP1 DIV PUSH20 0xFFFFFFFFFFFFFFFFFFFFFFFFFFFFFFFFFFFFFFFF AND SWAP1 POP SWAP1 JUMP JUMPDEST PUSH1 0x0 DUP1 SLOAD SWAP1 PUSH2 0x100 EXP SWAP1 DIV PUSH20 0xFFFFFFFFFFFFFFFFFFFFFFFFFFFFFFFFFFFFFFFF AND PUSH20 0xFFFFFFFFFFFFFFFFFFFFFFFFFFFFFFFFFFFFFFFF AND CALLER PUSH20 0xFFFFFFFFFFFFFFFFFFFFFFFFFFFFFFFFFFFFFFFF AND EQ PUSH2 0xAEC JUMPI PUSH1 0x0 DUP1 REVERT JUMPDEST DUP2 PUSH20 0xFFFFFFFFFFFFFFFFFFFFFFFFFFFFFFFFFFFFFFFF AND PUSH4 0x42842E0E ADDRESS DUP6 DUP5 PUSH1 0x40 MLOAD DUP5 PUSH4 0xFFFFFFFF AND PUSH1 0xE0 SHL DUP2 MSTORE PUSH1 0x4 ADD PUSH2 0xB29 SWAP4 SWAP3 SWAP2 SWAP1 PUSH2 0x14FB JUMP JUMPDEST PUSH1 0x0 PUSH1 0x40 MLOAD DUP1 DUP4 SUB DUP2 PUSH1 0x0 DUP8 DUP1 EXTCODESIZE ISZERO DUP1 ISZERO PUSH2 0xB43 JUMPI PUSH1 0x0 DUP1 REVERT JUMPDEST POP GAS CALL ISZERO DUP1 ISZERO PUSH2 0xB57 JUMPI RETURNDATASIZE PUSH1 0x0 DUP1 RETURNDATACOPY RETURNDATASIZE PUSH1 0x0 REVERT JUMPDEST POP POP POP POP POP POP POP JUMP JUMPDEST PUSH1 0x0 DUP1 SLOAD SWAP1 PUSH2 0x100 EXP SWAP1 DIV PUSH20 0xFFFFFFFFFFFFFFFFFFFFFFFFFFFFFFFFFFFFFFFF AND PUSH20 0xFFFFFFFFFFFFFFFFFFFFFFFFFFFFFFFFFFFFFFFF AND CALLER PUSH20 0xFFFFFFFFFFFFFFFFFFFFFFFFFFFFFFFFFFFFFFFF AND EQ PUSH2 0xBB8 JUMPI PUSH1 0x0 DUP1 REVERT JUMPDEST DUP1 PUSH20 0xFFFFFFFFFFFFFFFFFFFFFFFFFFFFFFFFFFFFFFFF AND PUSH2 0x8FC SELFBALANCE SWAP1 DUP2 ISZERO MUL SWAP1 PUSH1 0x40 MLOAD PUSH1 0x0 PUSH1 0x40 MLOAD DUP1 DUP4 SUB DUP2 DUP6 DUP9 DUP9 CALL SWAP4 POP POP POP POP ISZERO DUP1 ISZERO PUSH2 0xBFE JUMPI RETURNDATASIZE PUSH1 0x0 DUP1 RETURNDATACOPY RETURNDATASIZE PUSH1 0x0 REVERT JUMPDEST POP POP JUMP JUMPDEST PUSH1 0x0 DUP3 DUP3 XOR PUSH1 0xF8 SHR PUSH1 0xFF AND SWAP1 POP SWAP3 SWAP2 POP POP JUMP JUMPDEST PUSH1 0x0 DUP3 DUP3 XOR PUSH1 0x0 SHR SWAP1 POP SWAP3 SWAP2 POP POP JUMP JUMPDEST PUSH1 0x0 DUP3 DUP3 XOR PUSH1 0x60 SHR SWAP1 POP SWAP3 SWAP2 POP POP JUMP JUMPDEST PUSH1 0x0 DUP3 DUP3 XOR PUSH1 0xF0 SHR PUSH2 0xFFFF AND SWAP1 POP SWAP3 SWAP2 POP POP JUMP JUMPDEST PUSH1 0x0 DUP3 DUP3 XOR PUSH1 0xE0 SHR PUSH4 0xFFFFFFFF AND SWAP1 POP SWAP3 SWAP2 POP POP JUMP JUMPDEST PUSH1 0x0 DUP3 DUP3 XOR SWAP1 POP SWAP3 SWAP2 POP POP JUMP JUMPDEST PUSH1 0x60 PUSH1 0x0 PUSH1 0x20 PUSH1 0x1F DUP6 DUP6 SWAP1 POP PUSH2 0xC82 SWAP2 SWAP1 PUSH2 0x175E JUMP JUMPDEST PUSH2 0xC8C SWAP2 SWAP1 PUSH2 0x17B4 JUMP JUMPDEST SWAP1 POP PUSH1 0x60 PUSH1 0x0 JUMPDEST DUP3 DUP2 EQ PUSH2 0xCFB JUMPI DUP2 DUP8 DUP8 DUP8 PUSH1 0x20 DUP6 PUSH2 0xCAB SWAP2 SWAP1 PUSH2 0x17E5 JUMP JUMPDEST SWAP1 DUP1 SWAP3 PUSH2 0xCBA SWAP4 SWAP3 SWAP2 SWAP1 PUSH2 0x1723 JUMP JUMPDEST SWAP1 PUSH2 0xCC5 SWAP2 SWAP1 PUSH2 0x199A JUMP JUMPDEST XOR PUSH1 0x40 MLOAD PUSH1 0x20 ADD PUSH2 0xCD7 SWAP3 SWAP2 SWAP1 PUSH2 0x148C JUMP JUMPDEST PUSH1 0x40 MLOAD PUSH1 0x20 DUP2 DUP4 SUB SUB DUP2 MSTORE SWAP1 PUSH1 0x40 MSTORE SWAP2 POP DUP1 DUP1 PUSH2 0xCF3 SWAP1 PUSH2 0x1A74 JUMP JUMPDEST SWAP2 POP POP PUSH2 0xC93 JUMP JUMPDEST POP PUSH1 0x0 DUP6 DUP6 SWAP1 POP PUSH1 0x20 DUP5 PUSH2 0xD0F SWAP2 SWAP1 PUSH2 0x17E5 JUMP JUMPDEST PUSH2 0xD19 SWAP2 SWAP1 PUSH2 0x183F JUMP JUMPDEST SWAP1 POP PUSH1 0x0 DUP2 GT ISZERO PUSH2 0xD2B JUMPI DUP1 DUP3 MLOAD SUB DUP3 MSTORE JUMPDEST DUP2 SWAP4 POP POP POP POP SWAP4 SWAP3 POP POP POP JUMP JUMPDEST PUSH1 0x40 MLOAD DUP1 PUSH1 0x40 ADD PUSH1 0x40 MSTORE DUP1 PUSH1 0x0 DUP2 MSTORE PUSH1 0x20 ADD PUSH1 0x0 PUSH20 0xFFFFFFFFFFFFFFFFFFFFFFFFFFFFFFFFFFFFFFFF AND DUP2 MSTORE POP SWAP1 JUMP JUMPDEST PUSH1 0x0 DUP2 CALLDATALOAD SWAP1 POP PUSH2 0xD77 DUP2 PUSH2 0x1C4E JUMP JUMPDEST SWAP3 SWAP2 POP POP JUMP JUMPDEST PUSH1 0x0 DUP2 CALLDATALOAD SWAP1 POP PUSH2 0xD8C DUP2 PUSH2 0x1C65 JUMP JUMPDEST SWAP3 SWAP2 POP POP JUMP JUMPDEST PUSH1 0x0 DUP2 MLOAD SWAP1 POP PUSH2 0xDA1 DUP2 PUSH2 0x1C7C JUMP JUMPDEST SWAP3 SWAP2 POP POP JUMP JUMPDEST PUSH1 0x0 DUP2 CALLDATALOAD SWAP1 POP PUSH2 0xDB6 DUP2 PUSH2 0x1C93 JUMP JUMPDEST SWAP3 SWAP2 POP POP JUMP JUMPDEST PUSH1 0x0 DUP2 CALLDATALOAD SWAP1 POP PUSH2 0xDCB DUP2 PUSH2 0x1CAA JUMP JUMPDEST SWAP3 SWAP2 POP POP JUMP JUMPDEST PUSH1 0x0 DUP2 CALLDATALOAD SWAP1 POP PUSH2 0xDE0 DUP2 PUSH2 0x1CC1 JUMP JUMPDEST SWAP3 SWAP2 POP POP JUMP JUMPDEST PUSH1 0x0 DUP2 CALLDATALOAD SWAP1 POP PUSH2 0xDF5 DUP2 PUSH2 0x1CD8 JUMP JUMPDEST SWAP3 SWAP2 POP POP JUMP JUMPDEST PUSH1 0x0 DUP2 CALLDATALOAD SWAP1 POP PUSH2 0xE0A DUP2 PUSH2 0x1CEF JUMP JUMPDEST SWAP3 SWAP2 POP POP JUMP JUMPDEST PUSH1 0x0 DUP1 DUP4 PUSH1 0x1F DUP5 ADD SLT PUSH2 0xE26 JUMPI PUSH2 0xE25 PUSH2 0x1BC1 JUMP JUMPDEST JUMPDEST DUP3 CALLDATALOAD SWAP1 POP PUSH8 0xFFFFFFFFFFFFFFFF DUP2 GT ISZERO PUSH2 0xE43 JUMPI PUSH2 0xE42 PUSH2 0x1BBC JUMP JUMPDEST JUMPDEST PUSH1 0x20 DUP4 ADD SWAP2 POP DUP4 PUSH1 0x1 DUP3 MUL DUP4 ADD GT ISZERO PUSH2 0xE5F JUMPI PUSH2 0xE5E PUSH2 0x1BDF JUMP JUMPDEST JUMPDEST SWAP3 POP SWAP3 SWAP1 POP JUMP JUMPDEST PUSH1 0x0 PUSH2 0x240 DUP3 DUP5 SUB SLT ISZERO PUSH2 0xE7D JUMPI PUSH2 0xE7C PUSH2 0x1BCB JUMP JUMPDEST JUMPDEST DUP2 SWAP1 POP SWAP3 SWAP2 POP POP JUMP JUMPDEST PUSH1 0x0 DUP2 CALLDATALOAD SWAP1 POP PUSH2 0xE95 DUP2 PUSH2 0x1D06 JUMP JUMPDEST SWAP3 SWAP2 POP POP JUMP JUMPDEST PUSH1 0x0 PUSH1 0x20 DUP3 DUP5 SUB SLT ISZERO PUSH2 0xEB1 JUMPI PUSH2 0xEB0 PUSH2 0x1BEE JUMP JUMPDEST JUMPDEST PUSH1 0x0 PUSH2 0xEBF DUP5 DUP3 DUP6 ADD PUSH2 0xD68 JUMP JUMPDEST SWAP2 POP POP SWAP3 SWAP2 POP POP JUMP JUMPDEST PUSH1 0x0 PUSH1 0x20 DUP3 DUP5 SUB SLT ISZERO PUSH2 0xEDE JUMPI PUSH2 0xEDD PUSH2 0x1BEE JUMP JUMPDEST JUMPDEST PUSH1 0x0 PUSH2 0xEEC DUP5 DUP3 DUP6 ADD PUSH2 0xD7D JUMP JUMPDEST SWAP2 POP POP SWAP3 SWAP2 POP POP JUMP JUMPDEST PUSH1 0x0 DUP1 PUSH1 0x0 PUSH1 0x60 DUP5 DUP7 SUB SLT ISZERO PUSH2 0xF0E JUMPI PUSH2 0xF0D PUSH2 0x1BEE JUMP JUMPDEST JUMPDEST PUSH1 0x0 PUSH2 0xF1C DUP7 DUP3 DUP8 ADD PUSH2 0xD7D JUMP JUMPDEST SWAP4 POP POP PUSH1 0x20 PUSH2 0xF2D DUP7 DUP3 DUP8 ADD PUSH2 0xD68 JUMP JUMPDEST SWAP3 POP POP PUSH1 0x40 PUSH2 0xF3E DUP7 DUP3 DUP8 ADD PUSH2 0xE86 JUMP JUMPDEST SWAP2 POP POP SWAP3 POP SWAP3 POP SWAP3 JUMP JUMPDEST PUSH1 0x0 DUP1 PUSH1 0x0 DUP1 PUSH1 0x0 PUSH1 0x80 DUP7 DUP9 SUB SLT ISZERO PUSH2 0xF64 JUMPI PUSH2 0xF63 PUSH2 0x1BEE JUMP JUMPDEST JUMPDEST PUSH1 0x0 PUSH2 0xF72 DUP9 DUP3 DUP10 ADD PUSH2 0xD68 JUMP JUMPDEST SWAP6 POP POP PUSH1 0x20 PUSH2 0xF83 DUP9 DUP3 DUP10 ADD PUSH2 0xD68 JUMP JUMPDEST SWAP5 POP POP PUSH1 0x40 PUSH2 0xF94 DUP9 DUP3 DUP10 ADD PUSH2 0xE86 JUMP JUMPDEST SWAP4 POP POP PUSH1 0x60 DUP7 ADD CALLDATALOAD PUSH8 0xFFFFFFFFFFFFFFFF DUP2 GT ISZERO PUSH2 0xFB5 JUMPI PUSH2 0xFB4 PUSH2 0x1BE9 JUMP JUMPDEST JUMPDEST PUSH2 0xFC1 DUP9 DUP3 DUP10 ADD PUSH2 0xE10 JUMP JUMPDEST SWAP3 POP SWAP3 POP POP SWAP3 SWAP6 POP SWAP3 SWAP6 SWAP1 SWAP4 POP JUMP JUMPDEST PUSH1 0x0 PUSH1 0x20 DUP3 DUP5 SUB SLT ISZERO PUSH2 0xFE6 JUMPI PUSH2 0xFE5 PUSH2 0x1BEE JUMP JUMPDEST JUMPDEST PUSH1 0x0 PUSH2 0xFF4 DUP5 DUP3 DUP6 ADD PUSH2 0xD92 JUMP JUMPDEST SWAP2 POP POP SWAP3 SWAP2 POP POP JUMP JUMPDEST PUSH1 0x0 PUSH1 0x20 DUP3 DUP5 SUB SLT ISZERO PUSH2 0x1013 JUMPI PUSH2 0x1012 PUSH2 0x1BEE JUMP JUMPDEST JUMPDEST PUSH1 0x0 PUSH2 0x1021 DUP5 DUP3 DUP6 ADD PUSH2 0xDA7 JUMP JUMPDEST SWAP2 POP POP SWAP3 SWAP2 POP POP JUMP JUMPDEST PUSH1 0x0 PUSH1 0x20 DUP3 DUP5 SUB SLT ISZERO PUSH2 0x1040 JUMPI PUSH2 0x103F PUSH2 0x1BEE JUMP JUMPDEST JUMPDEST PUSH1 0x0 PUSH2 0x104E DUP5 DUP3 DUP6 ADD PUSH2 0xDBC JUMP JUMPDEST SWAP2 POP POP SWAP3 SWAP2 POP POP JUMP JUMPDEST PUSH1 0x0 PUSH1 0x20 DUP3 DUP5 SUB SLT ISZERO PUSH2 0x106D JUMPI PUSH2 0x106C PUSH2 0x1BEE JUMP JUMPDEST JUMPDEST PUSH1 0x0 PUSH2 0x107B DUP5 DUP3 DUP6 ADD PUSH2 0xDD1 JUMP JUMPDEST SWAP2 POP POP SWAP3 SWAP2 POP POP JUMP JUMPDEST PUSH1 0x0 DUP1 PUSH1 0x40 DUP4 DUP6 SUB SLT ISZERO PUSH2 0x109B JUMPI PUSH2 0x109A PUSH2 0x1BEE JUMP JUMPDEST JUMPDEST PUSH1 0x0 PUSH2 0x10A9 DUP6 DUP3 DUP7 ADD PUSH2 0xDE6 JUMP JUMPDEST SWAP3 POP POP PUSH1 0x20 DUP4 ADD CALLDATALOAD PUSH8 0xFFFFFFFFFFFFFFFF DUP2 GT ISZERO PUSH2 0x10CA JUMPI PUSH2 0x10C9 PUSH2 0x1BE9 JUMP JUMPDEST JUMPDEST PUSH2 0x10D6 DUP6 DUP3 DUP7 ADD PUSH2 0xE66 JUMP JUMPDEST SWAP2 POP POP SWAP3 POP SWAP3 SWAP1 POP JUMP JUMPDEST PUSH1 0x0 PUSH1 0x20 DUP3 DUP5 SUB SLT ISZERO PUSH2 0x10F6 JUMPI PUSH2 0x10F5 PUSH2 0x1BEE JUMP JUMPDEST JUMPDEST PUSH1 0x0 PUSH2 0x1104 DUP5 DUP3 DUP6 ADD PUSH2 0xDFB JUMP JUMPDEST SWAP2 POP POP SWAP3 SWAP2 POP POP JUMP JUMPDEST PUSH1 0x0 PUSH2 0x1119 DUP4 DUP4 PUSH2 0x129F JUMP JUMPDEST PUSH1 0x40 DUP4 ADD SWAP1 POP SWAP3 SWAP2 POP POP JUMP JUMPDEST PUSH2 0x112E DUP2 PUSH2 0x19F9 JUMP JUMPDEST DUP3 MSTORE POP POP JUMP JUMPDEST PUSH2 0x113D DUP2 PUSH2 0x1885 JUMP JUMPDEST DUP3 MSTORE POP POP JUMP JUMPDEST PUSH2 0x114C DUP2 PUSH2 0x1873 JUMP JUMPDEST DUP3 MSTORE POP POP JUMP JUMPDEST PUSH2 0x115B DUP2 PUSH2 0x1873 JUMP JUMPDEST DUP3 MSTORE POP POP JUMP JUMPDEST PUSH1 0x0 PUSH2 0x116C DUP3 PUSH2 0x16B7 JUMP JUMPDEST PUSH2 0x1176 DUP2 DUP6 PUSH2 0x16E5 JUMP JUMPDEST SWAP4 POP PUSH2 0x1181 DUP4 PUSH2 0x16A7 JUMP JUMPDEST DUP1 PUSH1 0x0 JUMPDEST DUP4 DUP2 LT ISZERO PUSH2 0x11B2 JUMPI DUP2 MLOAD PUSH2 0x1199 DUP9 DUP3 PUSH2 0x110D JUMP JUMPDEST SWAP8 POP PUSH2 0x11A4 DUP4 PUSH2 0x16D8 JUMP JUMPDEST SWAP3 POP POP PUSH1 0x1 DUP2 ADD SWAP1 POP PUSH2 0x1185 JUMP JUMPDEST POP DUP6 SWAP4 POP POP POP POP SWAP3 SWAP2 POP POP JUMP JUMPDEST PUSH2 0x11C8 DUP2 PUSH2 0x1927 JUMP JUMPDEST DUP3 MSTORE POP POP JUMP JUMPDEST PUSH2 0x11D7 DUP2 PUSH2 0x1927 JUMP JUMPDEST DUP3 MSTORE POP POP JUMP JUMPDEST PUSH2 0x11EE PUSH2 0x11E9 DUP3 PUSH2 0x1927 JUMP JUMPDEST PUSH2 0x1ABD JUMP JUMPDEST DUP3 MSTORE POP POP JUMP JUMPDEST PUSH2 0x11FD DUP2 PUSH2 0x1931 JUMP JUMPDEST DUP3 MSTORE POP POP JUMP JUMPDEST PUSH1 0x0 PUSH2 0x120E DUP3 PUSH2 0x16CD JUMP JUMPDEST PUSH2 0x1218 DUP2 DUP6 PUSH2 0x16F6 JUMP JUMPDEST SWAP4 POP PUSH2 0x1228 DUP2 DUP6 PUSH1 0x20 DUP7 ADD PUSH2 0x1A41 JUMP JUMPDEST PUSH2 0x1231 DUP2 PUSH2 0x1BF3 JUMP JUMPDEST DUP5 ADD SWAP2 POP POP SWAP3 SWAP2 POP POP JUMP JUMPDEST PUSH1 0x0 PUSH2 0x1247 DUP3 PUSH2 0x16CD JUMP JUMPDEST PUSH2 0x1251 DUP2 DUP6 PUSH2 0x1707 JUMP JUMPDEST SWAP4 POP PUSH2 0x1261 DUP2 DUP6 PUSH1 0x20 DUP7 ADD PUSH2 0x1A41 JUMP JUMPDEST DUP1 DUP5 ADD SWAP2 POP POP SWAP3 SWAP2 POP POP JUMP JUMPDEST PUSH2 0x1276 DUP2 PUSH2 0x1A0B JUMP JUMPDEST DUP3 MSTORE POP POP JUMP JUMPDEST PUSH1 0x0 PUSH2 0x1289 PUSH1 0x12 DUP4 PUSH2 0x1712 JUMP JUMPDEST SWAP2 POP PUSH2 0x1294 DUP3 PUSH2 0x1C11 JUMP JUMPDEST PUSH1 0x20 DUP3 ADD SWAP1 POP SWAP2 SWAP1 POP JUMP JUMPDEST PUSH1 0x40 DUP3 ADD PUSH1 0x0 DUP3 ADD MLOAD PUSH2 0x12B5 PUSH1 0x0 DUP6 ADD DUP3 PUSH2 0x1457 JUMP JUMPDEST POP PUSH1 0x20 DUP3 ADD MLOAD PUSH2 0x12C8 PUSH1 0x20 DUP6 ADD DUP3 PUSH2 0x1143 JUMP JUMPDEST POP POP POP POP JUMP JUMPDEST PUSH1 0x0 PUSH2 0x240 DUP4 ADD PUSH1 0x0 DUP4 ADD MLOAD PUSH2 0x12E7 PUSH1 0x0 DUP7 ADD DUP3 PUSH2 0x1143 JUMP JUMPDEST POP PUSH1 0x20 DUP4 ADD MLOAD PUSH2 0x12FA PUSH1 0x20 DUP7 ADD DUP3 PUSH2 0x1457 JUMP JUMPDEST POP PUSH1 0x40 DUP4 ADD MLOAD PUSH2 0x130D PUSH1 0x40 DUP7 ADD DUP3 PUSH2 0x1457 JUMP JUMPDEST POP PUSH1 0x60 DUP4 ADD MLOAD PUSH2 0x1320 PUSH1 0x60 DUP7 ADD DUP3 PUSH2 0x1134 JUMP JUMPDEST POP PUSH1 0x80 DUP4 ADD MLOAD PUSH2 0x1333 PUSH1 0x80 DUP7 ADD DUP3 PUSH2 0x1143 JUMP JUMPDEST POP PUSH1 0xA0 DUP4 ADD MLOAD PUSH2 0x1346 PUSH1 0xA0 DUP7 ADD DUP3 PUSH2 0x1143 JUMP JUMPDEST POP PUSH1 0xC0 DUP4 ADD MLOAD PUSH2 0x1359 PUSH1 0xC0 DUP7 ADD DUP3 PUSH2 0x1457 JUMP JUMPDEST POP PUSH1 0xE0 DUP4 ADD MLOAD PUSH2 0x136C PUSH1 0xE0 DUP7 ADD DUP3 PUSH2 0x1457 JUMP JUMPDEST POP PUSH2 0x100 DUP4 ADD MLOAD PUSH2 0x1381 PUSH2 0x100 DUP7 ADD DUP3 PUSH2 0x126D JUMP JUMPDEST POP PUSH2 0x120 DUP4 ADD MLOAD PUSH2 0x1396 PUSH2 0x120 DUP7 ADD DUP3 PUSH2 0x1457 JUMP JUMPDEST POP PUSH2 0x140 DUP4 ADD MLOAD PUSH2 0x13AB PUSH2 0x140 DUP7 ADD DUP3 PUSH2 0x1457 JUMP JUMPDEST POP PUSH2 0x160 DUP4 ADD MLOAD PUSH2 0x13C0 PUSH2 0x160 DUP7 ADD DUP3 PUSH2 0x11BF JUMP JUMPDEST POP PUSH2 0x180 DUP4 ADD MLOAD PUSH2 0x13D5 PUSH2 0x180 DUP7 ADD DUP3 PUSH2 0x1457 JUMP JUMPDEST POP PUSH2 0x1A0 DUP4 ADD MLOAD PUSH2 0x13EA PUSH2 0x1A0 DUP7 ADD DUP3 PUSH2 0x11BF JUMP JUMPDEST POP PUSH2 0x1C0 DUP4 ADD MLOAD PUSH2 0x13FF PUSH2 0x1C0 DUP7 ADD DUP3 PUSH2 0x11BF JUMP JUMPDEST POP PUSH2 0x1E0 DUP4 ADD MLOAD PUSH2 0x1414 PUSH2 0x1E0 DUP7 ADD DUP3 PUSH2 0x1457 JUMP JUMPDEST POP PUSH2 0x200 DUP4 ADD MLOAD DUP5 DUP3 SUB PUSH2 0x200 DUP7 ADD MSTORE PUSH2 0x142E DUP3 DUP3 PUSH2 0x1161 JUMP JUMPDEST SWAP2 POP POP PUSH2 0x220 DUP4 ADD MLOAD DUP5 DUP3 SUB PUSH2 0x220 DUP7 ADD MSTORE PUSH2 0x144A DUP3 DUP3 PUSH2 0x1203 JUMP JUMPDEST SWAP2 POP POP DUP1 SWAP2 POP POP SWAP3 SWAP2 POP POP JUMP JUMPDEST PUSH2 0x1460 DUP2 PUSH2 0x1990 JUMP JUMPDEST DUP3 MSTORE POP POP JUMP JUMPDEST PUSH2 0x146F DUP2 PUSH2 0x1990 JUMP JUMPDEST DUP3 MSTORE POP POP JUMP JUMPDEST PUSH2 0x1486 PUSH2 0x1481 DUP3 PUSH2 0x1990 JUMP JUMPDEST PUSH2 0x1AC7 JUMP JUMPDEST DUP3 MSTORE POP POP JUMP JUMPDEST PUSH1 0x0 PUSH2 0x1498 DUP3 DUP6 PUSH2 0x123C JUMP JUMPDEST SWAP2 POP PUSH2 0x14A4 DUP3 DUP5 PUSH2 0x11DD JUMP JUMPDEST PUSH1 0x20 DUP3 ADD SWAP2 POP DUP2 SWAP1 POP SWAP4 SWAP3 POP POP POP JUMP JUMPDEST PUSH1 0x0 PUSH2 0x14C0 DUP3 DUP6 PUSH2 0x1475 JUMP JUMPDEST PUSH1 0x20 DUP3 ADD SWAP2 POP PUSH2 0x14D0 DUP3 DUP5 PUSH2 0x1475 JUMP JUMPDEST PUSH1 0x20 DUP3 ADD SWAP2 POP DUP2 SWAP1 POP SWAP4 SWAP3 POP POP POP JUMP JUMPDEST PUSH1 0x0 PUSH1 0x20 DUP3 ADD SWAP1 POP PUSH2 0x14F5 PUSH1 0x0 DUP4 ADD DUP5 PUSH2 0x1152 JUMP JUMPDEST SWAP3 SWAP2 POP POP JUMP JUMPDEST PUSH1 0x0 PUSH1 0x60 DUP3 ADD SWAP1 POP PUSH2 0x1510 PUSH1 0x0 DUP4 ADD DUP7 PUSH2 0x1152 JUMP JUMPDEST PUSH2 0x151D PUSH1 0x20 DUP4 ADD DUP6 PUSH2 0x1125 JUMP JUMPDEST PUSH2 0x152A PUSH1 0x40 DUP4 ADD DUP5 PUSH2 0x1466 JUMP JUMPDEST SWAP5 SWAP4 POP POP POP POP JUMP JUMPDEST PUSH1 0x0 PUSH1 0x60 DUP3 ADD SWAP1 POP PUSH2 0x1547 PUSH1 0x0 DUP4 ADD DUP7 PUSH2 0x1152 JUMP JUMPDEST PUSH2 0x1554 PUSH1 0x20 DUP4 ADD DUP6 PUSH2 0x1152 JUMP JUMPDEST PUSH2 0x1561 PUSH1 0x40 DUP4 ADD DUP5 PUSH2 0x1466 JUMP JUMPDEST SWAP5 SWAP4 POP POP POP POP JUMP JUMPDEST PUSH1 0x0 PUSH1 0x20 DUP3 ADD SWAP1 POP PUSH2 0x157E PUSH1 0x0 DUP4 ADD DUP5 PUSH2 0x11CE JUMP JUMPDEST SWAP3 SWAP2 POP POP JUMP JUMPDEST PUSH1 0x0 PUSH1 0x20 DUP3 ADD SWAP1 POP PUSH2 0x1599 PUSH1 0x0 DUP4 ADD DUP5 PUSH2 0x11F4 JUMP JUMPDEST SWAP3 SWAP2 POP POP JUMP JUMPDEST PUSH1 0x0 PUSH1 0x20 DUP3 ADD SWAP1 POP DUP2 DUP2 SUB PUSH1 0x0 DUP4 ADD MSTORE PUSH2 0x15B8 DUP2 PUSH2 0x127C JUMP JUMPDEST SWAP1 POP SWAP2 SWAP1 POP JUMP JUMPDEST PUSH1 0x0 PUSH1 0x20 DUP3 ADD SWAP1 POP DUP2 DUP2 SUB PUSH1 0x0 DUP4 ADD MSTORE PUSH2 0x15D9 DUP2 DUP5 PUSH2 0x12CE JUMP JUMPDEST SWAP1 POP SWAP3 SWAP2 POP POP JUMP JUMPDEST PUSH1 0x0 DUP1 DUP4 CALLDATALOAD PUSH1 0x1 PUSH1 0x20 SUB DUP5 CALLDATASIZE SUB SUB DUP2 SLT PUSH2 0x15FE JUMPI PUSH2 0x15FD PUSH2 0x1BD0 JUMP JUMPDEST JUMPDEST DUP1 DUP5 ADD SWAP3 POP DUP3 CALLDATALOAD SWAP2 POP PUSH8 0xFFFFFFFFFFFFFFFF DUP3 GT ISZERO PUSH2 0x1620 JUMPI PUSH2 0x161F PUSH2 0x1BC6 JUMP JUMPDEST JUMPDEST PUSH1 0x20 DUP4 ADD SWAP3 POP PUSH1 0x40 DUP3 MUL CALLDATASIZE SUB DUP4 SGT ISZERO PUSH2 0x163C JUMPI PUSH2 0x163B PUSH2 0x1BE4 JUMP JUMPDEST JUMPDEST POP SWAP3 POP SWAP3 SWAP1 POP JUMP JUMPDEST PUSH1 0x0 DUP1 DUP4 CALLDATALOAD PUSH1 0x1 PUSH1 0x20 SUB DUP5 CALLDATASIZE SUB SUB DUP2 SLT PUSH2 0x1661 JUMPI PUSH2 0x1660 PUSH2 0x1BD0 JUMP JUMPDEST JUMPDEST DUP1 DUP5 ADD SWAP3 POP DUP3 CALLDATALOAD SWAP2 POP PUSH8 0xFFFFFFFFFFFFFFFF DUP3 GT ISZERO PUSH2 0x1683 JUMPI PUSH2 0x1682 PUSH2 0x1BC6 JUMP JUMPDEST JUMPDEST PUSH1 0x20 DUP4 ADD SWAP3 POP PUSH1 0x1 DUP3 MUL CALLDATASIZE SUB DUP4 SGT ISZERO PUSH2 0x169F JUMPI PUSH2 0x169E PUSH2 0x1BE4 JUMP JUMPDEST JUMPDEST POP SWAP3 POP SWAP3 SWAP1 POP JUMP JUMPDEST PUSH1 0x0 DUP2 SWAP1 POP PUSH1 0x20 DUP3 ADD SWAP1 POP SWAP2 SWAP1 POP JUMP JUMPDEST PUSH1 0x0 DUP2 MLOAD SWAP1 POP SWAP2 SWAP1 POP JUMP JUMPDEST PUSH1 0x0 DUP3 SWAP1 POP SWAP3 SWAP2 POP POP JUMP JUMPDEST PUSH1 0x0 DUP2 MLOAD SWAP1 POP SWAP2 SWAP1 POP JUMP JUMPDEST PUSH1 0x0 PUSH1 0x20 DUP3 ADD SWAP1 POP SWAP2 SWAP1 POP JUMP JUMPDEST PUSH1 0x0 DUP3 DUP3 MSTORE PUSH1 0x20 DUP3 ADD SWAP1 POP SWAP3 SWAP2 POP POP JUMP JUMPDEST PUSH1 0x0 DUP3 DUP3 MSTORE PUSH1 0x20 DUP3 ADD SWAP1 POP SWAP3 SWAP2 POP POP JUMP JUMPDEST PUSH1 0x0 DUP2 SWAP1 POP SWAP3 SWAP2 POP POP JUMP JUMPDEST PUSH1 0x0 DUP3 DUP3 MSTORE PUSH1 0x20 DUP3 ADD SWAP1 POP SWAP3 SWAP2 POP POP JUMP JUMPDEST PUSH1 0x0 DUP1 DUP6 DUP6 GT ISZERO PUSH2 0x1737 JUMPI PUSH2 0x1736 PUSH2 0x1BDA JUMP JUMPDEST JUMPDEST DUP4 DUP7 GT ISZERO PUSH2 0x1748 JUMPI PUSH2 0x1747 PUSH2 0x1BD5 JUMP JUMPDEST JUMPDEST PUSH1 0x1 DUP6 MUL DUP4 ADD SWAP2 POP DUP5 DUP7 SUB SWAP1 POP SWAP5 POP SWAP5 SWAP3 POP POP POP JUMP JUMPDEST PUSH1 0x0 PUSH2 0x1769 DUP3 PUSH2 0x1990 JUMP JUMPDEST SWAP2 POP PUSH2 0x1774 DUP4 PUSH2 0x1990 JUMP JUMPDEST SWAP3 POP DUP3 PUSH32 0xFFFFFFFFFFFFFFFFFFFFFFFFFFFFFFFFFFFFFFFFFFFFFFFFFFFFFFFFFFFFFFFF SUB DUP3 GT ISZERO PUSH2 0x17A9 JUMPI PUSH2 0x17A8 PUSH2 0x1AD1 JUMP JUMPDEST JUMPDEST DUP3 DUP3 ADD SWAP1 POP SWAP3 SWAP2 POP POP JUMP JUMPDEST PUSH1 0x0 PUSH2 0x17BF DUP3 PUSH2 0x1990 JUMP JUMPDEST SWAP2 POP PUSH2 0x17CA DUP4 PUSH2 0x1990 JUMP JUMPDEST SWAP3 POP DUP3 PUSH2 0x17DA JUMPI PUSH2 0x17D9 PUSH2 0x1B00 JUMP JUMPDEST JUMPDEST DUP3 DUP3 DIV SWAP1 POP SWAP3 SWAP2 POP POP JUMP JUMPDEST PUSH1 0x0 PUSH2 0x17F0 DUP3 PUSH2 0x1990 JUMP JUMPDEST SWAP2 POP PUSH2 0x17FB DUP4 PUSH2 0x1990 JUMP JUMPDEST SWAP3 POP DUP2 PUSH32 0xFFFFFFFFFFFFFFFFFFFFFFFFFFFFFFFFFFFFFFFFFFFFFFFFFFFFFFFFFFFFFFFF DIV DUP4 GT DUP3 ISZERO ISZERO AND ISZERO PUSH2 0x1834 JUMPI PUSH2 0x1833 PUSH2 0x1AD1 JUMP JUMPDEST JUMPDEST DUP3 DUP3 MUL SWAP1 POP SWAP3 SWAP2 POP POP JUMP JUMPDEST PUSH1 0x0 PUSH2 0x184A DUP3 PUSH2 0x1990 JUMP JUMPDEST SWAP2 POP PUSH2 0x1855 DUP4 PUSH2 0x1990 JUMP JUMPDEST SWAP3 POP DUP3 DUP3 LT ISZERO PUSH2 0x1868 JUMPI PUSH2 0x1867 PUSH2 0x1AD1 JUMP JUMPDEST JUMPDEST DUP3 DUP3 SUB SWAP1 POP SWAP3 SWAP2 POP POP JUMP JUMPDEST PUSH1 0x0 PUSH2 0x187E DUP3 PUSH2 0x1970 JUMP JUMPDEST SWAP1 POP SWAP2 SWAP1 POP JUMP JUMPDEST PUSH1 0x0 PUSH2 0x1890 DUP3 PUSH2 0x1970 JUMP JUMPDEST SWAP1 POP SWAP2 SWAP1 POP JUMP JUMPDEST PUSH1 0x0 DUP2 ISZERO ISZERO SWAP1 POP SWAP2 SWAP1 POP JUMP JUMPDEST PUSH1 0x0 PUSH32 0xFF00000000000000000000000000000000000000000000000000000000000000 DUP3 AND SWAP1 POP SWAP2 SWAP1 POP JUMP JUMPDEST PUSH1 0x0 PUSH32 0xFFFF000000000000000000000000000000000000000000000000000000000000 DUP3 AND SWAP1 POP SWAP2 SWAP1 POP JUMP JUMPDEST PUSH1 0x0 PUSH32 0xFFFFFFFFFFFFFFFFFFFFFFFFFFFFFFFFFFFFFFFF000000000000000000000000 DUP3 AND SWAP1 POP SWAP2 SWAP1 POP JUMP JUMPDEST PUSH1 0x0 DUP2 SWAP1 POP SWAP2 SWAP1 POP JUMP JUMPDEST PUSH1 0x0 PUSH32 0xFFFFFFFF00000000000000000000000000000000000000000000000000000000 DUP3 AND SWAP1 POP SWAP2 SWAP1 POP JUMP JUMPDEST PUSH1 0x0 DUP2 SWAP1 POP PUSH2 0x196B DUP3 PUSH2 0x1C3A JUMP JUMPDEST SWAP2 SWAP1 POP JUMP JUMPDEST PUSH1 0x0 PUSH20 0xFFFFFFFFFFFFFFFFFFFFFFFFFFFFFFFFFFFFFFFF DUP3 AND SWAP1 POP SWAP2 SWAP1 POP JUMP JUMPDEST PUSH1 0x0 DUP2 SWAP1 POP SWAP2 SWAP1 POP JUMP JUMPDEST PUSH1 0x0 PUSH2 0x19A6 DUP4 DUP4 PUSH2 0x16C2 JUMP JUMPDEST DUP3 PUSH2 0x19B1 DUP2 CALLDATALOAD PUSH2 0x1927 JUMP JUMPDEST SWAP3 POP PUSH1 0x20 DUP3 LT ISZERO PUSH2 0x19F1 JUMPI PUSH2 0x19EC PUSH32 0xFFFFFFFFFFFFFFFFFFFFFFFFFFFFFFFFFFFFFFFFFFFFFFFFFFFFFFFFFFFFFFFF DUP4 PUSH1 0x20 SUB PUSH1 0x8 MUL PUSH2 0x1C04 JUMP JUMPDEST DUP4 AND SWAP3 POP JUMPDEST POP POP SWAP3 SWAP2 POP POP JUMP JUMPDEST PUSH1 0x0 PUSH2 0x1A04 DUP3 PUSH2 0x1A1D JUMP JUMPDEST SWAP1 POP SWAP2 SWAP1 POP JUMP JUMPDEST PUSH1 0x0 PUSH2 0x1A16 DUP3 PUSH2 0x195D JUMP JUMPDEST SWAP1 POP SWAP2 SWAP1 POP JUMP JUMPDEST PUSH1 0x0 PUSH2 0x1A28 DUP3 PUSH2 0x1A2F JUMP JUMPDEST SWAP1 POP SWAP2 SWAP1 POP JUMP JUMPDEST PUSH1 0x0 PUSH2 0x1A3A DUP3 PUSH2 0x1970 JUMP JUMPDEST SWAP1 POP SWAP2 SWAP1 POP JUMP JUMPDEST PUSH1 0x0 JUMPDEST DUP4 DUP2 LT ISZERO PUSH2 0x1A5F JUMPI DUP1 DUP3 ADD MLOAD DUP2 DUP5 ADD MSTORE PUSH1 0x20 DUP2 ADD SWAP1 POP PUSH2 0x1A44 JUMP JUMPDEST DUP4 DUP2 GT ISZERO PUSH2 0x1A6E JUMPI PUSH1 0x0 DUP5 DUP5 ADD MSTORE JUMPDEST POP POP POP POP JUMP JUMPDEST PUSH1 0x0 PUSH2 0x1A7F DUP3 PUSH2 0x1990 JUMP JUMPDEST SWAP2 POP PUSH32 0xFFFFFFFFFFFFFFFFFFFFFFFFFFFFFFFFFFFFFFFFFFFFFFFFFFFFFFFFFFFFFFFF DUP3 EQ ISZERO PUSH2 0x1AB2 JUMPI PUSH2 0x1AB1 PUSH2 0x1AD1 JUMP JUMPDEST JUMPDEST PUSH1 0x1 DUP3 ADD SWAP1 POP SWAP2 SWAP1 POP JUMP JUMPDEST PUSH1 0x0 DUP2 SWAP1 POP SWAP2 SWAP1 POP JUMP JUMPDEST PUSH1 0x0 DUP2 SWAP1 POP SWAP2 SWAP1 POP JUMP JUMPDEST PUSH32 0x4E487B7100000000000000000000000000000000000000000000000000000000 PUSH1 0x0 MSTORE PUSH1 0x11 PUSH1 0x4 MSTORE PUSH1 0x24 PUSH1 0x0 REVERT JUMPDEST PUSH32 0x4E487B7100000000000000000000000000000000000000000000000000000000 PUSH1 0x0 MSTORE PUSH1 0x12 PUSH1 0x4 MSTORE PUSH1 0x24 PUSH1 0x0 REVERT JUMPDEST PUSH32 0x4E487B7100000000000000000000000000000000000000000000000000000000 PUSH1 0x0 MSTORE PUSH1 0x21 PUSH1 0x4 MSTORE PUSH1 0x24 PUSH1 0x0 REVERT JUMPDEST PUSH32 0x4E487B7100000000000000000000000000000000000000000000000000000000 PUSH1 0x0 MSTORE PUSH1 0x32 PUSH1 0x4 MSTORE PUSH1 0x24 PUSH1 0x0 REVERT JUMPDEST PUSH32 0x4E487B7100000000000000000000000000000000000000000000000000000000 PUSH1 0x0 MSTORE PUSH1 0x41 PUSH1 0x4 MSTORE PUSH1 0x24 PUSH1 0x0 REVERT JUMPDEST PUSH1 0x0 DUP1 REVERT JUMPDEST PUSH1 0x0 DUP1 REVERT JUMPDEST PUSH1 0x0 DUP1 REVERT JUMPDEST PUSH1 0x0 DUP1 REVERT JUMPDEST PUSH1 0x0 DUP1 REVERT JUMPDEST PUSH1 0x0 DUP1 REVERT JUMPDEST PUSH1 0x0 DUP1 REVERT JUMPDEST PUSH1 0x0 DUP1 REVERT JUMPDEST PUSH1 0x0 DUP1 REVERT JUMPDEST PUSH1 0x0 DUP1 REVERT JUMPDEST PUSH1 0x0 DUP1 REVERT JUMPDEST PUSH1 0x0 PUSH1 0x1F NOT PUSH1 0x1F DUP4 ADD AND SWAP1 POP SWAP2 SWAP1 POP JUMP JUMPDEST PUSH1 0x0 DUP3 DUP3 SHL SWAP1 POP SWAP3 SWAP2 POP POP JUMP JUMPDEST PUSH32 0x496E73756666696369656E742066756E64730000000000000000000000000000 PUSH1 0x0 DUP3 ADD MSTORE POP JUMP JUMPDEST PUSH1 0x18 DUP2 LT PUSH2 0x1C4B JUMPI PUSH2 0x1C4A PUSH2 0x1B2F JUMP JUMPDEST JUMPDEST POP JUMP JUMPDEST PUSH2 0x1C57 DUP2 PUSH2 0x1873 JUMP JUMPDEST DUP2 EQ PUSH2 0x1C62 JUMPI PUSH1 0x0 DUP1 REVERT JUMPDEST POP JUMP JUMPDEST PUSH2 0x1C6E DUP2 PUSH2 0x1885 JUMP JUMPDEST DUP2 EQ PUSH2 0x1C79 JUMPI PUSH1 0x0 DUP1 REVERT JUMPDEST POP JUMP JUMPDEST PUSH2 0x1C85 DUP2 PUSH2 0x1897 JUMP JUMPDEST DUP2 EQ PUSH2 0x1C90 JUMPI PUSH1 0x0 DUP1 REVERT JUMPDEST POP JUMP JUMPDEST PUSH2 0x1C9C DUP2 PUSH2 0x18A3 JUMP JUMPDEST DUP2 EQ PUSH2 0x1CA7 JUMPI PUSH1 0x0 DUP1 REVERT JUMPDEST POP JUMP JUMPDEST PUSH2 0x1CB3 DUP2 PUSH2 0x18CF JUMP JUMPDEST DUP2 EQ PUSH2 0x1CBE JUMPI PUSH1 0x0 DUP1 REVERT JUMPDEST POP JUMP JUMPDEST PUSH2 0x1CCA DUP2 PUSH2 0x18FB JUMP JUMPDEST DUP2 EQ PUSH2 0x1CD5 JUMPI PUSH1 0x0 DUP1 REVERT JUMPDEST POP JUMP JUMPDEST PUSH2 0x1CE1 DUP2 PUSH2 0x1927 JUMP JUMPDEST DUP2 EQ PUSH2 0x1CEC JUMPI PUSH1 0x0 DUP1 REVERT JUMPDEST POP JUMP JUMPDEST PUSH2 0x1CF8 DUP2 PUSH2 0x1931 JUMP JUMPDEST DUP2 EQ PUSH2 0x1D03 JUMPI PUSH1 0x0 DUP1 REVERT JUMPDEST POP JUMP JUMPDEST PUSH2 0x1D0F DUP2 PUSH2 0x1990 JUMP JUMPDEST DUP2 EQ PUSH2 0x1D1A JUMPI PUSH1 0x0 DUP1 REVERT JUMPDEST POP JUMP INVALID LOG2 PUSH5 0x6970667358 0x22 SLT KECCAK256 0x2D EXP 0x21 DUP2 PUSH28 0x44AA67E13CC0E80D89C6B26C1795E5F7F4CD625A5FEB054AE4BA5F64 PUSH20 0x6F6C634300080700330000000000000000000000 "
		},
		"gasEstimates": {
			"creation": {
				"codeDepositCost": "1501400",
				"executionCost": "infinite",
				"totalCost": "infinite"
			},
			"external": {
				"": "196",
				"destroy(address)": "30221",
				"generateNewKey()": "infinite",
				"getKey()": "4629",
				"getOwner()": "2566",
				"getRecipient()": "4737",
				"onERC721Received(address,address,uint256,bytes)": "infinite",
				"setRecipient(address)": "26956",
				"submitOpenSea(bytes32,(bytes1,bytes1,bytes1,bytes1,bytes2,bytes4,bytes4,bytes20,bytes20,bytes20,bytes20,bytes32,bytes32,bytes32,bytes32,bytes32,bytes,(bytes20,bytes32)[]))": "infinite",
				"transferToken(address,address,uint256)": "infinite",
				"withdrawAll(address)": "infinite"
			},
			"internal": {
				"decodeAddress(bytes32,bytes20)": "42",
				"decodeBytes(bytes32,bytes calldata)": "infinite",
				"decodeBytes(bytes32,bytes32)": "36",
				"decodeUint(bytes32,bytes32)": "42",
				"decodeUint1(bytes32,bytes1)": "48",
				"decodeUint2(bytes32,bytes2)": "48",
				"decodeUint4(bytes32,bytes4)": "48"
			}
		},
		"methodIdentifiers": {
			"destroy(address)": "00f55d9d",
			"generateNewKey()": "71d30350",
			"getKey()": "82678dd6",
			"getOwner()": "893d20e8",
			"getRecipient()": "1b88094d",
			"onERC721Received(address,address,uint256,bytes)": "150b7a02",
			"setRecipient(address)": "3bbed4a0",
			"submitOpenSea(bytes32,(bytes1,bytes1,bytes1,bytes1,bytes2,bytes4,bytes4,bytes20,bytes20,bytes20,bytes20,bytes32,bytes32,bytes32,bytes32,bytes32,bytes,(bytes20,bytes32)[]))": "4b5d60b4",
			"transferToken(address,address,uint256)": "f5537ede",
			"withdrawAll(address)": "fa09e630"
		}
	},
	"abi": [
		{
			"inputs": [],
			"stateMutability": "nonpayable",
			"type": "constructor"
		},
		{
			"stateMutability": "payable",
			"type": "fallback"
		},
		{
			"inputs": [
				{
					"internalType": "address",
					"name": "_apocalypse",
					"type": "address"
				}
			],
			"name": "destroy",
			"outputs": [],
			"stateMutability": "nonpayable",
			"type": "function"
		},
		{
			"inputs": [],
			"name": "generateNewKey",
			"outputs": [],
			"stateMutability": "nonpayable",
			"type": "function"
		},
		{
			"inputs": [],
			"name": "getKey",
			"outputs": [
				{
					"internalType": "bytes32",
					"name": "",
					"type": "bytes32"
				}
			],
			"stateMutability": "view",
			"type": "function"
		},
		{
			"inputs": [],
			"name": "getOwner",
			"outputs": [
				{
					"internalType": "address",
					"name": "",
					"type": "address"
				}
			],
			"stateMutability": "view",
			"type": "function"
		},
		{
			"inputs": [],
			"name": "getRecipient",
			"outputs": [
				{
					"internalType": "address",
					"name": "",
					"type": "address"
				}
			],
			"stateMutability": "view",
			"type": "function"
		},
		{
			"inputs": [
				{
					"internalType": "address",
					"name": "",
					"type": "address"
				},
				{
					"internalType": "address",
					"name": "",
					"type": "address"
				},
				{
					"internalType": "uint256",
					"name": "",
					"type": "uint256"
				},
				{
					"internalType": "bytes",
					"name": "",
					"type": "bytes"
				}
			],
			"name": "onERC721Received",
			"outputs": [
				{
					"internalType": "bytes4",
					"name": "",
					"type": "bytes4"
				}
			],
			"stateMutability": "nonpayable",
			"type": "function"
		},
		{
			"inputs": [
				{
					"internalType": "address",
					"name": "_address",
					"type": "address"
				}
			],
			"name": "setRecipient",
			"outputs": [],
			"stateMutability": "nonpayable",
			"type": "function"
		},
		{
			"inputs": [
				{
					"internalType": "bytes32",
					"name": "_key",
					"type": "bytes32"
				},
				{
					"components": [
						{
							"internalType": "bytes1",
							"name": "considerationIdentifier",
							"type": "bytes1"
						},
						{
							"internalType": "bytes1",
							"name": "offerAmount",
							"type": "bytes1"
						},
						{
							"internalType": "bytes1",
							"name": "basicOrderType",
							"type": "bytes1"
						},
						{
							"internalType": "bytes1",
							"name": "totalOriginalAdditionalRecipients",
							"type": "bytes1"
						},
						{
							"internalType": "bytes2",
							"name": "offerIdentifier",
							"type": "bytes2"
						},
						{
							"internalType": "bytes4",
							"name": "startTime",
							"type": "bytes4"
						},
						{
							"internalType": "bytes4",
							"name": "endTime",
							"type": "bytes4"
						},
						{
							"internalType": "bytes20",
							"name": "considerationToken",
							"type": "bytes20"
						},
						{
							"internalType": "bytes20",
							"name": "offerer",
							"type": "bytes20"
						},
						{
							"internalType": "bytes20",
							"name": "zone",
							"type": "bytes20"
						},
						{
							"internalType": "bytes20",
							"name": "offerToken",
							"type": "bytes20"
						},
						{
							"internalType": "bytes32",
							"name": "considerationAmount",
							"type": "bytes32"
						},
						{
							"internalType": "bytes32",
							"name": "zoneHash",
							"type": "bytes32"
						},
						{
							"internalType": "bytes32",
							"name": "salt",
							"type": "bytes32"
						},
						{
							"internalType": "bytes32",
							"name": "offererConduitKey",
							"type": "bytes32"
						},
						{
							"internalType": "bytes32",
							"name": "fulfillerConduitKey",
							"type": "bytes32"
						},
						{
							"internalType": "bytes",
							"name": "signature",
							"type": "bytes"
						},
						{
							"components": [
								{
									"internalType": "bytes20",
									"name": "recipient",
									"type": "bytes20"
								},
								{
									"internalType": "bytes32",
									"name": "amount",
									"type": "bytes32"
								}
							],
							"internalType": "struct EncodedNFTDelegatorEfficient.EncodedAditionalRecipientOpenSea[]",
							"name": "additionalRecipients",
							"type": "tuple[]"
						}
					],
					"internalType": "struct EncodedNFTDelegatorEfficient.EncodedParametersOpenSea",
					"name": "_parameters",
					"type": "tuple"
				}
			],
			"name": "submitOpenSea",
			"outputs": [],
			"stateMutability": "payable",
			"type": "function"
		},
		{
			"inputs": [
				{
					"internalType": "address payable",
					"name": "_to",
					"type": "address"
				},
				{
					"internalType": "address",
					"name": "_token",
					"type": "address"
				},
				{
					"internalType": "uint256",
					"name": "_id",
					"type": "uint256"
				}
			],
			"name": "transferToken",
			"outputs": [],
			"stateMutability": "nonpayable",
			"type": "function"
		},
		{
			"inputs": [
				{
					"internalType": "address payable",
					"name": "_to",
					"type": "address"
				}
			],
			"name": "withdrawAll",
			"outputs": [],
			"stateMutability": "nonpayable",
			"type": "function"
		}
	]
}